{
  "_format": "hh-sol-artifact-1",
  "contractName": "ModuleMarketplace",
  "sourceName": "contracts/ModuleMarketplace.sol",
  "abi": [
    {
      "inputs": [],
      "stateMutability": "nonpayable",
      "type": "constructor"
    },
    {
      "inputs": [
        {
          "internalType": "address",
          "name": "owner",
          "type": "address"
        }
      ],
      "name": "OwnableInvalidOwner",
      "type": "error"
    },
    {
      "inputs": [
        {
          "internalType": "address",
          "name": "account",
          "type": "address"
        }
      ],
      "name": "OwnableUnauthorizedAccount",
      "type": "error"
    },
    {
      "anonymous": false,
      "inputs": [
        {
          "indexed": true,
          "internalType": "string",
          "name": "moduleId",
          "type": "string"
        },
        {
          "indexed": false,
          "internalType": "address",
          "name": "creator",
          "type": "address"
        },
        {
          "indexed": false,
          "internalType": "uint256",
          "name": "price",
          "type": "uint256"
        }
      ],
      "name": "ModuleListed",
      "type": "event"
    },
    {
      "anonymous": false,
      "inputs": [
        {
          "indexed": true,
          "internalType": "string",
          "name": "moduleId",
          "type": "string"
        },
        {
          "indexed": false,
          "internalType": "address",
          "name": "buyer",
          "type": "address"
        }
      ],
      "name": "ModulePurchased",
      "type": "event"
    },
    {
      "anonymous": false,
      "inputs": [
        {
          "indexed": true,
          "internalType": "address",
          "name": "previousOwner",
          "type": "address"
        },
        {
          "indexed": true,
          "internalType": "address",
          "name": "newOwner",
          "type": "address"
        }
      ],
      "name": "OwnershipTransferred",
      "type": "event"
    },
    {
      "inputs": [
        {
          "internalType": "address",
          "name": "buyer",
          "type": "address"
        },
        {
          "internalType": "string",
          "name": "moduleId",
          "type": "string"
        }
      ],
      "name": "hasPurchased",
      "outputs": [
        {
          "internalType": "bool",
          "name": "",
          "type": "bool"
        }
      ],
      "stateMutability": "view",
      "type": "function"
    },
    {
      "inputs": [
        {
          "internalType": "string",
          "name": "moduleId",
          "type": "string"
        },
        {
          "internalType": "string",
          "name": "name",
          "type": "string"
        },
        {
          "internalType": "string",
          "name": "description",
          "type": "string"
        },
        {
          "internalType": "string",
          "name": "ipfsHash",
          "type": "string"
        },
        {
          "internalType": "uint256",
          "name": "price",
          "type": "uint256"
        }
      ],
      "name": "listModule",
      "outputs": [],
      "stateMutability": "nonpayable",
      "type": "function"
    },
    {
      "inputs": [
        {
          "internalType": "string",
          "name": "",
          "type": "string"
        }
      ],
      "name": "modules",
      "outputs": [
        {
          "internalType": "string",
          "name": "moduleId",
          "type": "string"
        },
        {
          "internalType": "string",
          "name": "name",
          "type": "string"
        },
        {
          "internalType": "string",
          "name": "description",
          "type": "string"
        },
        {
          "internalType": "string",
          "name": "ipfsHash",
          "type": "string"
        },
        {
          "internalType": "address",
          "name": "creator",
          "type": "address"
        },
        {
          "internalType": "uint256",
          "name": "price",
          "type": "uint256"
        },
        {
          "internalType": "uint256",
          "name": "purchaseCount",
          "type": "uint256"
        },
        {
          "internalType": "bool",
          "name": "isActive",
          "type": "bool"
        }
      ],
      "stateMutability": "view",
      "type": "function"
    },
    {
      "inputs": [],
      "name": "owner",
      "outputs": [
        {
          "internalType": "address",
          "name": "",
          "type": "address"
        }
      ],
      "stateMutability": "view",
      "type": "function"
    },
    {
      "inputs": [
        {
          "internalType": "string",
          "name": "moduleId",
          "type": "string"
        }
      ],
      "name": "purchaseModule",
      "outputs": [],
      "stateMutability": "payable",
      "type": "function"
    },
    {
      "inputs": [
        {
          "internalType": "address",
          "name": "",
          "type": "address"
        },
        {
          "internalType": "string",
          "name": "",
          "type": "string"
        }
      ],
      "name": "purchases",
      "outputs": [
        {
          "internalType": "bool",
          "name": "",
          "type": "bool"
        }
      ],
      "stateMutability": "view",
      "type": "function"
    },
    {
      "inputs": [],
      "name": "renounceOwnership",
      "outputs": [],
      "stateMutability": "nonpayable",
      "type": "function"
    },
    {
      "inputs": [
        {
          "internalType": "address",
          "name": "newOwner",
          "type": "address"
        }
      ],
      "name": "transferOwnership",
      "outputs": [],
      "stateMutability": "nonpayable",
      "type": "function"
    }
  ],
  "bytecode": "0x60808060405234610078573315610063575f8054336001600160a01b03198216811783556040519290916001600160a01b0316907f8be0079c531659141344cd1fd0a4f28419497f9722a3daafe3b4186f6b6457e09080a3610e5d908161007d8239f35b631e4fbdf760e01b81525f6004820152602490fd5b5f80fdfe60806040526004361015610011575f80fd5b5f3560e01c80632841cfc614610b80578063715018a614610b295780638da5cb5b14610b0257806399b0d6d0146109f8578063ad5122ed14610812578063ba68f1af146107a7578063e76778b6146100ff5763f2fde38b14610071575f80fd5b346100fb5760203660031901126100fb5761008a610bfc565b610092610dfc565b6001600160a01b039081169081156100e3575f54826bffffffffffffffffffffffff60a01b8216175f55167f8be0079c531659141344cd1fd0a4f28419497f9722a3daafe3b4186f6b6457e05f80a3005b604051631e4fbdf760e01b81525f6004820152602490fd5b5f80fd5b346100fb5760a03660031901126100fb576004356001600160401b0381116100fb5761012f903690600401610db6565b906024356001600160401b0381116100fb5761014f903690600401610db6565b6044356001600160401b0381116100fb5761016e903690600401610db6565b926064356001600160401b0381116100fb5761018e903690600401610db6565b9190926101af604051898982376020818b8101600181520301902054610cb7565b61076a5760405195866101008101106001600160401b0361010089011117610504576101f861020493610210976101008a016040526101ef368d8d610c33565b8a523691610c33565b60208801523691610c33565b60408501523691610c33565b606082015233608082015260843560a08201525f60c0820152600160e082015260405183838237602081858101600181520301902081518051906001600160401b0382116105045781906102648454610cb7565b601f811161071d575b50602090601f83116001146106b5575f926106aa575b50508160011b915f199060031b1c19161781555b60208201518051906001600160401b0382116105045781906102bc6001850154610cb7565b601f811161065a575b50602090601f83116001146105ec575f926105e1575b50508160011b915f199060031b1c19161760018201555b60408201518051906001600160401b0382116105045781906103176002850154610cb7565b601f8111610591575b50602090601f8311600114610523575f92610518575b50508160011b915f199060031b1c19161760028201555b60608201518051906001600160401b038211610504576103706003840154610cb7565b601f81116104bc575b50602090601f831160011461044b57918060e094926007945f92610440575b50508160011b915f199060031b1c19161760038201555b6004810160018060a01b036080860151166bffffffffffffffffffffffff60a01b82541617905560a0840151600582015560c0840151600682015501910151151560ff8019835416911617905581604051928392833781015f81520390207f6cac9e352e52d47270442d5910d6837ab6e3bae944a7f5c9d100987dcc06cb98604080513381526084356020820152a2005b015190508880610398565b90600384015f5260205f20915f5b601f19851681106104a457509260e0949260019260079583601f1981161061048c575b505050811b0160038201556103af565b01515f1960f88460031b161c1916905588808061047c565b91926020600181928685015181550194019201610459565b600384015f5260205f20601f840160051c810191602085106104fa575b601f0160051c01905b8181106104ef5750610379565b5f81556001016104e2565b90915081906104d9565b634e487b7160e01b5f52604160045260245ffd5b015190508680610336565b9250600284015f5260205f20905f935b601f1984168510610576576001945083601f1981161061055e575b505050811b01600282015561034d565b01515f1960f88460031b161c1916905586808061054e565b81810151835560209485019460019093019290910190610533565b909150600284015f5260205f20601f840160051c8101602085106105da575b90849392915b601f830160051c820181106105cc575050610320565b5f81558594506001016105b6565b50806105b0565b0151905086806102db565b9250600184015f5260205f20905f935b601f198416851061063f576001945083601f19811610610627575b505050811b0160018201556102f2565b01515f1960f88460031b161c19169055868080610617565b818101518355602094850194600190930192909101906105fc565b909150600184015f5260205f20601f840160051c8101602085106106a3575b90849392915b601f830160051c820181106106955750506102c5565b5f815585945060010161067f565b5080610679565b015190508680610283565b9250835f5260205f20905f935b601f1984168510610702576001945083601f198116106106ea575b505050811b018155610297565b01515f1960f88460031b161c191690558680806106dd565b818101518355602094850194600190930192909101906106c2565b909150835f5260205f20601f840160051c810160208510610763575b90849392915b601f830160051c8201811061075557505061026d565b5f815585945060010161073f565b5080610739565b60405162461bcd60e51b8152602060048201526015602482015274135bd91d5b1948185b1c9958591e481b1a5cdd1959605a1b6044820152606490fd5b346100fb5760403660031901126100fb576107c0610bfc565b602435906001600160401b0382116100fb5761080660ff916107e86020943690600401610db6565b6001600160a01b039092165f90815260028652604090209190610de3565b54166040519015158152f35b6020806003193601126100fb576004356001600160401b0381116100fb5761083e903690600401610db6565b604051818382378381838101600181520301902060ff600782015416156109bc57335f526002845260ff61087660405f208486610de3565b54166109835760058101908154341061094757335f526002855261089e60405f208486610de3565b600160ff19825416179055600681018054906001820180921161093357556004015490545f91829182918291906001600160a01b031682821561092a575bf11561091f577fccb3632dfb2cb225726bb7320079ed59bbddd5319b30e1a32efba36a1d5b97799181604051928392833781015f815203902091604051338152a2005b6040513d5f823e3d90fd5b506108fc6108dc565b634e487b7160e01b5f52601160045260245ffd5b60405162461bcd60e51b8152600481018690526014602482015273125b9cdd59999a58da595b9d081c185e5b595b9d60621b6044820152606490fd5b60405162461bcd60e51b8152600481018590526011602482015270105b1c9958591e481c1d5c98da185cd959607a1b6044820152606490fd5b60405162461bcd60e51b81526004810185905260146024820152734d6f64756c65206e6f7420617661696c61626c6560601b6044820152606490fd5b346100fb5760203660031901126100fb576004356001600160401b0381116100fb57610a436020610a30610abd933690600401610c78565b8160405193828580945193849201610c96565b81016001815203019020610a5681610cef565b90610a6360018201610cef565b610a6f60028301610cef565b91610a7c60038201610cef565b92610ae760018060a01b0360048401541694610ad9600585015493610acb60ff6007600689015498015416976040519b8c9b8c6101008091528d0190610d91565b908b820360208d0152610d91565b9089820360408b0152610d91565b908782036060890152610d91565b93608086015260a085015260c0840152151560e08301520390f35b346100fb575f3660031901126100fb575f546040516001600160a01b039091168152602090f35b346100fb575f3660031901126100fb57610b41610dfc565b5f80546001600160a01b0319811682556001600160a01b03167f8be0079c531659141344cd1fd0a4f28419497f9722a3daafe3b4186f6b6457e08280a3005b346100fb5760403660031901126100fb57610b99610bfc565b6024356001600160401b0381116100fb57610be760208093610bc160ff943690600401610c78565b9060018060a01b03165f526002825260405f208260405194838680955193849201610c96565b82019081520301902054166040519015158152f35b600435906001600160a01b03821682036100fb57565b90601f801991011681019081106001600160401b0382111761050457604052565b9291926001600160401b0382116105045760405191610c5c601f8201601f191660200184610c12565b8294818452818301116100fb578281602093845f960137010152565b9080601f830112156100fb57816020610c9393359101610c33565b90565b5f5b838110610ca75750505f910152565b8181015183820152602001610c98565b90600182811c92168015610ce5575b6020831014610cd157565b634e487b7160e01b5f52602260045260245ffd5b91607f1691610cc6565b9060405191825f8254610d0181610cb7565b908184526020946001916001811690815f14610d6f5750600114610d31575b505050610d2f92500383610c12565b565b5f90815285812095935091905b818310610d57575050610d2f93508201015f8080610d20565b85548884018501529485019487945091830191610d3e565b92505050610d2f94925060ff191682840152151560051b8201015f8080610d20565b90602091610daa81518092818552858086019101610c96565b601f01601f1916010190565b9181601f840112156100fb578235916001600160401b0383116100fb57602083818601950101116100fb57565b6020919283604051948593843782019081520301902090565b5f546001600160a01b03163303610e0f57565b60405163118cdaa760e01b8152336004820152602490fdfea26469706673582212200d87f41f82f5e5c5a6c2e123eb66715493858f424ad75ce383ca2d92eb2b0a3764736f6c63430008180033",
  "linkReferences": {},
  "deployedLinkReferences": {}
}