{
  "_format": "hh-sol-artifact-1",
  "contractName": "ArenaDepositVault",
  "sourceName": "contracts/ArenaDepositVault.sol",
  "abi": [
    {
      "inputs": [
        {
          "internalType": "address",
          "name": "_usdc",
          "type": "address"
        },
        {
          "internalType": "address",
          "name": "_usdt",
          "type": "address"
        },
        {
          "internalType": "address",
          "name": "_feeCollector",
          "type": "address"
        },
        {
          "internalType": "address",
          "name": "_owner",
          "type": "address"
        }
      ],
      "stateMutability": "nonpayable",
      "type": "constructor"
    },
    {
      "inputs": [],
      "name": "EnforcedPause",
      "type": "error"
    },
    {
      "inputs": [],
      "name": "ExpectedPause",
      "type": "error"
    },
    {
      "inputs": [
        {
          "internalType": "address",
          "name": "owner",
          "type": "address"
        }
      ],
      "name": "OwnableInvalidOwner",
      "type": "error"
    },
    {
      "inputs": [
        {
          "internalType": "address",
          "name": "account",
          "type": "address"
        }
      ],
      "name": "OwnableUnauthorizedAccount",
      "type": "error"
    },
    {
      "inputs": [],
      "name": "ReentrancyGuardReentrantCall",
      "type": "error"
    },
    {
      "inputs": [
        {
          "internalType": "address",
          "name": "token",
          "type": "address"
        }
      ],
      "name": "SafeERC20FailedOperation",
      "type": "error"
    },
    {
      "anonymous": false,
      "inputs": [
        {
          "indexed": false,
          "internalType": "uint256",
          "name": "newCap",
          "type": "uint256"
        }
      ],
      "name": "DailyCapUpdated",
      "type": "event"
    },
    {
      "anonymous": false,
      "inputs": [
        {
          "indexed": true,
          "internalType": "uint256",
          "name": "depositId",
          "type": "uint256"
        },
        {
          "indexed": true,
          "internalType": "address",
          "name": "depositor",
          "type": "address"
        },
        {
          "indexed": true,
          "internalType": "bytes32",
          "name": "solanaRecipient",
          "type": "bytes32"
        },
        {
          "indexed": false,
          "internalType": "uint8",
          "name": "asset",
          "type": "uint8"
        },
        {
          "indexed": false,
          "internalType": "uint256",
          "name": "amount",
          "type": "uint256"
        },
        {
          "indexed": false,
          "internalType": "uint256",
          "name": "fee",
          "type": "uint256"
        },
        {
          "indexed": false,
          "internalType": "uint256",
          "name": "chain",
          "type": "uint256"
        }
      ],
      "name": "DepositQueued",
      "type": "event"
    },
    {
      "anonymous": false,
      "inputs": [
        {
          "indexed": false,
          "internalType": "uint256",
          "name": "newFeeBps",
          "type": "uint256"
        }
      ],
      "name": "FeeUpdated",
      "type": "event"
    },
    {
      "anonymous": false,
      "inputs": [
        {
          "indexed": false,
          "internalType": "uint256",
          "name": "min",
          "type": "uint256"
        },
        {
          "indexed": false,
          "internalType": "uint256",
          "name": "max",
          "type": "uint256"
        }
      ],
      "name": "MinMaxNativeUpdated",
      "type": "event"
    },
    {
      "anonymous": false,
      "inputs": [
        {
          "indexed": false,
          "internalType": "uint256",
          "name": "min",
          "type": "uint256"
        },
        {
          "indexed": false,
          "internalType": "uint256",
          "name": "max",
          "type": "uint256"
        }
      ],
      "name": "MinMaxStableUpdated",
      "type": "event"
    },
    {
      "anonymous": false,
      "inputs": [
        {
          "indexed": true,
          "internalType": "address",
          "name": "sender",
          "type": "address"
        },
        {
          "indexed": false,
          "internalType": "uint256",
          "name": "amount",
          "type": "uint256"
        }
      ],
      "name": "NativeReceived",
      "type": "event"
    },
    {
      "anonymous": false,
      "inputs": [
        {
          "indexed": true,
          "internalType": "address",
          "name": "previousOwner",
          "type": "address"
        },
        {
          "indexed": true,
          "internalType": "address",
          "name": "newOwner",
          "type": "address"
        }
      ],
      "name": "OwnershipTransferStarted",
      "type": "event"
    },
    {
      "anonymous": false,
      "inputs": [
        {
          "indexed": true,
          "internalType": "address",
          "name": "previousOwner",
          "type": "address"
        },
        {
          "indexed": true,
          "internalType": "address",
          "name": "newOwner",
          "type": "address"
        }
      ],
      "name": "OwnershipTransferred",
      "type": "event"
    },
    {
      "anonymous": false,
      "inputs": [
        {
          "indexed": false,
          "internalType": "address",
          "name": "account",
          "type": "address"
        }
      ],
      "name": "Paused",
      "type": "event"
    },
    {
      "anonymous": false,
      "inputs": [
        {
          "indexed": true,
          "internalType": "address",
          "name": "recipient",
          "type": "address"
        },
        {
          "indexed": false,
          "internalType": "uint256",
          "name": "usdcAmount",
          "type": "uint256"
        },
        {
          "indexed": false,
          "internalType": "bytes32",
          "name": "solanaProof",
          "type": "bytes32"
        }
      ],
      "name": "RedemptionProcessed",
      "type": "event"
    },
    {
      "anonymous": false,
      "inputs": [
        {
          "indexed": false,
          "internalType": "address",
          "name": "account",
          "type": "address"
        }
      ],
      "name": "Unpaused",
      "type": "event"
    },
    {
      "inputs": [],
      "name": "acceptOwnership",
      "outputs": [],
      "stateMutability": "nonpayable",
      "type": "function"
    },
    {
      "inputs": [],
      "name": "dailyCapPerUser",
      "outputs": [
        {
          "internalType": "uint256",
          "name": "",
          "type": "uint256"
        }
      ],
      "stateMutability": "view",
      "type": "function"
    },
    {
      "inputs": [],
      "name": "depositFeeBps",
      "outputs": [
        {
          "internalType": "uint256",
          "name": "",
          "type": "uint256"
        }
      ],
      "stateMutability": "view",
      "type": "function"
    },
    {
      "inputs": [
        {
          "internalType": "bytes32",
          "name": "solanaRecipient",
          "type": "bytes32"
        }
      ],
      "name": "depositNative",
      "outputs": [],
      "stateMutability": "payable",
      "type": "function"
    },
    {
      "inputs": [],
      "name": "depositNonce",
      "outputs": [
        {
          "internalType": "uint256",
          "name": "",
          "type": "uint256"
        }
      ],
      "stateMutability": "view",
      "type": "function"
    },
    {
      "inputs": [
        {
          "internalType": "uint256",
          "name": "amount",
          "type": "uint256"
        },
        {
          "internalType": "bytes32",
          "name": "solanaRecipient",
          "type": "bytes32"
        }
      ],
      "name": "depositUSDC",
      "outputs": [],
      "stateMutability": "nonpayable",
      "type": "function"
    },
    {
      "inputs": [
        {
          "internalType": "uint256",
          "name": "amount",
          "type": "uint256"
        },
        {
          "internalType": "bytes32",
          "name": "solanaRecipient",
          "type": "bytes32"
        }
      ],
      "name": "depositUSDT",
      "outputs": [],
      "stateMutability": "nonpayable",
      "type": "function"
    },
    {
      "inputs": [
        {
          "internalType": "address payable",
          "name": "to",
          "type": "address"
        }
      ],
      "name": "emergencyWithdraw",
      "outputs": [],
      "stateMutability": "nonpayable",
      "type": "function"
    },
    {
      "inputs": [],
      "name": "feeCollector",
      "outputs": [
        {
          "internalType": "address",
          "name": "",
          "type": "address"
        }
      ],
      "stateMutability": "view",
      "type": "function"
    },
    {
      "inputs": [],
      "name": "maxDepositNative",
      "outputs": [
        {
          "internalType": "uint256",
          "name": "",
          "type": "uint256"
        }
      ],
      "stateMutability": "view",
      "type": "function"
    },
    {
      "inputs": [],
      "name": "maxDepositStable",
      "outputs": [
        {
          "internalType": "uint256",
          "name": "",
          "type": "uint256"
        }
      ],
      "stateMutability": "view",
      "type": "function"
    },
    {
      "inputs": [],
      "name": "minDepositNative",
      "outputs": [
        {
          "internalType": "uint256",
          "name": "",
          "type": "uint256"
        }
      ],
      "stateMutability": "view",
      "type": "function"
    },
    {
      "inputs": [],
      "name": "minDepositStable",
      "outputs": [
        {
          "internalType": "uint256",
          "name": "",
          "type": "uint256"
        }
      ],
      "stateMutability": "view",
      "type": "function"
    },
    {
      "inputs": [],
      "name": "owner",
      "outputs": [
        {
          "internalType": "address",
          "name": "",
          "type": "address"
        }
      ],
      "stateMutability": "view",
      "type": "function"
    },
    {
      "inputs": [],
      "name": "pause",
      "outputs": [],
      "stateMutability": "nonpayable",
      "type": "function"
    },
    {
      "inputs": [],
      "name": "paused",
      "outputs": [
        {
          "internalType": "bool",
          "name": "",
          "type": "bool"
        }
      ],
      "stateMutability": "view",
      "type": "function"
    },
    {
      "inputs": [],
      "name": "pendingOwner",
      "outputs": [
        {
          "internalType": "address",
          "name": "",
          "type": "address"
        }
      ],
      "stateMutability": "view",
      "type": "function"
    },
    {
      "inputs": [
        {
          "internalType": "address",
          "name": "recipient",
          "type": "address"
        },
        {
          "internalType": "uint256",
          "name": "usdcAmount",
          "type": "uint256"
        },
        {
          "internalType": "bytes32",
          "name": "solanaProof",
          "type": "bytes32"
        }
      ],
      "name": "processRedemption",
      "outputs": [],
      "stateMutability": "nonpayable",
      "type": "function"
    },
    {
      "inputs": [],
      "name": "renounceOwnership",
      "outputs": [],
      "stateMutability": "nonpayable",
      "type": "function"
    },
    {
      "inputs": [
        {
          "internalType": "uint256",
          "name": "_cap",
          "type": "uint256"
        }
      ],
      "name": "setDailyCap",
      "outputs": [],
      "stateMutability": "nonpayable",
      "type": "function"
    },
    {
      "inputs": [
        {
          "internalType": "uint256",
          "name": "_feeBps",
          "type": "uint256"
        }
      ],
      "name": "setDepositFee",
      "outputs": [],
      "stateMutability": "nonpayable",
      "type": "function"
    },
    {
      "inputs": [
        {
          "internalType": "uint256",
          "name": "_min",
          "type": "uint256"
        },
        {
          "internalType": "uint256",
          "name": "_max",
          "type": "uint256"
        }
      ],
      "name": "setDepositLimitsNative",
      "outputs": [],
      "stateMutability": "nonpayable",
      "type": "function"
    },
    {
      "inputs": [
        {
          "internalType": "uint256",
          "name": "_min",
          "type": "uint256"
        },
        {
          "internalType": "uint256",
          "name": "_max",
          "type": "uint256"
        }
      ],
      "name": "setDepositLimitsStable",
      "outputs": [],
      "stateMutability": "nonpayable",
      "type": "function"
    },
    {
      "inputs": [
        {
          "internalType": "address",
          "name": "_collector",
          "type": "address"
        }
      ],
      "name": "setFeeCollector",
      "outputs": [],
      "stateMutability": "nonpayable",
      "type": "function"
    },
    {
      "inputs": [
        {
          "internalType": "address",
          "name": "newOwner",
          "type": "address"
        }
      ],
      "name": "transferOwnership",
      "outputs": [],
      "stateMutability": "nonpayable",
      "type": "function"
    },
    {
      "inputs": [],
      "name": "unpause",
      "outputs": [],
      "stateMutability": "nonpayable",
      "type": "function"
    },
    {
      "inputs": [],
      "name": "usdc",
      "outputs": [
        {
          "internalType": "contract IERC20",
          "name": "",
          "type": "address"
        }
      ],
      "stateMutability": "view",
      "type": "function"
    },
    {
      "inputs": [],
      "name": "usdt",
      "outputs": [
        {
          "internalType": "contract IERC20",
          "name": "",
          "type": "address"
        }
      ],
      "stateMutability": "view",
      "type": "function"
    },
    {
      "inputs": [
        {
          "internalType": "address",
          "name": "",
          "type": "address"
        }
      ],
      "name": "userDailyDeposited",
      "outputs": [
        {
          "internalType": "uint256",
          "name": "",
          "type": "uint256"
        }
      ],
      "stateMutability": "view",
      "type": "function"
    },
    {
      "inputs": [
        {
          "internalType": "address",
          "name": "",
          "type": "address"
        }
      ],
      "name": "userLastDepositDay",
      "outputs": [
        {
          "internalType": "uint256",
          "name": "",
          "type": "uint256"
        }
      ],
      "stateMutability": "view",
      "type": "function"
    },
    {
      "inputs": [],
      "name": "vaultBalance",
      "outputs": [
        {
          "internalType": "uint256",
          "name": "usdcBal",
          "type": "uint256"
        },
        {
          "internalType": "uint256",
          "name": "usdtBal",
          "type": "uint256"
        },
        {
          "internalType": "uint256",
          "name": "nativeBal",
          "type": "uint256"
        }
      ],
      "stateMutability": "view",
      "type": "function"
    },
    {
      "stateMutability": "payable",
      "type": "receive"
    }
  ],
  "bytecode": "0x60c034620001e957601f6200188e38819003918201601f19168301916001600160401b03831184841017620001ed57808492608094604052833981010312620001e9576200004d8162000201565b9060606200005e6020830162000201565b6200006c6040840162000201565b926001600160a01b0392839162000084910162000201565b16938415620001d1578260018060a01b03199485600154166001555f549680878916175f558260405198167f8be0079c531659141344cd1fd0a4f28419497f9722a3daafe3b4186f6b6457e05f80a360017f9b779b17422d0df92223018b32b4d1fa46e071723d6817e2486d003becc55f00556298968060035564174876e80060045567016345785d8a0000600555683635c9adc5dea000006006556402540be4006007555f600855169485156200019b575082166080521660a0526002541617600255604051611677908162000217823960805181818161023d01528181610a8601528181610c8c015281816110b1015261117c015260a05181818161060b01528181610ab40152818161111201526111d20152f35b62461bcd60e51b81526020600482015260116024820152703d32b937903332b2a1b7b63632b1ba37b960791b6044820152606490fd5b604051631e4fbdf760e01b81525f6004820152602490fd5b5f80fd5b634e487b7160e01b5f52604160045260245ffd5b51906001600160a01b0382168203620001e95756fe604060808152600480361015610052575b361561001a575f80fd5b6020606492519162461bcd60e51b83528201526013602482015272757365206465706f7369744e6174697665282960681b6044820152fd5b5f3560e01c80630840a44a146112c65780630bf6cc081461115f578063214e68da146111415780632f48ab7d146110fe57806332e714a6146110e05780633e413bee1461109d5780633f4ba83a1461102d57806342ef5fbb14610ee3578063490ae21014610e5f5780635c975abb14610e395780636ab0142f14610c3a5780636ff1c9bc14610a49578063715018a6146109e65780637433cc68146109c857806379ba509714610943578063823a9148146108e95780638456cb591461088a57806385b42274146108535780638da5cb5b1461082c578063939c9a1c146107f5578063958ac210146105e6578063a42dce801461059a578063ab8798271461057c578063ba06d4de1461055f578063c415b95c14610537578063cbc14e62146104de578063d421b946146104c0578063de35f5cb146104a2578063e30c39781461047a578063e96ba32e146102185763f2fde38b036100105734610214576020366003190112610214576101c4611312565b6101cc611524565b60018060a01b0380911690816001600160601b0360a01b60015416176001555f54167f38d16b8cac22d99fc7c124b9cd0de2d3fa1faef420bfe791d8c362d765e227005f80a3005b5f80fd5b5090346102145761022836611328565b92909161023361154f565b61023b611570565b7f00000000000000000000000000000000000000000000000000000000000000006001600160a01b03818116929183156104375761027a871515611374565b6102886003548710156113c0565b61029585548711156113fc565b62015180420495335f52602096600b885280855f205410610420575b50600a87526102c381855f2054611614565b600754106103e857335f52600a8752835f206102e0828254611614565b90556127106102f160085483611438565b04946102fd868361145f565b968551926323b872dd60e01b5f5233825230602452604452885f60648180885af160015f51148116156103c9575b8387525f606052156103b6575050508390816103a0575b5050506103506009546114ab565b92836009558151945f86528501528301524660608301527f3b9519b1da3a95994e49a772a2bf503a01a56287d69bfbef7ccbff3a1d3b2fbb60803393a460015f8051602061162283398151915255005b6103ae92600254169061159f565b5f8281610342565b635274afe760e01b835282015260249150fd5b60018115166103df57843b15153d15161661032b565b833d5f823e3d90fd5b835162461bcd60e51b8152808701889052601260248201527119185a5b1e4818d85c08195e18d95959195960721b6044820152606490fd5b600a88525f85812055600b8852845f20555f6102b1565b825162461bcd60e51b8152602081870152601e60248201527f55534443206e6f7420656e61626c6564206f6e207468697320636861696e00006044820152606490fd5b8234610214575f3660031901126102145760015490516001600160a01b039091168152602090f35b8234610214575f366003190112610214576020906009549051908152f35b8234610214575f366003190112610214576020906006549051908152f35b8234610214577ffda73c1b346048697f82d08524ee25332eafef74cc364be738fc7c06a82a901c9061050f36611328565b610517611524565b6105228183106114eb565b816005558060065582519182526020820152a1005b8234610214575f3660031901126102145760025490516001600160a01b039091168152602090f35b509034610214575f36600319011261021457602091549051908152f35b8234610214575f366003190112610214576020906008549051908152f35b34610214576020366003190112610214576105b3611312565b6105bb611524565b6001600160a01b03166105cf8115156114b9565b6001600160601b0360a01b60025416176002555f80f35b509034610214576105f636611328565b92909161060161154f565b610609611570565b7f00000000000000000000000000000000000000000000000000000000000000006001600160a01b03818116929183156107b257610648871515611374565b6106566003548710156113c0565b61066385548711156113fc565b62015180420495335f52602096600b885280855f20541061079b575b50600a875261069181855f2054611614565b600754106103e857335f52600a8752835f206106ae828254611614565b90556127106106bf60085483611438565b04946106cb868361145f565b968551926323b872dd60e01b5f5233825230602452604452885f60648180885af160015f5114811615610785575b8387525f606052156103b65750505083908161076f575b50505061071e6009546114ab565b9283600955815194600186528501528301524660608301527f3b9519b1da3a95994e49a772a2bf503a01a56287d69bfbef7ccbff3a1d3b2fbb60803393a460015f8051602061162283398151915255005b61077d92600254169061159f565b5f8281610710565b60018115166103df57843b15153d1516166106f9565b600a88525f85812055600b8852845f20555f61067f565b825162461bcd60e51b8152602081870152601e60248201527f55534454206e6f7420656e61626c6564206f6e207468697320636861696e00006044820152606490fd5b8234610214576020366003190112610214576020906001600160a01b0361081a611312565b165f52600b8252805f20549051908152f35b8234610214575f366003190112610214575f5490516001600160a01b039091168152602090f35b8234610214576020366003190112610214576020906001600160a01b03610878611312565b165f52600a8252805f20549051908152f35b8234610214575f3660031901126102145760207f62e78cea01bee320cd4e420270b5ea74000d11b0c9f74754ebdbfc544b05a258916108c7611524565b6108cf61154f565b6001805460ff60a01b1916600160a01b17905551338152a1005b509034610214577fcf2fd7f333b5ec2a4819c2d2c47d9c38db7c1951e6b79ee704e26db2817946149161091b36611328565b809192610926611524565b6109318285106114eb565b836003555582519182526020820152a1005b509034610214575f36600319011261021457600154916001600160a01b039133838516036109b15750506001600160601b0360a01b8092166001555f549133908316175f553391167f8be0079c531659141344cd1fd0a4f28419497f9722a3daafe3b4186f6b6457e05f80a3005b60249250519063118cdaa760e01b82523390820152fd5b8234610214575f366003190112610214576020906005549051908152f35b34610214575f366003190112610214576109fe611524565b600180546001600160a01b03199081169091555f80549182168155906001600160a01b03167f8be0079c531659141344cd1fd0a4f28419497f9722a3daafe3b4186f6b6457e08280a3005b5034610214576020806003193601126102145781356001600160a01b038181169182900361021457610a79611524565b610a848215156114b9565b7f00000000000000000000000000000000000000000000000000000000000000008181168481610bba575b5050507f00000000000000000000000000000000000000000000000000000000000000009081168381610b3a575b505050479081610ae957005b5f80809381935af1610af961146c565b5015610b0157005b606492519162461bcd60e51b835282015260166024820152751b985d1a5d99481dda5d1a191c985dc819985a5b195960521b6044820152fd5b86516370a0823160e01b8152308782015291829060249082905afa908115610bb0575f91610b83575b508281610b72575b5083610add565b610b7b9261159f565b5f8082610b6b565b90508381813d8311610ba9575b610b9a818361133e565b8101031261021457515f610b63565b503d610b90565b86513d5f823e3d90fd5b87516370a0823160e01b8152308882015291829060249082905afa908115610c30575f91610c03575b508381610bf2575b5084610aaf565b610bfb9261159f565b5f8083610beb565b90508481813d8311610c29575b610c1a818361133e565b8101031261021457515f610be3565b503d610c10565b87513d5f823e3d90fd5b503461021457606036600319011261021457610c54611312565b916024803590610c62611524565b610c6a611570565b610c7261154f565b6001600160a01b03858116948515610e06578315610dd6577f0000000000000000000000000000000000000000000000000000000000000000918216928315610da157855180946370a0823160e01b82523084830152818360209788935afa908115610c30579086915f91610d70575b5010610d37575050827fb3f043b0b64c8222638eb2486ef62c8447fde172ce3ad8de2afc6fc2d08317da9596610d179261159f565b825191825260443590820152a260015f8051602061162283398151915255005b855162461bcd60e51b815291820184905260149082015273696e73756666696369656e742062616c616e636560601b6044820152606490fd5b809250868092503d8311610d9a575b610d89818361133e565b81010312610214578590515f610ce2565b503d610d7f565b906010606492602088519362461bcd60e51b85528401528201526f1554d110c81b9bdd08195b98589b195960821b6044820152fd5b606490600b84602088519362461bcd60e51b85528401528201526a1e995c9bc8185b5bdd5b9d60aa1b6044820152fd5b606490600e84602088519362461bcd60e51b85528401528201526d1e995c9bc81c9958da5c1a595b9d60921b6044820152fd5b8234610214575f3660031901126102145760209060ff60015460a01c1690519015158152f35b503461021457602036600319011261021457803590610e7c611524565b6101f48211610eb5577f8c4d35e54a3f2ef1134138fd8ea3daee6a3c89e10d2665996babdf70261e2c76602083858160085551908152a1005b606490602084519162461bcd60e51b83528201526008602482015267666565203e20352560c01b6044820152fd5b50602036600319011261021457803590610efb61154f565b610f03611570565b610f0e821515611374565b610f1c6005543410156113c0565b610f2a6006543411156113fc565b612710610f3960085434611438565b04610f44813461145f565b9181610fd5575b50610f576009546114ab565b9081600955845192600284526020840152848301524660608301527f3b9519b1da3a95994e49a772a2bf503a01a56287d69bfbef7ccbff3a1d3b2fbb60803393a4513481527f8ac633e5b094e1150d2a6495df4d0c77f51d293abe99e7733c78870dfbee766060203392a260015f8051602061162283398151915255005b5f8080808560018060a01b03600254165af1610fef61146c565b50610f4b57606490602086519162461bcd60e51b83528201526013602482015272199959481d1c985b9cd9995c8819985a5b1959606a1b6044820152fd5b509034610214575f36600319011261021457611047611524565b6001549160ff8360a01c161561108f5760ff60a01b19831660015581513381527f5db9ee0a495bf2e6ff9c91a7834c1ba4fdd244a5e8aa4e537bd38aeae4b073aa90602090a1005b9051638dfc202b60e01b8152fd5b8234610214575f36600319011261021457517f00000000000000000000000000000000000000000000000000000000000000006001600160a01b03168152602090f35b8234610214575f366003190112610214576020906007549051908152f35b8234610214575f36600319011261021457517f00000000000000000000000000000000000000000000000000000000000000006001600160a01b03168152602090f35b8234610214575f366003190112610214576020906003549051908152f35b509034610214575f366003190112610214576001600160a01b03907f0000000000000000000000000000000000000000000000000000000000000000821680156112be5760206024918351928380926370a0823160e01b825230898301525afa9081156112b4575f91611282575b50915b7f0000000000000000000000000000000000000000000000000000000000000000169283156112765760209060248351809681936370a0823160e01b835230908301525afa801561126c575f90611239575b60609350905b479181519384526020840152820152f35b506020833d602011611264575b816112536020938361133e565b810103126102145760609251611222565b3d9150611246565b50513d5f823e3d90fd5b50606092505f90611228565b90506020813d6020116112ac575b8161129d6020938361133e565b8101031261021457515f6111cd565b3d9150611290565b82513d5f823e3d90fd5b505f916111d0565b5034610214576020366003190112610214577f8925eb7e33342c248e8380fb70e3f497217013b0fd9bfca496b50b77bc90a01f916020913590611307611524565b8160075551908152a1005b600435906001600160a01b038216820361021457565b6040906003190112610214576004359060243590565b90601f8019910116810190811067ffffffffffffffff82111761136057604052565b634e487b7160e01b5f52604160045260245ffd5b1561137b57565b60405162461bcd60e51b815260206004820152601860248201527f696e76616c696420736f6c616e6120726563697069656e7400000000000000006044820152606490fd5b156113c757565b60405162461bcd60e51b815260206004820152600d60248201526c62656c6f77206d696e696d756d60981b6044820152606490fd5b1561140357565b60405162461bcd60e51b815260206004820152600d60248201526c61626f7665206d6178696d756d60981b6044820152606490fd5b8181029291811591840414171561144b57565b634e487b7160e01b5f52601160045260245ffd5b9190820391821161144b57565b3d156114a6573d9067ffffffffffffffff8211611360576040519161149b601f8201601f19166020018461133e565b82523d5f602084013e565b606090565b5f19811461144b5760010190565b156114c057565b606460405162461bcd60e51b81526020600482015260046024820152637a65726f60e01b6044820152fd5b156114f257565b60405162461bcd60e51b815260206004820152600a6024820152690dad2dc407c7a40dac2f60b31b6044820152606490fd5b5f546001600160a01b0316330361153757565b60405163118cdaa760e01b8152336004820152602490fd5b60ff60015460a01c1661155e57565b60405163d93c066560e01b8152600490fd5b5f80516020611622833981519152600281541461158d5760029055565b604051633ee5aeb560e01b8152600490fd5b60405163a9059cbb60e01b5f9081526001600160a01b039384166004526024949094529260209060448180855af160015f51148116156115fe575b83604052156115e857505050565b635274afe760e01b835216600482015260249150fd5b60018115166103df57813b15153d1516166115da565b9190820180921161144b5756fe9b779b17422d0df92223018b32b4d1fa46e071723d6817e2486d003becc55f00a2646970667358221220003295b99174c07e19fad233eafdf4047a72dced5fa96866d00f0657352e521964736f6c63430008180033",
  "linkReferences": {},
  "deployedLinkReferences": {}
}