{"contracts/ModuleMarketplace.sol":{"ModuleMarketplace":{"abi":[{"inputs":[],"stateMutability":"nonpayable","type":"constructor"},{"inputs":[{"internalType":"address","name":"owner","type":"address"}],"name":"OwnableInvalidOwner","type":"error"},{"inputs":[{"internalType":"address","name":"account","type":"address"}],"name":"OwnableUnauthorizedAccount","type":"error"},{"anonymous":false,"inputs":[{"indexed":true,"internalType":"string","name":"moduleId","type":"string"},{"indexed":false,"internalType":"address","name":"creator","type":"address"},{"indexed":false,"internalType":"uint256","name":"price","type":"uint256"}],"name":"ModuleListed","type":"event"},{"anonymous":false,"inputs":[{"indexed":true,"internalType":"string","name":"moduleId","type":"string"},{"indexed":false,"internalType":"address","name":"buyer","type":"address"}],"name":"ModulePurchased","type":"event"},{"anonymous":false,"inputs":[{"indexed":true,"internalType":"address","name":"previousOwner","type":"address"},{"indexed":true,"internalType":"address","name":"newOwner","type":"address"}],"name":"OwnershipTransferred","type":"event"},{"inputs":[{"internalType":"address","name":"buyer","type":"address"},{"internalType":"string","name":"moduleId","type":"string"}],"name":"hasPurchased","outputs":[{"internalType":"bool","name":"","type":"bool"}],"stateMutability":"view","type":"function"},{"inputs":[{"internalType":"string","name":"moduleId","type":"string"},{"internalType":"string","name":"name","type":"string"},{"internalType":"string","name":"description","type":"string"},{"internalType":"string","name":"ipfsHash","type":"string"},{"internalType":"uint256","name":"price","type":"uint256"}],"name":"listModule","outputs":[],"stateMutability":"nonpayable","type":"function"},{"inputs":[{"internalType":"string","name":"","type":"string"}],"name":"modules","outputs":[{"internalType":"string","name":"moduleId","type":"string"},{"internalType":"string","name":"name","type":"string"},{"internalType":"string","name":"description","type":"string"},{"internalType":"string","name":"ipfsHash","type":"string"},{"internalType":"address","name":"creator","type":"address"},{"internalType":"uint256","name":"price","type":"uint256"},{"internalType":"uint256","name":"purchaseCount","type":"uint256"},{"internalType":"bool","name":"isActive","type":"bool"}],"stateMutability":"view","type":"function"},{"inputs":[],"name":"owner","outputs":[{"internalType":"address","name":"","type":"address"}],"stateMutability":"view","type":"function"},{"inputs":[{"internalType":"string","name":"moduleId","type":"string"}],"name":"purchaseModule","outputs":[],"stateMutability":"payable","type":"function"},{"inputs":[{"internalType":"address","name":"","type":"address"},{"internalType":"string","name":"","type":"string"}],"name":"purchases","outputs":[{"internalType":"bool","name":"","type":"bool"}],"stateMutability":"view","type":"function"},{"inputs":[],"name":"renounceOwnership","outputs":[],"stateMutability":"nonpayable","type":"function"},{"inputs":[{"internalType":"address","name":"newOwner","type":"address"}],"name":"transferOwnership","outputs":[],"stateMutability":"nonpayable","type":"function"}],"evm":{"bytecode":{"linkReferences":{},"object":"60808060405234610078573315610063575f8054336001600160a01b03198216811783556040519290916001600160a01b0316907f8be0079c531659141344cd1fd0a4f28419497f9722a3daafe3b4186f6b6457e09080a3610e5d908161007d8239f35b631e4fbdf760e01b81525f6004820152602490fd5b5f80fdfe60806040526004361015610011575f80fd5b5f3560e01c80632841cfc614610b80578063715018a614610b295780638da5cb5b14610b0257806399b0d6d0146109f8578063ad5122ed14610812578063ba68f1af146107a7578063e76778b6146100ff5763f2fde38b14610071575f80fd5b346100fb5760203660031901126100fb5761008a610bfc565b610092610dfc565b6001600160a01b039081169081156100e3575f54826bffffffffffffffffffffffff60a01b8216175f55167f8be0079c531659141344cd1fd0a4f28419497f9722a3daafe3b4186f6b6457e05f80a3005b604051631e4fbdf760e01b81525f6004820152602490fd5b5f80fd5b346100fb5760a03660031901126100fb576004356001600160401b0381116100fb5761012f903690600401610db6565b906024356001600160401b0381116100fb5761014f903690600401610db6565b6044356001600160401b0381116100fb5761016e903690600401610db6565b926064356001600160401b0381116100fb5761018e903690600401610db6565b9190926101af604051898982376020818b8101600181520301902054610cb7565b61076a5760405195866101008101106001600160401b0361010089011117610504576101f861020493610210976101008a016040526101ef368d8d610c33565b8a523691610c33565b60208801523691610c33565b60408501523691610c33565b606082015233608082015260843560a08201525f60c0820152600160e082015260405183838237602081858101600181520301902081518051906001600160401b0382116105045781906102648454610cb7565b601f811161071d575b50602090601f83116001146106b5575f926106aa575b50508160011b915f199060031b1c19161781555b60208201518051906001600160401b0382116105045781906102bc6001850154610cb7565b601f811161065a575b50602090601f83116001146105ec575f926105e1575b50508160011b915f199060031b1c19161760018201555b60408201518051906001600160401b0382116105045781906103176002850154610cb7565b601f8111610591575b50602090601f8311600114610523575f92610518575b50508160011b915f199060031b1c19161760028201555b60608201518051906001600160401b038211610504576103706003840154610cb7565b601f81116104bc575b50602090601f831160011461044b57918060e094926007945f92610440575b50508160011b915f199060031b1c19161760038201555b6004810160018060a01b036080860151166bffffffffffffffffffffffff60a01b82541617905560a0840151600582015560c0840151600682015501910151151560ff8019835416911617905581604051928392833781015f81520390207f6cac9e352e52d47270442d5910d6837ab6e3bae944a7f5c9d100987dcc06cb98604080513381526084356020820152a2005b015190508880610398565b90600384015f5260205f20915f5b601f19851681106104a457509260e0949260019260079583601f1981161061048c575b505050811b0160038201556103af565b01515f1960f88460031b161c1916905588808061047c565b91926020600181928685015181550194019201610459565b600384015f5260205f20601f840160051c810191602085106104fa575b601f0160051c01905b8181106104ef5750610379565b5f81556001016104e2565b90915081906104d9565b634e487b7160e01b5f52604160045260245ffd5b015190508680610336565b9250600284015f5260205f20905f935b601f1984168510610576576001945083601f1981161061055e575b505050811b01600282015561034d565b01515f1960f88460031b161c1916905586808061054e565b81810151835560209485019460019093019290910190610533565b909150600284015f5260205f20601f840160051c8101602085106105da575b90849392915b601f830160051c820181106105cc575050610320565b5f81558594506001016105b6565b50806105b0565b0151905086806102db565b9250600184015f5260205f20905f935b601f198416851061063f576001945083601f19811610610627575b505050811b0160018201556102f2565b01515f1960f88460031b161c19169055868080610617565b818101518355602094850194600190930192909101906105fc565b909150600184015f5260205f20601f840160051c8101602085106106a3575b90849392915b601f830160051c820181106106955750506102c5565b5f815585945060010161067f565b5080610679565b015190508680610283565b9250835f5260205f20905f935b601f1984168510610702576001945083601f198116106106ea575b505050811b018155610297565b01515f1960f88460031b161c191690558680806106dd565b818101518355602094850194600190930192909101906106c2565b909150835f5260205f20601f840160051c810160208510610763575b90849392915b601f830160051c8201811061075557505061026d565b5f815585945060010161073f565b5080610739565b60405162461bcd60e51b8152602060048201526015602482015274135bd91d5b1948185b1c9958591e481b1a5cdd1959605a1b6044820152606490fd5b346100fb5760403660031901126100fb576107c0610bfc565b602435906001600160401b0382116100fb5761080660ff916107e86020943690600401610db6565b6001600160a01b039092165f90815260028652604090209190610de3565b54166040519015158152f35b6020806003193601126100fb576004356001600160401b0381116100fb5761083e903690600401610db6565b604051818382378381838101600181520301902060ff600782015416156109bc57335f526002845260ff61087660405f208486610de3565b54166109835760058101908154341061094757335f526002855261089e60405f208486610de3565b600160ff19825416179055600681018054906001820180921161093357556004015490545f91829182918291906001600160a01b031682821561092a575bf11561091f577fccb3632dfb2cb225726bb7320079ed59bbddd5319b30e1a32efba36a1d5b97799181604051928392833781015f815203902091604051338152a2005b6040513d5f823e3d90fd5b506108fc6108dc565b634e487b7160e01b5f52601160045260245ffd5b60405162461bcd60e51b8152600481018690526014602482015273125b9cdd59999a58da595b9d081c185e5b595b9d60621b6044820152606490fd5b60405162461bcd60e51b8152600481018590526011602482015270105b1c9958591e481c1d5c98da185cd959607a1b6044820152606490fd5b60405162461bcd60e51b81526004810185905260146024820152734d6f64756c65206e6f7420617661696c61626c6560601b6044820152606490fd5b346100fb5760203660031901126100fb576004356001600160401b0381116100fb57610a436020610a30610abd933690600401610c78565b8160405193828580945193849201610c96565b81016001815203019020610a5681610cef565b90610a6360018201610cef565b610a6f60028301610cef565b91610a7c60038201610cef565b92610ae760018060a01b0360048401541694610ad9600585015493610acb60ff6007600689015498015416976040519b8c9b8c6101008091528d0190610d91565b908b820360208d0152610d91565b9089820360408b0152610d91565b908782036060890152610d91565b93608086015260a085015260c0840152151560e08301520390f35b346100fb575f3660031901126100fb575f546040516001600160a01b039091168152602090f35b346100fb575f3660031901126100fb57610b41610dfc565b5f80546001600160a01b0319811682556001600160a01b03167f8be0079c531659141344cd1fd0a4f28419497f9722a3daafe3b4186f6b6457e08280a3005b346100fb5760403660031901126100fb57610b99610bfc565b6024356001600160401b0381116100fb57610be760208093610bc160ff943690600401610c78565b9060018060a01b03165f526002825260405f208260405194838680955193849201610c96565b82019081520301902054166040519015158152f35b600435906001600160a01b03821682036100fb57565b90601f801991011681019081106001600160401b0382111761050457604052565b9291926001600160401b0382116105045760405191610c5c601f8201601f191660200184610c12565b8294818452818301116100fb578281602093845f960137010152565b9080601f830112156100fb57816020610c9393359101610c33565b90565b5f5b838110610ca75750505f910152565b8181015183820152602001610c98565b90600182811c92168015610ce5575b6020831014610cd157565b634e487b7160e01b5f52602260045260245ffd5b91607f1691610cc6565b9060405191825f8254610d0181610cb7565b908184526020946001916001811690815f14610d6f5750600114610d31575b505050610d2f92500383610c12565b565b5f90815285812095935091905b818310610d57575050610d2f93508201015f8080610d20565b85548884018501529485019487945091830191610d3e565b92505050610d2f94925060ff191682840152151560051b8201015f8080610d20565b90602091610daa81518092818552858086019101610c96565b601f01601f1916010190565b9181601f840112156100fb578235916001600160401b0383116100fb57602083818601950101116100fb57565b6020919283604051948593843782019081520301902090565b5f546001600160a01b03163303610e0f57565b60405163118cdaa760e01b8152336004820152602490fdfea26469706673582212200d87f41f82f5e5c5a6c2e123eb66715493858f424ad75ce383ca2d92eb2b0a3764736f6c63430008180033","opcodes":"PUSH1 0x80 DUP1 PUSH1 0x40 MSTORE CALLVALUE PUSH2 0x78 JUMPI CALLER ISZERO PUSH2 0x63 JUMPI PUSH0 DUP1 SLOAD CALLER PUSH1 0x1 PUSH1 0x1 PUSH1 0xA0 SHL SUB NOT DUP3 AND DUP2 OR DUP4 SSTORE PUSH1 0x40 MLOAD SWAP3 SWAP1 SWAP2 PUSH1 0x1 PUSH1 0x1 PUSH1 0xA0 SHL SUB AND SWAP1 PUSH32 0x8BE0079C531659141344CD1FD0A4F28419497F9722A3DAAFE3B4186F6B6457E0 SWAP1 DUP1 LOG3 PUSH2 0xE5D SWAP1 DUP2 PUSH2 0x7D DUP3 CODECOPY RETURN JUMPDEST PUSH4 0x1E4FBDF7 PUSH1 0xE0 SHL DUP2 MSTORE PUSH0 PUSH1 0x4 DUP3 ADD MSTORE PUSH1 0x24 SWAP1 REVERT JUMPDEST PUSH0 DUP1 REVERT INVALID PUSH1 0x80 PUSH1 0x40 MSTORE PUSH1 0x4 CALLDATASIZE LT ISZERO PUSH2 0x11 JUMPI PUSH0 DUP1 REVERT JUMPDEST PUSH0 CALLDATALOAD PUSH1 0xE0 SHR DUP1 PUSH4 0x2841CFC6 EQ PUSH2 0xB80 JUMPI DUP1 PUSH4 0x715018A6 EQ PUSH2 0xB29 JUMPI DUP1 PUSH4 0x8DA5CB5B EQ PUSH2 0xB02 JUMPI DUP1 PUSH4 0x99B0D6D0 EQ PUSH2 0x9F8 JUMPI DUP1 PUSH4 0xAD5122ED EQ PUSH2 0x812 JUMPI DUP1 PUSH4 0xBA68F1AF EQ PUSH2 0x7A7 JUMPI DUP1 PUSH4 0xE76778B6 EQ PUSH2 0xFF JUMPI PUSH4 0xF2FDE38B EQ PUSH2 0x71 JUMPI PUSH0 DUP1 REVERT JUMPDEST CALLVALUE PUSH2 0xFB JUMPI PUSH1 0x20 CALLDATASIZE PUSH1 0x3 NOT ADD SLT PUSH2 0xFB JUMPI PUSH2 0x8A PUSH2 0xBFC JUMP JUMPDEST PUSH2 0x92 PUSH2 0xDFC JUMP JUMPDEST PUSH1 0x1 PUSH1 0x1 PUSH1 0xA0 SHL SUB SWAP1 DUP2 AND SWAP1 DUP2 ISZERO PUSH2 0xE3 JUMPI PUSH0 SLOAD DUP3 PUSH12 0xFFFFFFFFFFFFFFFFFFFFFFFF PUSH1 0xA0 SHL DUP3 AND OR PUSH0 SSTORE AND PUSH32 0x8BE0079C531659141344CD1FD0A4F28419497F9722A3DAAFE3B4186F6B6457E0 PUSH0 DUP1 LOG3 STOP JUMPDEST PUSH1 0x40 MLOAD PUSH4 0x1E4FBDF7 PUSH1 0xE0 SHL DUP2 MSTORE PUSH0 PUSH1 0x4 DUP3 ADD MSTORE PUSH1 0x24 SWAP1 REVERT JUMPDEST PUSH0 DUP1 REVERT JUMPDEST CALLVALUE PUSH2 0xFB JUMPI PUSH1 0xA0 CALLDATASIZE PUSH1 0x3 NOT ADD SLT PUSH2 0xFB JUMPI PUSH1 0x4 CALLDATALOAD PUSH1 0x1 PUSH1 0x1 PUSH1 0x40 SHL SUB DUP2 GT PUSH2 0xFB JUMPI PUSH2 0x12F SWAP1 CALLDATASIZE SWAP1 PUSH1 0x4 ADD PUSH2 0xDB6 JUMP JUMPDEST SWAP1 PUSH1 0x24 CALLDATALOAD PUSH1 0x1 PUSH1 0x1 PUSH1 0x40 SHL SUB DUP2 GT PUSH2 0xFB JUMPI PUSH2 0x14F SWAP1 CALLDATASIZE SWAP1 PUSH1 0x4 ADD PUSH2 0xDB6 JUMP JUMPDEST PUSH1 0x44 CALLDATALOAD PUSH1 0x1 PUSH1 0x1 PUSH1 0x40 SHL SUB DUP2 GT PUSH2 0xFB JUMPI PUSH2 0x16E SWAP1 CALLDATASIZE SWAP1 PUSH1 0x4 ADD PUSH2 0xDB6 JUMP JUMPDEST SWAP3 PUSH1 0x64 CALLDATALOAD PUSH1 0x1 PUSH1 0x1 PUSH1 0x40 SHL SUB DUP2 GT PUSH2 0xFB JUMPI PUSH2 0x18E SWAP1 CALLDATASIZE SWAP1 PUSH1 0x4 ADD PUSH2 0xDB6 JUMP JUMPDEST SWAP2 SWAP1 SWAP3 PUSH2 0x1AF PUSH1 0x40 MLOAD DUP10 DUP10 DUP3 CALLDATACOPY PUSH1 0x20 DUP2 DUP12 DUP2 ADD PUSH1 0x1 DUP2 MSTORE SUB ADD SWAP1 KECCAK256 SLOAD PUSH2 0xCB7 JUMP JUMPDEST PUSH2 0x76A JUMPI PUSH1 0x40 MLOAD SWAP6 DUP7 PUSH2 0x100 DUP2 ADD LT PUSH1 0x1 PUSH1 0x1 PUSH1 0x40 SHL SUB PUSH2 0x100 DUP10 ADD GT OR PUSH2 0x504 JUMPI PUSH2 0x1F8 PUSH2 0x204 SWAP4 PUSH2 0x210 SWAP8 PUSH2 0x100 DUP11 ADD PUSH1 0x40 MSTORE PUSH2 0x1EF CALLDATASIZE DUP14 DUP14 PUSH2 0xC33 JUMP JUMPDEST DUP11 MSTORE CALLDATASIZE SWAP2 PUSH2 0xC33 JUMP JUMPDEST PUSH1 0x20 DUP9 ADD MSTORE CALLDATASIZE SWAP2 PUSH2 0xC33 JUMP JUMPDEST PUSH1 0x40 DUP6 ADD MSTORE CALLDATASIZE SWAP2 PUSH2 0xC33 JUMP JUMPDEST PUSH1 0x60 DUP3 ADD MSTORE CALLER PUSH1 0x80 DUP3 ADD MSTORE PUSH1 0x84 CALLDATALOAD PUSH1 0xA0 DUP3 ADD MSTORE PUSH0 PUSH1 0xC0 DUP3 ADD MSTORE PUSH1 0x1 PUSH1 0xE0 DUP3 ADD MSTORE PUSH1 0x40 MLOAD DUP4 DUP4 DUP3 CALLDATACOPY PUSH1 0x20 DUP2 DUP6 DUP2 ADD PUSH1 0x1 DUP2 MSTORE SUB ADD SWAP1 KECCAK256 DUP2 MLOAD DUP1 MLOAD SWAP1 PUSH1 0x1 PUSH1 0x1 PUSH1 0x40 SHL SUB DUP3 GT PUSH2 0x504 JUMPI DUP2 SWAP1 PUSH2 0x264 DUP5 SLOAD PUSH2 0xCB7 JUMP JUMPDEST PUSH1 0x1F DUP2 GT PUSH2 0x71D JUMPI JUMPDEST POP PUSH1 0x20 SWAP1 PUSH1 0x1F DUP4 GT PUSH1 0x1 EQ PUSH2 0x6B5 JUMPI PUSH0 SWAP3 PUSH2 0x6AA JUMPI JUMPDEST POP POP DUP2 PUSH1 0x1 SHL SWAP2 PUSH0 NOT SWAP1 PUSH1 0x3 SHL SHR NOT AND OR DUP2 SSTORE JUMPDEST PUSH1 0x20 DUP3 ADD MLOAD DUP1 MLOAD SWAP1 PUSH1 0x1 PUSH1 0x1 PUSH1 0x40 SHL SUB DUP3 GT PUSH2 0x504 JUMPI DUP2 SWAP1 PUSH2 0x2BC PUSH1 0x1 DUP6 ADD SLOAD PUSH2 0xCB7 JUMP JUMPDEST PUSH1 0x1F DUP2 GT PUSH2 0x65A JUMPI JUMPDEST POP PUSH1 0x20 SWAP1 PUSH1 0x1F DUP4 GT PUSH1 0x1 EQ PUSH2 0x5EC JUMPI PUSH0 SWAP3 PUSH2 0x5E1 JUMPI JUMPDEST POP POP DUP2 PUSH1 0x1 SHL SWAP2 PUSH0 NOT SWAP1 PUSH1 0x3 SHL SHR NOT AND OR PUSH1 0x1 DUP3 ADD SSTORE JUMPDEST PUSH1 0x40 DUP3 ADD MLOAD DUP1 MLOAD SWAP1 PUSH1 0x1 PUSH1 0x1 PUSH1 0x40 SHL SUB DUP3 GT PUSH2 0x504 JUMPI DUP2 SWAP1 PUSH2 0x317 PUSH1 0x2 DUP6 ADD SLOAD PUSH2 0xCB7 JUMP JUMPDEST PUSH1 0x1F DUP2 GT PUSH2 0x591 JUMPI JUMPDEST POP PUSH1 0x20 SWAP1 PUSH1 0x1F DUP4 GT PUSH1 0x1 EQ PUSH2 0x523 JUMPI PUSH0 SWAP3 PUSH2 0x518 JUMPI JUMPDEST POP POP DUP2 PUSH1 0x1 SHL SWAP2 PUSH0 NOT SWAP1 PUSH1 0x3 SHL SHR NOT AND OR PUSH1 0x2 DUP3 ADD SSTORE JUMPDEST PUSH1 0x60 DUP3 ADD MLOAD DUP1 MLOAD SWAP1 PUSH1 0x1 PUSH1 0x1 PUSH1 0x40 SHL SUB DUP3 GT PUSH2 0x504 JUMPI PUSH2 0x370 PUSH1 0x3 DUP5 ADD SLOAD PUSH2 0xCB7 JUMP JUMPDEST PUSH1 0x1F DUP2 GT PUSH2 0x4BC JUMPI JUMPDEST POP PUSH1 0x20 SWAP1 PUSH1 0x1F DUP4 GT PUSH1 0x1 EQ PUSH2 0x44B JUMPI SWAP2 DUP1 PUSH1 0xE0 SWAP5 SWAP3 PUSH1 0x7 SWAP5 PUSH0 SWAP3 PUSH2 0x440 JUMPI JUMPDEST POP POP DUP2 PUSH1 0x1 SHL SWAP2 PUSH0 NOT SWAP1 PUSH1 0x3 SHL SHR NOT AND OR PUSH1 0x3 DUP3 ADD SSTORE JUMPDEST PUSH1 0x4 DUP2 ADD PUSH1 0x1 DUP1 PUSH1 0xA0 SHL SUB PUSH1 0x80 DUP7 ADD MLOAD AND PUSH12 0xFFFFFFFFFFFFFFFFFFFFFFFF PUSH1 0xA0 SHL DUP3 SLOAD AND OR SWAP1 SSTORE PUSH1 0xA0 DUP5 ADD MLOAD PUSH1 0x5 DUP3 ADD SSTORE PUSH1 0xC0 DUP5 ADD MLOAD PUSH1 0x6 DUP3 ADD SSTORE ADD SWAP2 ADD MLOAD ISZERO ISZERO PUSH1 0xFF DUP1 NOT DUP4 SLOAD AND SWAP2 AND OR SWAP1 SSTORE DUP2 PUSH1 0x40 MLOAD SWAP3 DUP4 SWAP3 DUP4 CALLDATACOPY DUP2 ADD PUSH0 DUP2 MSTORE SUB SWAP1 KECCAK256 PUSH32 0x6CAC9E352E52D47270442D5910D6837AB6E3BAE944A7F5C9D100987DCC06CB98 PUSH1 0x40 DUP1 MLOAD CALLER DUP2 MSTORE PUSH1 0x84 CALLDATALOAD PUSH1 0x20 DUP3 ADD MSTORE LOG2 STOP JUMPDEST ADD MLOAD SWAP1 POP DUP9 DUP1 PUSH2 0x398 JUMP JUMPDEST SWAP1 PUSH1 0x3 DUP5 ADD PUSH0 MSTORE PUSH1 0x20 PUSH0 KECCAK256 SWAP2 PUSH0 JUMPDEST PUSH1 0x1F NOT DUP6 AND DUP2 LT PUSH2 0x4A4 JUMPI POP SWAP3 PUSH1 0xE0 SWAP5 SWAP3 PUSH1 0x1 SWAP3 PUSH1 0x7 SWAP6 DUP4 PUSH1 0x1F NOT DUP2 AND LT PUSH2 0x48C JUMPI JUMPDEST POP POP POP DUP2 SHL ADD PUSH1 0x3 DUP3 ADD SSTORE PUSH2 0x3AF JUMP JUMPDEST ADD MLOAD PUSH0 NOT PUSH1 0xF8 DUP5 PUSH1 0x3 SHL AND SHR NOT AND SWAP1 SSTORE DUP9 DUP1 DUP1 PUSH2 0x47C JUMP JUMPDEST SWAP2 SWAP3 PUSH1 0x20 PUSH1 0x1 DUP2 SWAP3 DUP7 DUP6 ADD MLOAD DUP2 SSTORE ADD SWAP5 ADD SWAP3 ADD PUSH2 0x459 JUMP JUMPDEST PUSH1 0x3 DUP5 ADD PUSH0 MSTORE PUSH1 0x20 PUSH0 KECCAK256 PUSH1 0x1F DUP5 ADD PUSH1 0x5 SHR DUP2 ADD SWAP2 PUSH1 0x20 DUP6 LT PUSH2 0x4FA JUMPI JUMPDEST PUSH1 0x1F ADD PUSH1 0x5 SHR ADD SWAP1 JUMPDEST DUP2 DUP2 LT PUSH2 0x4EF JUMPI POP PUSH2 0x379 JUMP JUMPDEST PUSH0 DUP2 SSTORE PUSH1 0x1 ADD PUSH2 0x4E2 JUMP JUMPDEST SWAP1 SWAP2 POP DUP2 SWAP1 PUSH2 0x4D9 JUMP JUMPDEST PUSH4 0x4E487B71 PUSH1 0xE0 SHL PUSH0 MSTORE PUSH1 0x41 PUSH1 0x4 MSTORE PUSH1 0x24 PUSH0 REVERT JUMPDEST ADD MLOAD SWAP1 POP DUP7 DUP1 PUSH2 0x336 JUMP JUMPDEST SWAP3 POP PUSH1 0x2 DUP5 ADD PUSH0 MSTORE PUSH1 0x20 PUSH0 KECCAK256 SWAP1 PUSH0 SWAP4 JUMPDEST PUSH1 0x1F NOT DUP5 AND DUP6 LT PUSH2 0x576 JUMPI PUSH1 0x1 SWAP5 POP DUP4 PUSH1 0x1F NOT DUP2 AND LT PUSH2 0x55E JUMPI JUMPDEST POP POP POP DUP2 SHL ADD PUSH1 0x2 DUP3 ADD SSTORE PUSH2 0x34D JUMP JUMPDEST ADD MLOAD PUSH0 NOT PUSH1 0xF8 DUP5 PUSH1 0x3 SHL AND SHR NOT AND SWAP1 SSTORE DUP7 DUP1 DUP1 PUSH2 0x54E JUMP JUMPDEST DUP2 DUP2 ADD MLOAD DUP4 SSTORE PUSH1 0x20 SWAP5 DUP6 ADD SWAP5 PUSH1 0x1 SWAP1 SWAP4 ADD SWAP3 SWAP1 SWAP2 ADD SWAP1 PUSH2 0x533 JUMP JUMPDEST SWAP1 SWAP2 POP PUSH1 0x2 DUP5 ADD PUSH0 MSTORE PUSH1 0x20 PUSH0 KECCAK256 PUSH1 0x1F DUP5 ADD PUSH1 0x5 SHR DUP2 ADD PUSH1 0x20 DUP6 LT PUSH2 0x5DA JUMPI JUMPDEST SWAP1 DUP5 SWAP4 SWAP3 SWAP2 JUMPDEST PUSH1 0x1F DUP4 ADD PUSH1 0x5 SHR DUP3 ADD DUP2 LT PUSH2 0x5CC JUMPI POP POP PUSH2 0x320 JUMP JUMPDEST PUSH0 DUP2 SSTORE DUP6 SWAP5 POP PUSH1 0x1 ADD PUSH2 0x5B6 JUMP JUMPDEST POP DUP1 PUSH2 0x5B0 JUMP JUMPDEST ADD MLOAD SWAP1 POP DUP7 DUP1 PUSH2 0x2DB JUMP JUMPDEST SWAP3 POP PUSH1 0x1 DUP5 ADD PUSH0 MSTORE PUSH1 0x20 PUSH0 KECCAK256 SWAP1 PUSH0 SWAP4 JUMPDEST PUSH1 0x1F NOT DUP5 AND DUP6 LT PUSH2 0x63F JUMPI PUSH1 0x1 SWAP5 POP DUP4 PUSH1 0x1F NOT DUP2 AND LT PUSH2 0x627 JUMPI JUMPDEST POP POP POP DUP2 SHL ADD PUSH1 0x1 DUP3 ADD SSTORE PUSH2 0x2F2 JUMP JUMPDEST ADD MLOAD PUSH0 NOT PUSH1 0xF8 DUP5 PUSH1 0x3 SHL AND SHR NOT AND SWAP1 SSTORE DUP7 DUP1 DUP1 PUSH2 0x617 JUMP JUMPDEST DUP2 DUP2 ADD MLOAD DUP4 SSTORE PUSH1 0x20 SWAP5 DUP6 ADD SWAP5 PUSH1 0x1 SWAP1 SWAP4 ADD SWAP3 SWAP1 SWAP2 ADD SWAP1 PUSH2 0x5FC JUMP JUMPDEST SWAP1 SWAP2 POP PUSH1 0x1 DUP5 ADD PUSH0 MSTORE PUSH1 0x20 PUSH0 KECCAK256 PUSH1 0x1F DUP5 ADD PUSH1 0x5 SHR DUP2 ADD PUSH1 0x20 DUP6 LT PUSH2 0x6A3 JUMPI JUMPDEST SWAP1 DUP5 SWAP4 SWAP3 SWAP2 JUMPDEST PUSH1 0x1F DUP4 ADD PUSH1 0x5 SHR DUP3 ADD DUP2 LT PUSH2 0x695 JUMPI POP POP PUSH2 0x2C5 JUMP JUMPDEST PUSH0 DUP2 SSTORE DUP6 SWAP5 POP PUSH1 0x1 ADD PUSH2 0x67F JUMP JUMPDEST POP DUP1 PUSH2 0x679 JUMP JUMPDEST ADD MLOAD SWAP1 POP DUP7 DUP1 PUSH2 0x283 JUMP JUMPDEST SWAP3 POP DUP4 PUSH0 MSTORE PUSH1 0x20 PUSH0 KECCAK256 SWAP1 PUSH0 SWAP4 JUMPDEST PUSH1 0x1F NOT DUP5 AND DUP6 LT PUSH2 0x702 JUMPI PUSH1 0x1 SWAP5 POP DUP4 PUSH1 0x1F NOT DUP2 AND LT PUSH2 0x6EA JUMPI JUMPDEST POP POP POP DUP2 SHL ADD DUP2 SSTORE PUSH2 0x297 JUMP JUMPDEST ADD MLOAD PUSH0 NOT PUSH1 0xF8 DUP5 PUSH1 0x3 SHL AND SHR NOT AND SWAP1 SSTORE DUP7 DUP1 DUP1 PUSH2 0x6DD JUMP JUMPDEST DUP2 DUP2 ADD MLOAD DUP4 SSTORE PUSH1 0x20 SWAP5 DUP6 ADD SWAP5 PUSH1 0x1 SWAP1 SWAP4 ADD SWAP3 SWAP1 SWAP2 ADD SWAP1 PUSH2 0x6C2 JUMP JUMPDEST SWAP1 SWAP2 POP DUP4 PUSH0 MSTORE PUSH1 0x20 PUSH0 KECCAK256 PUSH1 0x1F DUP5 ADD PUSH1 0x5 SHR DUP2 ADD PUSH1 0x20 DUP6 LT PUSH2 0x763 JUMPI JUMPDEST SWAP1 DUP5 SWAP4 SWAP3 SWAP2 JUMPDEST PUSH1 0x1F DUP4 ADD PUSH1 0x5 SHR DUP3 ADD DUP2 LT PUSH2 0x755 JUMPI POP POP PUSH2 0x26D JUMP JUMPDEST PUSH0 DUP2 SSTORE DUP6 SWAP5 POP PUSH1 0x1 ADD PUSH2 0x73F JUMP JUMPDEST POP DUP1 PUSH2 0x739 JUMP JUMPDEST PUSH1 0x40 MLOAD PUSH3 0x461BCD PUSH1 0xE5 SHL DUP2 MSTORE PUSH1 0x20 PUSH1 0x4 DUP3 ADD MSTORE PUSH1 0x15 PUSH1 0x24 DUP3 ADD MSTORE PUSH21 0x135BD91D5B1948185B1C9958591E481B1A5CDD1959 PUSH1 0x5A SHL PUSH1 0x44 DUP3 ADD MSTORE PUSH1 0x64 SWAP1 REVERT JUMPDEST CALLVALUE PUSH2 0xFB JUMPI PUSH1 0x40 CALLDATASIZE PUSH1 0x3 NOT ADD SLT PUSH2 0xFB JUMPI PUSH2 0x7C0 PUSH2 0xBFC JUMP JUMPDEST PUSH1 0x24 CALLDATALOAD SWAP1 PUSH1 0x1 PUSH1 0x1 PUSH1 0x40 SHL SUB DUP3 GT PUSH2 0xFB JUMPI PUSH2 0x806 PUSH1 0xFF SWAP2 PUSH2 0x7E8 PUSH1 0x20 SWAP5 CALLDATASIZE SWAP1 PUSH1 0x4 ADD PUSH2 0xDB6 JUMP JUMPDEST PUSH1 0x1 PUSH1 0x1 PUSH1 0xA0 SHL SUB SWAP1 SWAP3 AND PUSH0 SWAP1 DUP2 MSTORE PUSH1 0x2 DUP7 MSTORE PUSH1 0x40 SWAP1 KECCAK256 SWAP2 SWAP1 PUSH2 0xDE3 JUMP JUMPDEST SLOAD AND PUSH1 0x40 MLOAD SWAP1 ISZERO ISZERO DUP2 MSTORE RETURN JUMPDEST PUSH1 0x20 DUP1 PUSH1 0x3 NOT CALLDATASIZE ADD SLT PUSH2 0xFB JUMPI PUSH1 0x4 CALLDATALOAD PUSH1 0x1 PUSH1 0x1 PUSH1 0x40 SHL SUB DUP2 GT PUSH2 0xFB JUMPI PUSH2 0x83E SWAP1 CALLDATASIZE SWAP1 PUSH1 0x4 ADD PUSH2 0xDB6 JUMP JUMPDEST PUSH1 0x40 MLOAD DUP2 DUP4 DUP3 CALLDATACOPY DUP4 DUP2 DUP4 DUP2 ADD PUSH1 0x1 DUP2 MSTORE SUB ADD SWAP1 KECCAK256 PUSH1 0xFF PUSH1 0x7 DUP3 ADD SLOAD AND ISZERO PUSH2 0x9BC JUMPI CALLER PUSH0 MSTORE PUSH1 0x2 DUP5 MSTORE PUSH1 0xFF PUSH2 0x876 PUSH1 0x40 PUSH0 KECCAK256 DUP5 DUP7 PUSH2 0xDE3 JUMP JUMPDEST SLOAD AND PUSH2 0x983 JUMPI PUSH1 0x5 DUP2 ADD SWAP1 DUP2 SLOAD CALLVALUE LT PUSH2 0x947 JUMPI CALLER PUSH0 MSTORE PUSH1 0x2 DUP6 MSTORE PUSH2 0x89E PUSH1 0x40 PUSH0 KECCAK256 DUP5 DUP7 PUSH2 0xDE3 JUMP JUMPDEST PUSH1 0x1 PUSH1 0xFF NOT DUP3 SLOAD AND OR SWAP1 SSTORE PUSH1 0x6 DUP2 ADD DUP1 SLOAD SWAP1 PUSH1 0x1 DUP3 ADD DUP1 SWAP3 GT PUSH2 0x933 JUMPI SSTORE PUSH1 0x4 ADD SLOAD SWAP1 SLOAD PUSH0 SWAP2 DUP3 SWAP2 DUP3 SWAP2 DUP3 SWAP2 SWAP1 PUSH1 0x1 PUSH1 0x1 PUSH1 0xA0 SHL SUB AND DUP3 DUP3 ISZERO PUSH2 0x92A JUMPI JUMPDEST CALL ISZERO PUSH2 0x91F JUMPI PUSH32 0xCCB3632DFB2CB225726BB7320079ED59BBDDD5319B30E1A32EFBA36A1D5B9779 SWAP2 DUP2 PUSH1 0x40 MLOAD SWAP3 DUP4 SWAP3 DUP4 CALLDATACOPY DUP2 ADD PUSH0 DUP2 MSTORE SUB SWAP1 KECCAK256 SWAP2 PUSH1 0x40 MLOAD CALLER DUP2 MSTORE LOG2 STOP JUMPDEST PUSH1 0x40 MLOAD RETURNDATASIZE PUSH0 DUP3 RETURNDATACOPY RETURNDATASIZE SWAP1 REVERT JUMPDEST POP PUSH2 0x8FC PUSH2 0x8DC JUMP JUMPDEST PUSH4 0x4E487B71 PUSH1 0xE0 SHL PUSH0 MSTORE PUSH1 0x11 PUSH1 0x4 MSTORE PUSH1 0x24 PUSH0 REVERT JUMPDEST PUSH1 0x40 MLOAD PUSH3 0x461BCD PUSH1 0xE5 SHL DUP2 MSTORE PUSH1 0x4 DUP2 ADD DUP7 SWAP1 MSTORE PUSH1 0x14 PUSH1 0x24 DUP3 ADD MSTORE PUSH20 0x125B9CDD59999A58DA595B9D081C185E5B595B9D PUSH1 0x62 SHL PUSH1 0x44 DUP3 ADD MSTORE PUSH1 0x64 SWAP1 REVERT JUMPDEST PUSH1 0x40 MLOAD PUSH3 0x461BCD PUSH1 0xE5 SHL DUP2 MSTORE PUSH1 0x4 DUP2 ADD DUP6 SWAP1 MSTORE PUSH1 0x11 PUSH1 0x24 DUP3 ADD MSTORE PUSH17 0x105B1C9958591E481C1D5C98DA185CD959 PUSH1 0x7A SHL PUSH1 0x44 DUP3 ADD MSTORE PUSH1 0x64 SWAP1 REVERT JUMPDEST PUSH1 0x40 MLOAD PUSH3 0x461BCD PUSH1 0xE5 SHL DUP2 MSTORE PUSH1 0x4 DUP2 ADD DUP6 SWAP1 MSTORE PUSH1 0x14 PUSH1 0x24 DUP3 ADD MSTORE PUSH20 0x4D6F64756C65206E6F7420617661696C61626C65 PUSH1 0x60 SHL PUSH1 0x44 DUP3 ADD MSTORE PUSH1 0x64 SWAP1 REVERT JUMPDEST CALLVALUE PUSH2 0xFB JUMPI PUSH1 0x20 CALLDATASIZE PUSH1 0x3 NOT ADD SLT PUSH2 0xFB JUMPI PUSH1 0x4 CALLDATALOAD PUSH1 0x1 PUSH1 0x1 PUSH1 0x40 SHL SUB DUP2 GT PUSH2 0xFB JUMPI PUSH2 0xA43 PUSH1 0x20 PUSH2 0xA30 PUSH2 0xABD SWAP4 CALLDATASIZE SWAP1 PUSH1 0x4 ADD PUSH2 0xC78 JUMP JUMPDEST DUP2 PUSH1 0x40 MLOAD SWAP4 DUP3 DUP6 DUP1 SWAP5 MLOAD SWAP4 DUP5 SWAP3 ADD PUSH2 0xC96 JUMP JUMPDEST DUP2 ADD PUSH1 0x1 DUP2 MSTORE SUB ADD SWAP1 KECCAK256 PUSH2 0xA56 DUP2 PUSH2 0xCEF JUMP JUMPDEST SWAP1 PUSH2 0xA63 PUSH1 0x1 DUP3 ADD PUSH2 0xCEF JUMP JUMPDEST PUSH2 0xA6F PUSH1 0x2 DUP4 ADD PUSH2 0xCEF JUMP JUMPDEST SWAP2 PUSH2 0xA7C PUSH1 0x3 DUP3 ADD PUSH2 0xCEF JUMP JUMPDEST SWAP3 PUSH2 0xAE7 PUSH1 0x1 DUP1 PUSH1 0xA0 SHL SUB PUSH1 0x4 DUP5 ADD SLOAD AND SWAP5 PUSH2 0xAD9 PUSH1 0x5 DUP6 ADD SLOAD SWAP4 PUSH2 0xACB PUSH1 0xFF PUSH1 0x7 PUSH1 0x6 DUP10 ADD SLOAD SWAP9 ADD SLOAD AND SWAP8 PUSH1 0x40 MLOAD SWAP12 DUP13 SWAP12 DUP13 PUSH2 0x100 DUP1 SWAP2 MSTORE DUP14 ADD SWAP1 PUSH2 0xD91 JUMP JUMPDEST SWAP1 DUP12 DUP3 SUB PUSH1 0x20 DUP14 ADD MSTORE PUSH2 0xD91 JUMP JUMPDEST SWAP1 DUP10 DUP3 SUB PUSH1 0x40 DUP12 ADD MSTORE PUSH2 0xD91 JUMP JUMPDEST SWAP1 DUP8 DUP3 SUB PUSH1 0x60 DUP10 ADD MSTORE PUSH2 0xD91 JUMP JUMPDEST SWAP4 PUSH1 0x80 DUP7 ADD MSTORE PUSH1 0xA0 DUP6 ADD MSTORE PUSH1 0xC0 DUP5 ADD MSTORE ISZERO ISZERO PUSH1 0xE0 DUP4 ADD MSTORE SUB SWAP1 RETURN JUMPDEST CALLVALUE PUSH2 0xFB JUMPI PUSH0 CALLDATASIZE PUSH1 0x3 NOT ADD SLT PUSH2 0xFB JUMPI PUSH0 SLOAD PUSH1 0x40 MLOAD PUSH1 0x1 PUSH1 0x1 PUSH1 0xA0 SHL SUB SWAP1 SWAP2 AND DUP2 MSTORE PUSH1 0x20 SWAP1 RETURN JUMPDEST CALLVALUE PUSH2 0xFB JUMPI PUSH0 CALLDATASIZE PUSH1 0x3 NOT ADD SLT PUSH2 0xFB JUMPI PUSH2 0xB41 PUSH2 0xDFC JUMP JUMPDEST PUSH0 DUP1 SLOAD PUSH1 0x1 PUSH1 0x1 PUSH1 0xA0 SHL SUB NOT DUP2 AND DUP3 SSTORE PUSH1 0x1 PUSH1 0x1 PUSH1 0xA0 SHL SUB AND PUSH32 0x8BE0079C531659141344CD1FD0A4F28419497F9722A3DAAFE3B4186F6B6457E0 DUP3 DUP1 LOG3 STOP JUMPDEST CALLVALUE PUSH2 0xFB JUMPI PUSH1 0x40 CALLDATASIZE PUSH1 0x3 NOT ADD SLT PUSH2 0xFB JUMPI PUSH2 0xB99 PUSH2 0xBFC JUMP JUMPDEST PUSH1 0x24 CALLDATALOAD PUSH1 0x1 PUSH1 0x1 PUSH1 0x40 SHL SUB DUP2 GT PUSH2 0xFB JUMPI PUSH2 0xBE7 PUSH1 0x20 DUP1 SWAP4 PUSH2 0xBC1 PUSH1 0xFF SWAP5 CALLDATASIZE SWAP1 PUSH1 0x4 ADD PUSH2 0xC78 JUMP JUMPDEST SWAP1 PUSH1 0x1 DUP1 PUSH1 0xA0 SHL SUB AND PUSH0 MSTORE PUSH1 0x2 DUP3 MSTORE PUSH1 0x40 PUSH0 KECCAK256 DUP3 PUSH1 0x40 MLOAD SWAP5 DUP4 DUP7 DUP1 SWAP6 MLOAD SWAP4 DUP5 SWAP3 ADD PUSH2 0xC96 JUMP JUMPDEST DUP3 ADD SWAP1 DUP2 MSTORE SUB ADD SWAP1 KECCAK256 SLOAD AND PUSH1 0x40 MLOAD SWAP1 ISZERO ISZERO DUP2 MSTORE RETURN JUMPDEST PUSH1 0x4 CALLDATALOAD SWAP1 PUSH1 0x1 PUSH1 0x1 PUSH1 0xA0 SHL SUB DUP3 AND DUP3 SUB PUSH2 0xFB JUMPI JUMP JUMPDEST SWAP1 PUSH1 0x1F DUP1 NOT SWAP2 ADD AND DUP2 ADD SWAP1 DUP2 LT PUSH1 0x1 PUSH1 0x1 PUSH1 0x40 SHL SUB DUP3 GT OR PUSH2 0x504 JUMPI PUSH1 0x40 MSTORE JUMP JUMPDEST SWAP3 SWAP2 SWAP3 PUSH1 0x1 PUSH1 0x1 PUSH1 0x40 SHL SUB DUP3 GT PUSH2 0x504 JUMPI PUSH1 0x40 MLOAD SWAP2 PUSH2 0xC5C PUSH1 0x1F DUP3 ADD PUSH1 0x1F NOT AND PUSH1 0x20 ADD DUP5 PUSH2 0xC12 JUMP JUMPDEST DUP3 SWAP5 DUP2 DUP5 MSTORE DUP2 DUP4 ADD GT PUSH2 0xFB JUMPI DUP3 DUP2 PUSH1 0x20 SWAP4 DUP5 PUSH0 SWAP7 ADD CALLDATACOPY ADD ADD MSTORE JUMP JUMPDEST SWAP1 DUP1 PUSH1 0x1F DUP4 ADD SLT ISZERO PUSH2 0xFB JUMPI DUP2 PUSH1 0x20 PUSH2 0xC93 SWAP4 CALLDATALOAD SWAP2 ADD PUSH2 0xC33 JUMP JUMPDEST SWAP1 JUMP JUMPDEST PUSH0 JUMPDEST DUP4 DUP2 LT PUSH2 0xCA7 JUMPI POP POP PUSH0 SWAP2 ADD MSTORE JUMP JUMPDEST DUP2 DUP2 ADD MLOAD DUP4 DUP3 ADD MSTORE PUSH1 0x20 ADD PUSH2 0xC98 JUMP JUMPDEST SWAP1 PUSH1 0x1 DUP3 DUP2 SHR SWAP3 AND DUP1 ISZERO PUSH2 0xCE5 JUMPI JUMPDEST PUSH1 0x20 DUP4 LT EQ PUSH2 0xCD1 JUMPI JUMP JUMPDEST PUSH4 0x4E487B71 PUSH1 0xE0 SHL PUSH0 MSTORE PUSH1 0x22 PUSH1 0x4 MSTORE PUSH1 0x24 PUSH0 REVERT JUMPDEST SWAP2 PUSH1 0x7F AND SWAP2 PUSH2 0xCC6 JUMP JUMPDEST SWAP1 PUSH1 0x40 MLOAD SWAP2 DUP3 PUSH0 DUP3 SLOAD PUSH2 0xD01 DUP2 PUSH2 0xCB7 JUMP JUMPDEST SWAP1 DUP2 DUP5 MSTORE PUSH1 0x20 SWAP5 PUSH1 0x1 SWAP2 PUSH1 0x1 DUP2 AND SWAP1 DUP2 PUSH0 EQ PUSH2 0xD6F JUMPI POP PUSH1 0x1 EQ PUSH2 0xD31 JUMPI JUMPDEST POP POP POP PUSH2 0xD2F SWAP3 POP SUB DUP4 PUSH2 0xC12 JUMP JUMPDEST JUMP JUMPDEST PUSH0 SWAP1 DUP2 MSTORE DUP6 DUP2 KECCAK256 SWAP6 SWAP4 POP SWAP2 SWAP1 JUMPDEST DUP2 DUP4 LT PUSH2 0xD57 JUMPI POP POP PUSH2 0xD2F SWAP4 POP DUP3 ADD ADD PUSH0 DUP1 DUP1 PUSH2 0xD20 JUMP JUMPDEST DUP6 SLOAD DUP9 DUP5 ADD DUP6 ADD MSTORE SWAP5 DUP6 ADD SWAP5 DUP8 SWAP5 POP SWAP2 DUP4 ADD SWAP2 PUSH2 0xD3E JUMP JUMPDEST SWAP3 POP POP POP PUSH2 0xD2F SWAP5 SWAP3 POP PUSH1 0xFF NOT AND DUP3 DUP5 ADD MSTORE ISZERO ISZERO PUSH1 0x5 SHL DUP3 ADD ADD PUSH0 DUP1 DUP1 PUSH2 0xD20 JUMP JUMPDEST SWAP1 PUSH1 0x20 SWAP2 PUSH2 0xDAA DUP2 MLOAD DUP1 SWAP3 DUP2 DUP6 MSTORE DUP6 DUP1 DUP7 ADD SWAP2 ADD PUSH2 0xC96 JUMP JUMPDEST PUSH1 0x1F ADD PUSH1 0x1F NOT AND ADD ADD SWAP1 JUMP JUMPDEST SWAP2 DUP2 PUSH1 0x1F DUP5 ADD SLT ISZERO PUSH2 0xFB JUMPI DUP3 CALLDATALOAD SWAP2 PUSH1 0x1 PUSH1 0x1 PUSH1 0x40 SHL SUB DUP4 GT PUSH2 0xFB JUMPI PUSH1 0x20 DUP4 DUP2 DUP7 ADD SWAP6 ADD ADD GT PUSH2 0xFB JUMPI JUMP JUMPDEST PUSH1 0x20 SWAP2 SWAP3 DUP4 PUSH1 0x40 MLOAD SWAP5 DUP6 SWAP4 DUP5 CALLDATACOPY DUP3 ADD SWAP1 DUP2 MSTORE SUB ADD SWAP1 KECCAK256 SWAP1 JUMP JUMPDEST PUSH0 SLOAD PUSH1 0x1 PUSH1 0x1 PUSH1 0xA0 SHL SUB AND CALLER SUB PUSH2 0xE0F JUMPI JUMP JUMPDEST PUSH1 0x40 MLOAD PUSH4 0x118CDAA7 PUSH1 0xE0 SHL DUP2 MSTORE CALLER PUSH1 0x4 DUP3 ADD MSTORE PUSH1 0x24 SWAP1 REVERT INVALID LOG2 PUSH5 0x6970667358 0x22 SLT KECCAK256 0xD DUP8 DELEGATECALL 0x1F DUP3 CREATE2 0xE5 0xC5 0xA6 0xC2 0xE1 0x23 0xEB PUSH7 0x715493858F424A 0xD7 TLOAD 0xE3 DUP4 0xCA 0x2D SWAP3 0xEB 0x2B EXP CALLDATACOPY PUSH5 0x736F6C6343 STOP ADDMOD XOR STOP CALLER "},"methodIdentifiers":{"hasPurchased(address,string)":"ba68f1af","listModule(string,string,string,string,uint256)":"e76778b6","modules(string)":"99b0d6d0","owner()":"8da5cb5b","purchaseModule(string)":"ad5122ed","purchases(address,string)":"2841cfc6","renounceOwnership()":"715018a6","transferOwnership(address)":"f2fde38b"}}}}}