{"contracts/AgentRegistry.sol":{"AgentRegistry":{"abi":[{"inputs":[],"stateMutability":"nonpayable","type":"constructor"},{"inputs":[{"internalType":"address","name":"owner","type":"address"}],"name":"OwnableInvalidOwner","type":"error"},{"inputs":[{"internalType":"address","name":"account","type":"address"}],"name":"OwnableUnauthorizedAccount","type":"error"},{"anonymous":false,"inputs":[{"indexed":true,"internalType":"string","name":"agentId","type":"string"}],"name":"AgentDeactivated","type":"event"},{"anonymous":false,"inputs":[{"indexed":true,"internalType":"string","name":"agentId","type":"string"},{"indexed":false,"internalType":"uint256","name":"tokenId","type":"uint256"},{"indexed":false,"internalType":"address","name":"owner","type":"address"}],"name":"AgentRegistered","type":"event"},{"anonymous":false,"inputs":[{"indexed":true,"internalType":"string","name":"agentId","type":"string"},{"indexed":false,"internalType":"int32","name":"newElo","type":"int32"}],"name":"EloUpdated","type":"event"},{"anonymous":false,"inputs":[{"indexed":true,"internalType":"address","name":"previousOwner","type":"address"},{"indexed":true,"internalType":"address","name":"newOwner","type":"address"}],"name":"OwnershipTransferred","type":"event"},{"inputs":[{"internalType":"string","name":"","type":"string"}],"name":"agents","outputs":[{"internalType":"string","name":"agentId","type":"string"},{"internalType":"uint256","name":"tokenId","type":"uint256"},{"internalType":"address","name":"owner","type":"address"},{"internalType":"int32","name":"eloRating","type":"int32"},{"internalType":"bool","name":"isActive","type":"bool"},{"internalType":"uint256","name":"registeredAt","type":"uint256"}],"stateMutability":"view","type":"function"},{"inputs":[{"internalType":"string","name":"agentId","type":"string"}],"name":"deactivateAgent","outputs":[],"stateMutability":"nonpayable","type":"function"},{"inputs":[{"internalType":"address","name":"owner","type":"address"}],"name":"getAgentsByOwner","outputs":[{"internalType":"string[]","name":"","type":"string[]"}],"stateMutability":"view","type":"function"},{"inputs":[],"name":"owner","outputs":[{"internalType":"address","name":"","type":"address"}],"stateMutability":"view","type":"function"},{"inputs":[{"internalType":"address","name":"","type":"address"},{"internalType":"uint256","name":"","type":"uint256"}],"name":"ownerAgents","outputs":[{"internalType":"string","name":"","type":"string"}],"stateMutability":"view","type":"function"},{"inputs":[{"internalType":"string","name":"agentId","type":"string"},{"internalType":"uint256","name":"tokenId","type":"uint256"},{"internalType":"address","name":"owner","type":"address"},{"internalType":"int32","name":"initialElo","type":"int32"}],"name":"registerAgent","outputs":[],"stateMutability":"nonpayable","type":"function"},{"inputs":[],"name":"renounceOwnership","outputs":[],"stateMutability":"nonpayable","type":"function"},{"inputs":[{"internalType":"uint256","name":"","type":"uint256"}],"name":"tokenIdToAgentId","outputs":[{"internalType":"string","name":"","type":"string"}],"stateMutability":"view","type":"function"},{"inputs":[{"internalType":"address","name":"newOwner","type":"address"}],"name":"transferOwnership","outputs":[],"stateMutability":"nonpayable","type":"function"},{"inputs":[{"internalType":"string","name":"agentId","type":"string"},{"internalType":"int32","name":"newElo","type":"int32"}],"name":"updateElo","outputs":[],"stateMutability":"nonpayable","type":"function"}],"evm":{"bytecode":{"linkReferences":{},"object":"60808060405234610078573315610063575f8054336001600160a01b03198216811783556040519290916001600160a01b0316907f8be0079c531659141344cd1fd0a4f28419497f9722a3daafe3b4186f6b6457e09080a3610c9d908161007d8239f35b631e4fbdf760e01b81525f6004820152602490fd5b5f80fdfe6080604052600480361015610012575f80fd5b5f3560e01c806318697b751461088a5780631ab6f888146107885780634449ee091461075f57806356a1acb71461040157806362febe4f1461037e578063715018a6146103275780638da5cb5b14610300578063cf6ee0cb14610235578063d8413008146101165763f2fde38b14610088575f80fd5b34610112576020366003190112610112576100a161094b565b6100a9610c3c565b6001600160a01b039081169182156100fb57505f54826bffffffffffffffffffffffff60a01b8216175f55167f8be0079c531659141344cd1fd0a4f28419497f9722a3daafe3b4186f6b6457e05f80a3005b6024905f60405191631e4fbdf760e01b8352820152fd5b5f80fd5b503461011257604036600319011261011257803567ffffffffffffffff811161011257610146903690830161091d565b906024358060030b938482036101125761015e610c3c565b60ff6002604051868682376020818881016001815203019020015460c01c16156101fe5750916020916101e37f4070da6203e75f37c641adc330ce80789b4581608d910efb26d2b3807b9069f69460026040518585823786818781016001815203019020019081549060a01b63ffffffff60a01b169063ffffffff60a01b1916179055565b81604051928392833781015f815203902092604051908152a2005b60649060206040519162461bcd60e51b8352820152601060248201526f4167656e74206e6f742061637469766560801b6044820152fd5b503461011257602036600319011261011257803567ffffffffffffffff8111610112573660238201121561011257602061027e6102cc9383602461029195369301359101610ae0565b8160405193828580945193849201610961565b810160018152030190206102a481610a15565b9060018101549060ff600360028301549201549160405195869560c0875260c0870190610982565b93602086015260018060a01b03811660408601528060a01c60030b606086015260c01c161515608084015260a08301520390f35b34610112575f366003190112610112575f546040516001600160a01b039091168152602090f35b34610112575f3660031901126101125761033f610c3c565b5f80546001600160a01b0319811682556001600160a01b03167f8be0079c531659141344cd1fd0a4f28419497f9722a3daafe3b4186f6b6457e08280a3005b50346101125760403660031901126101125761039861094b565b6001600160a01b03165f908152600360205260409020805460243590811015610112576103c491610ab7565b9190916103ef576103eb6103d783610a15565b604051918291602083526020830190610982565b0390f35b5f90634e487b7160e01b82525260245ffd5b50346101125760803660031901126101125767ffffffffffffffff90803582811161011257610433903690830161091d565b604435939092906001600160a01b0385168503610112576064358060030b80910361011257610460610c3c565b60016040518686823760208188810184815203019020015461071b576040519060c08201828110848211176107085760405261049d368787610ae0565b82526020820190602435825260018060a01b03881660408401526060830152600160808301524260a083015260405186868237602081888101600181520301902092825180519182116106f5576104fe826104f887546109a7565b87610b26565b602090601f831160011461068a57826003959360a09593610534935f9261067f575b50508160011b915f199060031b1c19161790565b85555b51600185015560028401600180841b036040830151166bffffffffffffffffffffffff841b82541617815561058d6060830151850b829081549060a01b63ffffffff60a01b169063ffffffff60a01b1916179055565b6080820151815460ff60c01b191690151560c01b60ff60c01b1617905501519101556024355f9081526002602052604090206105cc9084908490610b75565b6001600160a01b0384165f9081526003602052604090208054906801000000000000000082101561066c579061060791600182018155610ab7565b9190916103ef5750918161063f826040947f2e77da768fb560cfcde56babda1604c9b3c49d3101d64b61eeac96cc5546883396610b75565b81835192839283375f908201908152039020815160243581526001600160a01b03909416602085015292a2005b604183634e487b7160e01b5f525260245ffd5b015190505f80610520565b90855f5260205f20915f5b601f19851681106106dd57509260a094926001926003979583601f198116106106c6575b505050811b018555610537565b01515f1983891b60f8161c191690555f80806106b9565b91926020600181928685015181550194019201610695565b604186634e487b7160e01b5f525260245ffd5b604185634e487b7160e01b5f525260245ffd5b60405162461bcd60e51b8152602081850152601860248201527f4167656e7420616c7265616479207265676973746572656400000000000000006044820152606490fd5b503461011257602036600319011261011257355f5260026020526103eb6103d760405f20610a15565b50346101125760209081600319360112610112576001600160a01b036107ac61094b565b165f526003825260405f2080549167ffffffffffffffff831161087757508290604051926107df838260051b01856109df565b80845282840180925f52835f205f915b8383106108555750505050604051918083019381845251809452604083019360408160051b85010192915f955b8287106108295785850386f35b909192938280610845600193603f198a82030186528851610982565b960192019601959291909261081c565b6001868192610866859a999a610a15565b8152019201920191909594956107ef565b604190634e487b7160e01b5f525260245ffd5b50346101125760203660031901126101125780359067ffffffffffffffff8211610112576108ba9136910161091d565b906108c3610c3c565b60026040518383823760208185810160018152030190200160ff60c01b19815416905581604051928392833781015f81520390207febf881b0f9e1b4a0cd64caa43de3b84857b09effa71637f5cbdd156e2331ab515f80a2005b9181601f840112156101125782359167ffffffffffffffff8311610112576020838186019501011161011257565b600435906001600160a01b038216820361011257565b5f5b8381106109725750505f910152565b8181015183820152602001610963565b9060209161099b81518092818552858086019101610961565b601f01601f1916010190565b90600182811c921680156109d5575b60208310146109c157565b634e487b7160e01b5f52602260045260245ffd5b91607f16916109b6565b90601f8019910116810190811067ffffffffffffffff821117610a0157604052565b634e487b7160e01b5f52604160045260245ffd5b9060405191825f8254610a27816109a7565b908184526020946001916001811690815f14610a955750600114610a57575b505050610a55925003836109df565b565b5f90815285812095935091905b818310610a7d575050610a5593508201015f8080610a46565b85548884018501529485019487945091830191610a64565b92505050610a5594925060ff191682840152151560051b8201015f8080610a46565b8054821015610acc575f5260205f2001905f90565b634e487b7160e01b5f52603260045260245ffd5b92919267ffffffffffffffff8211610a015760405191610b0a601f8201601f1916602001846109df565b829481845281830111610112578281602093845f960137010152565b601f8211610b3357505050565b5f5260205f20906020601f840160051c83019310610b6b575b601f0160051c01905b818110610b60575050565b5f8155600101610b55565b9091508190610b4c565b90929167ffffffffffffffff8111610a0157610b9b81610b9584546109a7565b84610b26565b5f601f8211600114610bd8578190610bc99394955f92610bcd5750508160011b915f199060031b1c19161790565b9055565b013590505f80610520565b601f19821694835f5260209160205f20925f905b888210610c2457505083600195969710610c0b575b505050811b019055565b01355f19600384901b60f8161c191690555f8080610c01565b80600184968294958701358155019501920190610bec565b5f546001600160a01b03163303610c4f57565b60405163118cdaa760e01b8152336004820152602490fdfea2646970667358221220c1ed5660bd2f8f04c852c497b57261b9e5eea1d70a9b6202a7b35071c01edeca64736f6c63430008180033","opcodes":"PUSH1 0x80 DUP1 PUSH1 0x40 MSTORE CALLVALUE PUSH2 0x78 JUMPI CALLER ISZERO PUSH2 0x63 JUMPI PUSH0 DUP1 SLOAD CALLER PUSH1 0x1 PUSH1 0x1 PUSH1 0xA0 SHL SUB NOT DUP3 AND DUP2 OR DUP4 SSTORE PUSH1 0x40 MLOAD SWAP3 SWAP1 SWAP2 PUSH1 0x1 PUSH1 0x1 PUSH1 0xA0 SHL SUB AND SWAP1 PUSH32 0x8BE0079C531659141344CD1FD0A4F28419497F9722A3DAAFE3B4186F6B6457E0 SWAP1 DUP1 LOG3 PUSH2 0xC9D SWAP1 DUP2 PUSH2 0x7D DUP3 CODECOPY RETURN JUMPDEST PUSH4 0x1E4FBDF7 PUSH1 0xE0 SHL DUP2 MSTORE PUSH0 PUSH1 0x4 DUP3 ADD MSTORE PUSH1 0x24 SWAP1 REVERT JUMPDEST PUSH0 DUP1 REVERT INVALID PUSH1 0x80 PUSH1 0x40 MSTORE PUSH1 0x4 DUP1 CALLDATASIZE LT ISZERO PUSH2 0x12 JUMPI PUSH0 DUP1 REVERT JUMPDEST PUSH0 CALLDATALOAD PUSH1 0xE0 SHR DUP1 PUSH4 0x18697B75 EQ PUSH2 0x88A JUMPI DUP1 PUSH4 0x1AB6F888 EQ PUSH2 0x788 JUMPI DUP1 PUSH4 0x4449EE09 EQ PUSH2 0x75F JUMPI DUP1 PUSH4 0x56A1ACB7 EQ PUSH2 0x401 JUMPI DUP1 PUSH4 0x62FEBE4F EQ PUSH2 0x37E JUMPI DUP1 PUSH4 0x715018A6 EQ PUSH2 0x327 JUMPI DUP1 PUSH4 0x8DA5CB5B EQ PUSH2 0x300 JUMPI DUP1 PUSH4 0xCF6EE0CB EQ PUSH2 0x235 JUMPI DUP1 PUSH4 0xD8413008 EQ PUSH2 0x116 JUMPI PUSH4 0xF2FDE38B EQ PUSH2 0x88 JUMPI PUSH0 DUP1 REVERT JUMPDEST CALLVALUE PUSH2 0x112 JUMPI PUSH1 0x20 CALLDATASIZE PUSH1 0x3 NOT ADD SLT PUSH2 0x112 JUMPI PUSH2 0xA1 PUSH2 0x94B JUMP JUMPDEST PUSH2 0xA9 PUSH2 0xC3C JUMP JUMPDEST PUSH1 0x1 PUSH1 0x1 PUSH1 0xA0 SHL SUB SWAP1 DUP2 AND SWAP2 DUP3 ISZERO PUSH2 0xFB JUMPI POP PUSH0 SLOAD DUP3 PUSH12 0xFFFFFFFFFFFFFFFFFFFFFFFF PUSH1 0xA0 SHL DUP3 AND OR PUSH0 SSTORE AND PUSH32 0x8BE0079C531659141344CD1FD0A4F28419497F9722A3DAAFE3B4186F6B6457E0 PUSH0 DUP1 LOG3 STOP JUMPDEST PUSH1 0x24 SWAP1 PUSH0 PUSH1 0x40 MLOAD SWAP2 PUSH4 0x1E4FBDF7 PUSH1 0xE0 SHL DUP4 MSTORE DUP3 ADD MSTORE REVERT JUMPDEST PUSH0 DUP1 REVERT JUMPDEST POP CALLVALUE PUSH2 0x112 JUMPI PUSH1 0x40 CALLDATASIZE PUSH1 0x3 NOT ADD SLT PUSH2 0x112 JUMPI DUP1 CALLDATALOAD PUSH8 0xFFFFFFFFFFFFFFFF DUP2 GT PUSH2 0x112 JUMPI PUSH2 0x146 SWAP1 CALLDATASIZE SWAP1 DUP4 ADD PUSH2 0x91D JUMP JUMPDEST SWAP1 PUSH1 0x24 CALLDATALOAD DUP1 PUSH1 0x3 SIGNEXTEND SWAP4 DUP5 DUP3 SUB PUSH2 0x112 JUMPI PUSH2 0x15E PUSH2 0xC3C JUMP JUMPDEST PUSH1 0xFF PUSH1 0x2 PUSH1 0x40 MLOAD DUP7 DUP7 DUP3 CALLDATACOPY PUSH1 0x20 DUP2 DUP9 DUP2 ADD PUSH1 0x1 DUP2 MSTORE SUB ADD SWAP1 KECCAK256 ADD SLOAD PUSH1 0xC0 SHR AND ISZERO PUSH2 0x1FE JUMPI POP SWAP2 PUSH1 0x20 SWAP2 PUSH2 0x1E3 PUSH32 0x4070DA6203E75F37C641ADC330CE80789B4581608D910EFB26D2B3807B9069F6 SWAP5 PUSH1 0x2 PUSH1 0x40 MLOAD DUP6 DUP6 DUP3 CALLDATACOPY DUP7 DUP2 DUP8 DUP2 ADD PUSH1 0x1 DUP2 MSTORE SUB ADD SWAP1 KECCAK256 ADD SWAP1 DUP2 SLOAD SWAP1 PUSH1 0xA0 SHL PUSH4 0xFFFFFFFF PUSH1 0xA0 SHL AND SWAP1 PUSH4 0xFFFFFFFF PUSH1 0xA0 SHL NOT AND OR SWAP1 SSTORE JUMP JUMPDEST DUP2 PUSH1 0x40 MLOAD SWAP3 DUP4 SWAP3 DUP4 CALLDATACOPY DUP2 ADD PUSH0 DUP2 MSTORE SUB SWAP1 KECCAK256 SWAP3 PUSH1 0x40 MLOAD SWAP1 DUP2 MSTORE LOG2 STOP JUMPDEST PUSH1 0x64 SWAP1 PUSH1 0x20 PUSH1 0x40 MLOAD SWAP2 PUSH3 0x461BCD PUSH1 0xE5 SHL DUP4 MSTORE DUP3 ADD MSTORE PUSH1 0x10 PUSH1 0x24 DUP3 ADD MSTORE PUSH16 0x4167656E74206E6F7420616374697665 PUSH1 0x80 SHL PUSH1 0x44 DUP3 ADD MSTORE REVERT JUMPDEST POP CALLVALUE PUSH2 0x112 JUMPI PUSH1 0x20 CALLDATASIZE PUSH1 0x3 NOT ADD SLT PUSH2 0x112 JUMPI DUP1 CALLDATALOAD PUSH8 0xFFFFFFFFFFFFFFFF DUP2 GT PUSH2 0x112 JUMPI CALLDATASIZE PUSH1 0x23 DUP3 ADD SLT ISZERO PUSH2 0x112 JUMPI PUSH1 0x20 PUSH2 0x27E PUSH2 0x2CC SWAP4 DUP4 PUSH1 0x24 PUSH2 0x291 SWAP6 CALLDATASIZE SWAP4 ADD CALLDATALOAD SWAP2 ADD PUSH2 0xAE0 JUMP JUMPDEST DUP2 PUSH1 0x40 MLOAD SWAP4 DUP3 DUP6 DUP1 SWAP5 MLOAD SWAP4 DUP5 SWAP3 ADD PUSH2 0x961 JUMP JUMPDEST DUP2 ADD PUSH1 0x1 DUP2 MSTORE SUB ADD SWAP1 KECCAK256 PUSH2 0x2A4 DUP2 PUSH2 0xA15 JUMP JUMPDEST SWAP1 PUSH1 0x1 DUP2 ADD SLOAD SWAP1 PUSH1 0xFF PUSH1 0x3 PUSH1 0x2 DUP4 ADD SLOAD SWAP3 ADD SLOAD SWAP2 PUSH1 0x40 MLOAD SWAP6 DUP7 SWAP6 PUSH1 0xC0 DUP8 MSTORE PUSH1 0xC0 DUP8 ADD SWAP1 PUSH2 0x982 JUMP JUMPDEST SWAP4 PUSH1 0x20 DUP7 ADD MSTORE PUSH1 0x1 DUP1 PUSH1 0xA0 SHL SUB DUP2 AND PUSH1 0x40 DUP7 ADD MSTORE DUP1 PUSH1 0xA0 SHR PUSH1 0x3 SIGNEXTEND PUSH1 0x60 DUP7 ADD MSTORE PUSH1 0xC0 SHR AND ISZERO ISZERO PUSH1 0x80 DUP5 ADD MSTORE PUSH1 0xA0 DUP4 ADD MSTORE SUB SWAP1 RETURN JUMPDEST CALLVALUE PUSH2 0x112 JUMPI PUSH0 CALLDATASIZE PUSH1 0x3 NOT ADD SLT PUSH2 0x112 JUMPI PUSH0 SLOAD PUSH1 0x40 MLOAD PUSH1 0x1 PUSH1 0x1 PUSH1 0xA0 SHL SUB SWAP1 SWAP2 AND DUP2 MSTORE PUSH1 0x20 SWAP1 RETURN JUMPDEST CALLVALUE PUSH2 0x112 JUMPI PUSH0 CALLDATASIZE PUSH1 0x3 NOT ADD SLT PUSH2 0x112 JUMPI PUSH2 0x33F PUSH2 0xC3C JUMP JUMPDEST PUSH0 DUP1 SLOAD PUSH1 0x1 PUSH1 0x1 PUSH1 0xA0 SHL SUB NOT DUP2 AND DUP3 SSTORE PUSH1 0x1 PUSH1 0x1 PUSH1 0xA0 SHL SUB AND PUSH32 0x8BE0079C531659141344CD1FD0A4F28419497F9722A3DAAFE3B4186F6B6457E0 DUP3 DUP1 LOG3 STOP JUMPDEST POP CALLVALUE PUSH2 0x112 JUMPI PUSH1 0x40 CALLDATASIZE PUSH1 0x3 NOT ADD SLT PUSH2 0x112 JUMPI PUSH2 0x398 PUSH2 0x94B JUMP JUMPDEST PUSH1 0x1 PUSH1 0x1 PUSH1 0xA0 SHL SUB AND PUSH0 SWAP1 DUP2 MSTORE PUSH1 0x3 PUSH1 0x20 MSTORE PUSH1 0x40 SWAP1 KECCAK256 DUP1 SLOAD PUSH1 0x24 CALLDATALOAD SWAP1 DUP2 LT ISZERO PUSH2 0x112 JUMPI PUSH2 0x3C4 SWAP2 PUSH2 0xAB7 JUMP JUMPDEST SWAP2 SWAP1 SWAP2 PUSH2 0x3EF JUMPI PUSH2 0x3EB PUSH2 0x3D7 DUP4 PUSH2 0xA15 JUMP JUMPDEST PUSH1 0x40 MLOAD SWAP2 DUP3 SWAP2 PUSH1 0x20 DUP4 MSTORE PUSH1 0x20 DUP4 ADD SWAP1 PUSH2 0x982 JUMP JUMPDEST SUB SWAP1 RETURN JUMPDEST PUSH0 SWAP1 PUSH4 0x4E487B71 PUSH1 0xE0 SHL DUP3 MSTORE MSTORE PUSH1 0x24 PUSH0 REVERT JUMPDEST POP CALLVALUE PUSH2 0x112 JUMPI PUSH1 0x80 CALLDATASIZE PUSH1 0x3 NOT ADD SLT PUSH2 0x112 JUMPI PUSH8 0xFFFFFFFFFFFFFFFF SWAP1 DUP1 CALLDATALOAD DUP3 DUP2 GT PUSH2 0x112 JUMPI PUSH2 0x433 SWAP1 CALLDATASIZE SWAP1 DUP4 ADD PUSH2 0x91D JUMP JUMPDEST PUSH1 0x44 CALLDATALOAD SWAP4 SWAP1 SWAP3 SWAP1 PUSH1 0x1 PUSH1 0x1 PUSH1 0xA0 SHL SUB DUP6 AND DUP6 SUB PUSH2 0x112 JUMPI PUSH1 0x64 CALLDATALOAD DUP1 PUSH1 0x3 SIGNEXTEND DUP1 SWAP2 SUB PUSH2 0x112 JUMPI PUSH2 0x460 PUSH2 0xC3C JUMP JUMPDEST PUSH1 0x1 PUSH1 0x40 MLOAD DUP7 DUP7 DUP3 CALLDATACOPY PUSH1 0x20 DUP2 DUP9 DUP2 ADD DUP5 DUP2 MSTORE SUB ADD SWAP1 KECCAK256 ADD SLOAD PUSH2 0x71B JUMPI PUSH1 0x40 MLOAD SWAP1 PUSH1 0xC0 DUP3 ADD DUP3 DUP2 LT DUP5 DUP3 GT OR PUSH2 0x708 JUMPI PUSH1 0x40 MSTORE PUSH2 0x49D CALLDATASIZE DUP8 DUP8 PUSH2 0xAE0 JUMP JUMPDEST DUP3 MSTORE PUSH1 0x20 DUP3 ADD SWAP1 PUSH1 0x24 CALLDATALOAD DUP3 MSTORE PUSH1 0x1 DUP1 PUSH1 0xA0 SHL SUB DUP9 AND PUSH1 0x40 DUP5 ADD MSTORE PUSH1 0x60 DUP4 ADD MSTORE PUSH1 0x1 PUSH1 0x80 DUP4 ADD MSTORE TIMESTAMP PUSH1 0xA0 DUP4 ADD MSTORE PUSH1 0x40 MLOAD DUP7 DUP7 DUP3 CALLDATACOPY PUSH1 0x20 DUP2 DUP9 DUP2 ADD PUSH1 0x1 DUP2 MSTORE SUB ADD SWAP1 KECCAK256 SWAP3 DUP3 MLOAD DUP1 MLOAD SWAP2 DUP3 GT PUSH2 0x6F5 JUMPI PUSH2 0x4FE DUP3 PUSH2 0x4F8 DUP8 SLOAD PUSH2 0x9A7 JUMP JUMPDEST DUP8 PUSH2 0xB26 JUMP JUMPDEST PUSH1 0x20 SWAP1 PUSH1 0x1F DUP4 GT PUSH1 0x1 EQ PUSH2 0x68A JUMPI DUP3 PUSH1 0x3 SWAP6 SWAP4 PUSH1 0xA0 SWAP6 SWAP4 PUSH2 0x534 SWAP4 PUSH0 SWAP3 PUSH2 0x67F JUMPI JUMPDEST POP POP DUP2 PUSH1 0x1 SHL SWAP2 PUSH0 NOT SWAP1 PUSH1 0x3 SHL SHR NOT AND OR SWAP1 JUMP JUMPDEST DUP6 SSTORE JUMPDEST MLOAD PUSH1 0x1 DUP6 ADD SSTORE PUSH1 0x2 DUP5 ADD PUSH1 0x1 DUP1 DUP5 SHL SUB PUSH1 0x40 DUP4 ADD MLOAD AND PUSH12 0xFFFFFFFFFFFFFFFFFFFFFFFF DUP5 SHL DUP3 SLOAD AND OR DUP2 SSTORE PUSH2 0x58D PUSH1 0x60 DUP4 ADD MLOAD DUP6 SIGNEXTEND DUP3 SWAP1 DUP2 SLOAD SWAP1 PUSH1 0xA0 SHL PUSH4 0xFFFFFFFF PUSH1 0xA0 SHL AND SWAP1 PUSH4 0xFFFFFFFF PUSH1 0xA0 SHL NOT AND OR SWAP1 SSTORE JUMP JUMPDEST PUSH1 0x80 DUP3 ADD MLOAD DUP2 SLOAD PUSH1 0xFF PUSH1 0xC0 SHL NOT AND SWAP1 ISZERO ISZERO PUSH1 0xC0 SHL PUSH1 0xFF PUSH1 0xC0 SHL AND OR SWAP1 SSTORE ADD MLOAD SWAP2 ADD SSTORE PUSH1 0x24 CALLDATALOAD PUSH0 SWAP1 DUP2 MSTORE PUSH1 0x2 PUSH1 0x20 MSTORE PUSH1 0x40 SWAP1 KECCAK256 PUSH2 0x5CC SWAP1 DUP5 SWAP1 DUP5 SWAP1 PUSH2 0xB75 JUMP JUMPDEST PUSH1 0x1 PUSH1 0x1 PUSH1 0xA0 SHL SUB DUP5 AND PUSH0 SWAP1 DUP2 MSTORE PUSH1 0x3 PUSH1 0x20 MSTORE PUSH1 0x40 SWAP1 KECCAK256 DUP1 SLOAD SWAP1 PUSH9 0x10000000000000000 DUP3 LT ISZERO PUSH2 0x66C JUMPI SWAP1 PUSH2 0x607 SWAP2 PUSH1 0x1 DUP3 ADD DUP2 SSTORE PUSH2 0xAB7 JUMP JUMPDEST SWAP2 SWAP1 SWAP2 PUSH2 0x3EF JUMPI POP SWAP2 DUP2 PUSH2 0x63F DUP3 PUSH1 0x40 SWAP5 PUSH32 0x2E77DA768FB560CFCDE56BABDA1604C9B3C49D3101D64B61EEAC96CC55468833 SWAP7 PUSH2 0xB75 JUMP JUMPDEST DUP2 DUP4 MLOAD SWAP3 DUP4 SWAP3 DUP4 CALLDATACOPY PUSH0 SWAP1 DUP3 ADD SWAP1 DUP2 MSTORE SUB SWAP1 KECCAK256 DUP2 MLOAD PUSH1 0x24 CALLDATALOAD DUP2 MSTORE PUSH1 0x1 PUSH1 0x1 PUSH1 0xA0 SHL SUB SWAP1 SWAP5 AND PUSH1 0x20 DUP6 ADD MSTORE SWAP3 LOG2 STOP JUMPDEST PUSH1 0x41 DUP4 PUSH4 0x4E487B71 PUSH1 0xE0 SHL PUSH0 MSTORE MSTORE PUSH1 0x24 PUSH0 REVERT JUMPDEST ADD MLOAD SWAP1 POP PUSH0 DUP1 PUSH2 0x520 JUMP JUMPDEST SWAP1 DUP6 PUSH0 MSTORE PUSH1 0x20 PUSH0 KECCAK256 SWAP2 PUSH0 JUMPDEST PUSH1 0x1F NOT DUP6 AND DUP2 LT PUSH2 0x6DD JUMPI POP SWAP3 PUSH1 0xA0 SWAP5 SWAP3 PUSH1 0x1 SWAP3 PUSH1 0x3 SWAP8 SWAP6 DUP4 PUSH1 0x1F NOT DUP2 AND LT PUSH2 0x6C6 JUMPI JUMPDEST POP POP POP DUP2 SHL ADD DUP6 SSTORE PUSH2 0x537 JUMP JUMPDEST ADD MLOAD PUSH0 NOT DUP4 DUP10 SHL PUSH1 0xF8 AND SHR NOT AND SWAP1 SSTORE PUSH0 DUP1 DUP1 PUSH2 0x6B9 JUMP JUMPDEST SWAP2 SWAP3 PUSH1 0x20 PUSH1 0x1 DUP2 SWAP3 DUP7 DUP6 ADD MLOAD DUP2 SSTORE ADD SWAP5 ADD SWAP3 ADD PUSH2 0x695 JUMP JUMPDEST PUSH1 0x41 DUP7 PUSH4 0x4E487B71 PUSH1 0xE0 SHL PUSH0 MSTORE MSTORE PUSH1 0x24 PUSH0 REVERT JUMPDEST PUSH1 0x41 DUP6 PUSH4 0x4E487B71 PUSH1 0xE0 SHL PUSH0 MSTORE MSTORE PUSH1 0x24 PUSH0 REVERT JUMPDEST PUSH1 0x40 MLOAD PUSH3 0x461BCD PUSH1 0xE5 SHL DUP2 MSTORE PUSH1 0x20 DUP2 DUP6 ADD MSTORE PUSH1 0x18 PUSH1 0x24 DUP3 ADD MSTORE PUSH32 0x4167656E7420616C726561647920726567697374657265640000000000000000 PUSH1 0x44 DUP3 ADD MSTORE PUSH1 0x64 SWAP1 REVERT JUMPDEST POP CALLVALUE PUSH2 0x112 JUMPI PUSH1 0x20 CALLDATASIZE PUSH1 0x3 NOT ADD SLT PUSH2 0x112 JUMPI CALLDATALOAD PUSH0 MSTORE PUSH1 0x2 PUSH1 0x20 MSTORE PUSH2 0x3EB PUSH2 0x3D7 PUSH1 0x40 PUSH0 KECCAK256 PUSH2 0xA15 JUMP JUMPDEST POP CALLVALUE PUSH2 0x112 JUMPI PUSH1 0x20 SWAP1 DUP2 PUSH1 0x3 NOT CALLDATASIZE ADD SLT PUSH2 0x112 JUMPI PUSH1 0x1 PUSH1 0x1 PUSH1 0xA0 SHL SUB PUSH2 0x7AC PUSH2 0x94B JUMP JUMPDEST AND PUSH0 MSTORE PUSH1 0x3 DUP3 MSTORE PUSH1 0x40 PUSH0 KECCAK256 DUP1 SLOAD SWAP2 PUSH8 0xFFFFFFFFFFFFFFFF DUP4 GT PUSH2 0x877 JUMPI POP DUP3 SWAP1 PUSH1 0x40 MLOAD SWAP3 PUSH2 0x7DF DUP4 DUP3 PUSH1 0x5 SHL ADD DUP6 PUSH2 0x9DF JUMP JUMPDEST DUP1 DUP5 MSTORE DUP3 DUP5 ADD DUP1 SWAP3 PUSH0 MSTORE DUP4 PUSH0 KECCAK256 PUSH0 SWAP2 JUMPDEST DUP4 DUP4 LT PUSH2 0x855 JUMPI POP POP POP POP PUSH1 0x40 MLOAD SWAP2 DUP1 DUP4 ADD SWAP4 DUP2 DUP5 MSTORE MLOAD DUP1 SWAP5 MSTORE PUSH1 0x40 DUP4 ADD SWAP4 PUSH1 0x40 DUP2 PUSH1 0x5 SHL DUP6 ADD ADD SWAP3 SWAP2 PUSH0 SWAP6 JUMPDEST DUP3 DUP8 LT PUSH2 0x829 JUMPI DUP6 DUP6 SUB DUP7 RETURN JUMPDEST SWAP1 SWAP2 SWAP3 SWAP4 DUP3 DUP1 PUSH2 0x845 PUSH1 0x1 SWAP4 PUSH1 0x3F NOT DUP11 DUP3 SUB ADD DUP7 MSTORE DUP9 MLOAD PUSH2 0x982 JUMP JUMPDEST SWAP7 ADD SWAP3 ADD SWAP7 ADD SWAP6 SWAP3 SWAP2 SWAP1 SWAP3 PUSH2 0x81C JUMP JUMPDEST PUSH1 0x1 DUP7 DUP2 SWAP3 PUSH2 0x866 DUP6 SWAP11 SWAP10 SWAP11 PUSH2 0xA15 JUMP JUMPDEST DUP2 MSTORE ADD SWAP3 ADD SWAP3 ADD SWAP2 SWAP1 SWAP6 SWAP5 SWAP6 PUSH2 0x7EF JUMP JUMPDEST PUSH1 0x41 SWAP1 PUSH4 0x4E487B71 PUSH1 0xE0 SHL PUSH0 MSTORE MSTORE PUSH1 0x24 PUSH0 REVERT JUMPDEST POP CALLVALUE PUSH2 0x112 JUMPI PUSH1 0x20 CALLDATASIZE PUSH1 0x3 NOT ADD SLT PUSH2 0x112 JUMPI DUP1 CALLDATALOAD SWAP1 PUSH8 0xFFFFFFFFFFFFFFFF DUP3 GT PUSH2 0x112 JUMPI PUSH2 0x8BA SWAP2 CALLDATASIZE SWAP2 ADD PUSH2 0x91D JUMP JUMPDEST SWAP1 PUSH2 0x8C3 PUSH2 0xC3C JUMP JUMPDEST PUSH1 0x2 PUSH1 0x40 MLOAD DUP4 DUP4 DUP3 CALLDATACOPY PUSH1 0x20 DUP2 DUP6 DUP2 ADD PUSH1 0x1 DUP2 MSTORE SUB ADD SWAP1 KECCAK256 ADD PUSH1 0xFF PUSH1 0xC0 SHL NOT DUP2 SLOAD AND SWAP1 SSTORE DUP2 PUSH1 0x40 MLOAD SWAP3 DUP4 SWAP3 DUP4 CALLDATACOPY DUP2 ADD PUSH0 DUP2 MSTORE SUB SWAP1 KECCAK256 PUSH32 0xEBF881B0F9E1B4A0CD64CAA43DE3B84857B09EFFA71637F5CBDD156E2331AB51 PUSH0 DUP1 LOG2 STOP JUMPDEST SWAP2 DUP2 PUSH1 0x1F DUP5 ADD SLT ISZERO PUSH2 0x112 JUMPI DUP3 CALLDATALOAD SWAP2 PUSH8 0xFFFFFFFFFFFFFFFF DUP4 GT PUSH2 0x112 JUMPI PUSH1 0x20 DUP4 DUP2 DUP7 ADD SWAP6 ADD ADD GT PUSH2 0x112 JUMPI JUMP JUMPDEST PUSH1 0x4 CALLDATALOAD SWAP1 PUSH1 0x1 PUSH1 0x1 PUSH1 0xA0 SHL SUB DUP3 AND DUP3 SUB PUSH2 0x112 JUMPI JUMP JUMPDEST PUSH0 JUMPDEST DUP4 DUP2 LT PUSH2 0x972 JUMPI POP POP PUSH0 SWAP2 ADD MSTORE JUMP JUMPDEST DUP2 DUP2 ADD MLOAD DUP4 DUP3 ADD MSTORE PUSH1 0x20 ADD PUSH2 0x963 JUMP JUMPDEST SWAP1 PUSH1 0x20 SWAP2 PUSH2 0x99B DUP2 MLOAD DUP1 SWAP3 DUP2 DUP6 MSTORE DUP6 DUP1 DUP7 ADD SWAP2 ADD PUSH2 0x961 JUMP JUMPDEST PUSH1 0x1F ADD PUSH1 0x1F NOT AND ADD ADD SWAP1 JUMP JUMPDEST SWAP1 PUSH1 0x1 DUP3 DUP2 SHR SWAP3 AND DUP1 ISZERO PUSH2 0x9D5 JUMPI JUMPDEST PUSH1 0x20 DUP4 LT EQ PUSH2 0x9C1 JUMPI JUMP JUMPDEST PUSH4 0x4E487B71 PUSH1 0xE0 SHL PUSH0 MSTORE PUSH1 0x22 PUSH1 0x4 MSTORE PUSH1 0x24 PUSH0 REVERT JUMPDEST SWAP2 PUSH1 0x7F AND SWAP2 PUSH2 0x9B6 JUMP JUMPDEST SWAP1 PUSH1 0x1F DUP1 NOT SWAP2 ADD AND DUP2 ADD SWAP1 DUP2 LT PUSH8 0xFFFFFFFFFFFFFFFF DUP3 GT OR PUSH2 0xA01 JUMPI PUSH1 0x40 MSTORE JUMP JUMPDEST PUSH4 0x4E487B71 PUSH1 0xE0 SHL PUSH0 MSTORE PUSH1 0x41 PUSH1 0x4 MSTORE PUSH1 0x24 PUSH0 REVERT JUMPDEST SWAP1 PUSH1 0x40 MLOAD SWAP2 DUP3 PUSH0 DUP3 SLOAD PUSH2 0xA27 DUP2 PUSH2 0x9A7 JUMP JUMPDEST SWAP1 DUP2 DUP5 MSTORE PUSH1 0x20 SWAP5 PUSH1 0x1 SWAP2 PUSH1 0x1 DUP2 AND SWAP1 DUP2 PUSH0 EQ PUSH2 0xA95 JUMPI POP PUSH1 0x1 EQ PUSH2 0xA57 JUMPI JUMPDEST POP POP POP PUSH2 0xA55 SWAP3 POP SUB DUP4 PUSH2 0x9DF JUMP JUMPDEST JUMP JUMPDEST PUSH0 SWAP1 DUP2 MSTORE DUP6 DUP2 KECCAK256 SWAP6 SWAP4 POP SWAP2 SWAP1 JUMPDEST DUP2 DUP4 LT PUSH2 0xA7D JUMPI POP POP PUSH2 0xA55 SWAP4 POP DUP3 ADD ADD PUSH0 DUP1 DUP1 PUSH2 0xA46 JUMP JUMPDEST DUP6 SLOAD DUP9 DUP5 ADD DUP6 ADD MSTORE SWAP5 DUP6 ADD SWAP5 DUP8 SWAP5 POP SWAP2 DUP4 ADD SWAP2 PUSH2 0xA64 JUMP JUMPDEST SWAP3 POP POP POP PUSH2 0xA55 SWAP5 SWAP3 POP PUSH1 0xFF NOT AND DUP3 DUP5 ADD MSTORE ISZERO ISZERO PUSH1 0x5 SHL DUP3 ADD ADD PUSH0 DUP1 DUP1 PUSH2 0xA46 JUMP JUMPDEST DUP1 SLOAD DUP3 LT ISZERO PUSH2 0xACC JUMPI PUSH0 MSTORE PUSH1 0x20 PUSH0 KECCAK256 ADD SWAP1 PUSH0 SWAP1 JUMP JUMPDEST PUSH4 0x4E487B71 PUSH1 0xE0 SHL PUSH0 MSTORE PUSH1 0x32 PUSH1 0x4 MSTORE PUSH1 0x24 PUSH0 REVERT JUMPDEST SWAP3 SWAP2 SWAP3 PUSH8 0xFFFFFFFFFFFFFFFF DUP3 GT PUSH2 0xA01 JUMPI PUSH1 0x40 MLOAD SWAP2 PUSH2 0xB0A PUSH1 0x1F DUP3 ADD PUSH1 0x1F NOT AND PUSH1 0x20 ADD DUP5 PUSH2 0x9DF JUMP JUMPDEST DUP3 SWAP5 DUP2 DUP5 MSTORE DUP2 DUP4 ADD GT PUSH2 0x112 JUMPI DUP3 DUP2 PUSH1 0x20 SWAP4 DUP5 PUSH0 SWAP7 ADD CALLDATACOPY ADD ADD MSTORE JUMP JUMPDEST PUSH1 0x1F DUP3 GT PUSH2 0xB33 JUMPI POP POP POP JUMP JUMPDEST PUSH0 MSTORE PUSH1 0x20 PUSH0 KECCAK256 SWAP1 PUSH1 0x20 PUSH1 0x1F DUP5 ADD PUSH1 0x5 SHR DUP4 ADD SWAP4 LT PUSH2 0xB6B JUMPI JUMPDEST PUSH1 0x1F ADD PUSH1 0x5 SHR ADD SWAP1 JUMPDEST DUP2 DUP2 LT PUSH2 0xB60 JUMPI POP POP JUMP JUMPDEST PUSH0 DUP2 SSTORE PUSH1 0x1 ADD PUSH2 0xB55 JUMP JUMPDEST SWAP1 SWAP2 POP DUP2 SWAP1 PUSH2 0xB4C JUMP JUMPDEST SWAP1 SWAP3 SWAP2 PUSH8 0xFFFFFFFFFFFFFFFF DUP2 GT PUSH2 0xA01 JUMPI PUSH2 0xB9B DUP2 PUSH2 0xB95 DUP5 SLOAD PUSH2 0x9A7 JUMP JUMPDEST DUP5 PUSH2 0xB26 JUMP JUMPDEST PUSH0 PUSH1 0x1F DUP3 GT PUSH1 0x1 EQ PUSH2 0xBD8 JUMPI DUP2 SWAP1 PUSH2 0xBC9 SWAP4 SWAP5 SWAP6 PUSH0 SWAP3 PUSH2 0xBCD JUMPI POP POP DUP2 PUSH1 0x1 SHL SWAP2 PUSH0 NOT SWAP1 PUSH1 0x3 SHL SHR NOT AND OR SWAP1 JUMP JUMPDEST SWAP1 SSTORE JUMP JUMPDEST ADD CALLDATALOAD SWAP1 POP PUSH0 DUP1 PUSH2 0x520 JUMP JUMPDEST PUSH1 0x1F NOT DUP3 AND SWAP5 DUP4 PUSH0 MSTORE PUSH1 0x20 SWAP2 PUSH1 0x20 PUSH0 KECCAK256 SWAP3 PUSH0 SWAP1 JUMPDEST DUP9 DUP3 LT PUSH2 0xC24 JUMPI POP POP DUP4 PUSH1 0x1 SWAP6 SWAP7 SWAP8 LT PUSH2 0xC0B JUMPI JUMPDEST POP POP POP DUP2 SHL ADD SWAP1 SSTORE JUMP JUMPDEST ADD CALLDATALOAD PUSH0 NOT PUSH1 0x3 DUP5 SWAP1 SHL PUSH1 0xF8 AND SHR NOT AND SWAP1 SSTORE PUSH0 DUP1 DUP1 PUSH2 0xC01 JUMP JUMPDEST DUP1 PUSH1 0x1 DUP5 SWAP7 DUP3 SWAP5 SWAP6 DUP8 ADD CALLDATALOAD DUP2 SSTORE ADD SWAP6 ADD SWAP3 ADD SWAP1 PUSH2 0xBEC JUMP JUMPDEST PUSH0 SLOAD PUSH1 0x1 PUSH1 0x1 PUSH1 0xA0 SHL SUB AND CALLER SUB PUSH2 0xC4F JUMPI JUMP JUMPDEST PUSH1 0x40 MLOAD PUSH4 0x118CDAA7 PUSH1 0xE0 SHL DUP2 MSTORE CALLER PUSH1 0x4 DUP3 ADD MSTORE PUSH1 0x24 SWAP1 REVERT INVALID LOG2 PUSH5 0x6970667358 0x22 SLT KECCAK256 0xC1 0xED JUMP PUSH1 0xBD 0x2F DUP16 DIV 0xC8 MSTORE 0xC4 SWAP8 0xB5 PUSH19 0x61B9E5EEA1D70A9B6202A7B35071C01EDECA64 PUSH20 0x6F6C634300081800330000000000000000000000 "},"methodIdentifiers":{"agents(string)":"cf6ee0cb","deactivateAgent(string)":"18697b75","getAgentsByOwner(address)":"1ab6f888","owner()":"8da5cb5b","ownerAgents(address,uint256)":"62febe4f","registerAgent(string,uint256,address,int32)":"56a1acb7","renounceOwnership()":"715018a6","tokenIdToAgentId(uint256)":"4449ee09","transferOwnership(address)":"f2fde38b","updateElo(string,int32)":"d8413008"}}}}}