{"contracts/ArenaDepositVault.sol":{"ArenaDepositVault":{"abi":[{"inputs":[{"internalType":"address","name":"_usdc","type":"address"},{"internalType":"address","name":"_usdt","type":"address"},{"internalType":"address","name":"_feeCollector","type":"address"},{"internalType":"address","name":"_owner","type":"address"}],"stateMutability":"nonpayable","type":"constructor"},{"inputs":[],"name":"EnforcedPause","type":"error"},{"inputs":[],"name":"ExpectedPause","type":"error"},{"inputs":[{"internalType":"address","name":"owner","type":"address"}],"name":"OwnableInvalidOwner","type":"error"},{"inputs":[{"internalType":"address","name":"account","type":"address"}],"name":"OwnableUnauthorizedAccount","type":"error"},{"inputs":[],"name":"ReentrancyGuardReentrantCall","type":"error"},{"inputs":[{"internalType":"address","name":"token","type":"address"}],"name":"SafeERC20FailedOperation","type":"error"},{"anonymous":false,"inputs":[{"indexed":false,"internalType":"uint256","name":"newCap","type":"uint256"}],"name":"DailyCapUpdated","type":"event"},{"anonymous":false,"inputs":[{"indexed":true,"internalType":"uint256","name":"depositId","type":"uint256"},{"indexed":true,"internalType":"address","name":"depositor","type":"address"},{"indexed":true,"internalType":"bytes32","name":"solanaRecipient","type":"bytes32"},{"indexed":false,"internalType":"uint8","name":"asset","type":"uint8"},{"indexed":false,"internalType":"uint256","name":"amount","type":"uint256"},{"indexed":false,"internalType":"uint256","name":"fee","type":"uint256"},{"indexed":false,"internalType":"uint256","name":"chain","type":"uint256"}],"name":"DepositQueued","type":"event"},{"anonymous":false,"inputs":[{"indexed":false,"internalType":"uint256","name":"newFeeBps","type":"uint256"}],"name":"FeeUpdated","type":"event"},{"anonymous":false,"inputs":[{"indexed":false,"internalType":"uint256","name":"min","type":"uint256"},{"indexed":false,"internalType":"uint256","name":"max","type":"uint256"}],"name":"MinMaxNativeUpdated","type":"event"},{"anonymous":false,"inputs":[{"indexed":false,"internalType":"uint256","name":"min","type":"uint256"},{"indexed":false,"internalType":"uint256","name":"max","type":"uint256"}],"name":"MinMaxStableUpdated","type":"event"},{"anonymous":false,"inputs":[{"indexed":true,"internalType":"address","name":"sender","type":"address"},{"indexed":false,"internalType":"uint256","name":"amount","type":"uint256"}],"name":"NativeReceived","type":"event"},{"anonymous":false,"inputs":[{"indexed":true,"internalType":"address","name":"previousOwner","type":"address"},{"indexed":true,"internalType":"address","name":"newOwner","type":"address"}],"name":"OwnershipTransferStarted","type":"event"},{"anonymous":false,"inputs":[{"indexed":true,"internalType":"address","name":"previousOwner","type":"address"},{"indexed":true,"internalType":"address","name":"newOwner","type":"address"}],"name":"OwnershipTransferred","type":"event"},{"anonymous":false,"inputs":[{"indexed":false,"internalType":"address","name":"account","type":"address"}],"name":"Paused","type":"event"},{"anonymous":false,"inputs":[{"indexed":true,"internalType":"address","name":"recipient","type":"address"},{"indexed":false,"internalType":"uint256","name":"usdcAmount","type":"uint256"},{"indexed":false,"internalType":"bytes32","name":"solanaProof","type":"bytes32"}],"name":"RedemptionProcessed","type":"event"},{"anonymous":false,"inputs":[{"indexed":false,"internalType":"address","name":"account","type":"address"}],"name":"Unpaused","type":"event"},{"inputs":[],"name":"acceptOwnership","outputs":[],"stateMutability":"nonpayable","type":"function"},{"inputs":[],"name":"dailyCapPerUser","outputs":[{"internalType":"uint256","name":"","type":"uint256"}],"stateMutability":"view","type":"function"},{"inputs":[],"name":"depositFeeBps","outputs":[{"internalType":"uint256","name":"","type":"uint256"}],"stateMutability":"view","type":"function"},{"inputs":[{"internalType":"bytes32","name":"solanaRecipient","type":"bytes32"}],"name":"depositNative","outputs":[],"stateMutability":"payable","type":"function"},{"inputs":[],"name":"depositNonce","outputs":[{"internalType":"uint256","name":"","type":"uint256"}],"stateMutability":"view","type":"function"},{"inputs":[{"internalType":"uint256","name":"amount","type":"uint256"},{"internalType":"bytes32","name":"solanaRecipient","type":"bytes32"}],"name":"depositUSDC","outputs":[],"stateMutability":"nonpayable","type":"function"},{"inputs":[{"internalType":"uint256","name":"amount","type":"uint256"},{"internalType":"bytes32","name":"solanaRecipient","type":"bytes32"}],"name":"depositUSDT","outputs":[],"stateMutability":"nonpayable","type":"function"},{"inputs":[{"internalType":"address payable","name":"to","type":"address"}],"name":"emergencyWithdraw","outputs":[],"stateMutability":"nonpayable","type":"function"},{"inputs":[],"name":"feeCollector","outputs":[{"internalType":"address","name":"","type":"address"}],"stateMutability":"view","type":"function"},{"inputs":[],"name":"maxDepositNative","outputs":[{"internalType":"uint256","name":"","type":"uint256"}],"stateMutability":"view","type":"function"},{"inputs":[],"name":"maxDepositStable","outputs":[{"internalType":"uint256","name":"","type":"uint256"}],"stateMutability":"view","type":"function"},{"inputs":[],"name":"minDepositNative","outputs":[{"internalType":"uint256","name":"","type":"uint256"}],"stateMutability":"view","type":"function"},{"inputs":[],"name":"minDepositStable","outputs":[{"internalType":"uint256","name":"","type":"uint256"}],"stateMutability":"view","type":"function"},{"inputs":[],"name":"owner","outputs":[{"internalType":"address","name":"","type":"address"}],"stateMutability":"view","type":"function"},{"inputs":[],"name":"pause","outputs":[],"stateMutability":"nonpayable","type":"function"},{"inputs":[],"name":"paused","outputs":[{"internalType":"bool","name":"","type":"bool"}],"stateMutability":"view","type":"function"},{"inputs":[],"name":"pendingOwner","outputs":[{"internalType":"address","name":"","type":"address"}],"stateMutability":"view","type":"function"},{"inputs":[{"internalType":"address","name":"recipient","type":"address"},{"internalType":"uint256","name":"usdcAmount","type":"uint256"},{"internalType":"bytes32","name":"solanaProof","type":"bytes32"}],"name":"processRedemption","outputs":[],"stateMutability":"nonpayable","type":"function"},{"inputs":[],"name":"renounceOwnership","outputs":[],"stateMutability":"nonpayable","type":"function"},{"inputs":[{"internalType":"uint256","name":"_cap","type":"uint256"}],"name":"setDailyCap","outputs":[],"stateMutability":"nonpayable","type":"function"},{"inputs":[{"internalType":"uint256","name":"_feeBps","type":"uint256"}],"name":"setDepositFee","outputs":[],"stateMutability":"nonpayable","type":"function"},{"inputs":[{"internalType":"uint256","name":"_min","type":"uint256"},{"internalType":"uint256","name":"_max","type":"uint256"}],"name":"setDepositLimitsNative","outputs":[],"stateMutability":"nonpayable","type":"function"},{"inputs":[{"internalType":"uint256","name":"_min","type":"uint256"},{"internalType":"uint256","name":"_max","type":"uint256"}],"name":"setDepositLimitsStable","outputs":[],"stateMutability":"nonpayable","type":"function"},{"inputs":[{"internalType":"address","name":"_collector","type":"address"}],"name":"setFeeCollector","outputs":[],"stateMutability":"nonpayable","type":"function"},{"inputs":[{"internalType":"address","name":"newOwner","type":"address"}],"name":"transferOwnership","outputs":[],"stateMutability":"nonpayable","type":"function"},{"inputs":[],"name":"unpause","outputs":[],"stateMutability":"nonpayable","type":"function"},{"inputs":[],"name":"usdc","outputs":[{"internalType":"contract IERC20","name":"","type":"address"}],"stateMutability":"view","type":"function"},{"inputs":[],"name":"usdt","outputs":[{"internalType":"contract IERC20","name":"","type":"address"}],"stateMutability":"view","type":"function"},{"inputs":[{"internalType":"address","name":"","type":"address"}],"name":"userDailyDeposited","outputs":[{"internalType":"uint256","name":"","type":"uint256"}],"stateMutability":"view","type":"function"},{"inputs":[{"internalType":"address","name":"","type":"address"}],"name":"userLastDepositDay","outputs":[{"internalType":"uint256","name":"","type":"uint256"}],"stateMutability":"view","type":"function"},{"inputs":[],"name":"vaultBalance","outputs":[{"internalType":"uint256","name":"usdcBal","type":"uint256"},{"internalType":"uint256","name":"usdtBal","type":"uint256"},{"internalType":"uint256","name":"nativeBal","type":"uint256"}],"stateMutability":"view","type":"function"},{"stateMutability":"payable","type":"receive"}],"evm":{"bytecode":{"linkReferences":{},"object":"60c034620001e957601f6200188e38819003918201601f19168301916001600160401b03831184841017620001ed57808492608094604052833981010312620001e9576200004d8162000201565b9060606200005e6020830162000201565b6200006c6040840162000201565b926001600160a01b0392839162000084910162000201565b16938415620001d1578260018060a01b03199485600154166001555f549680878916175f558260405198167f8be0079c531659141344cd1fd0a4f28419497f9722a3daafe3b4186f6b6457e05f80a360017f9b779b17422d0df92223018b32b4d1fa46e071723d6817e2486d003becc55f00556298968060035564174876e80060045567016345785d8a0000600555683635c9adc5dea000006006556402540be4006007555f600855169485156200019b575082166080521660a0526002541617600255604051611677908162000217823960805181818161023d01528181610a8601528181610c8c015281816110b1015261117c015260a05181818161060b01528181610ab40152818161111201526111d20152f35b62461bcd60e51b81526020600482015260116024820152703d32b937903332b2a1b7b63632b1ba37b960791b6044820152606490fd5b604051631e4fbdf760e01b81525f6004820152602490fd5b5f80fd5b634e487b7160e01b5f52604160045260245ffd5b51906001600160a01b0382168203620001e95756fe604060808152600480361015610052575b361561001a575f80fd5b6020606492519162461bcd60e51b83528201526013602482015272757365206465706f7369744e6174697665282960681b6044820152fd5b5f3560e01c80630840a44a146112c65780630bf6cc081461115f578063214e68da146111415780632f48ab7d146110fe57806332e714a6146110e05780633e413bee1461109d5780633f4ba83a1461102d57806342ef5fbb14610ee3578063490ae21014610e5f5780635c975abb14610e395780636ab0142f14610c3a5780636ff1c9bc14610a49578063715018a6146109e65780637433cc68146109c857806379ba509714610943578063823a9148146108e95780638456cb591461088a57806385b42274146108535780638da5cb5b1461082c578063939c9a1c146107f5578063958ac210146105e6578063a42dce801461059a578063ab8798271461057c578063ba06d4de1461055f578063c415b95c14610537578063cbc14e62146104de578063d421b946146104c0578063de35f5cb146104a2578063e30c39781461047a578063e96ba32e146102185763f2fde38b036100105734610214576020366003190112610214576101c4611312565b6101cc611524565b60018060a01b0380911690816001600160601b0360a01b60015416176001555f54167f38d16b8cac22d99fc7c124b9cd0de2d3fa1faef420bfe791d8c362d765e227005f80a3005b5f80fd5b5090346102145761022836611328565b92909161023361154f565b61023b611570565b7f00000000000000000000000000000000000000000000000000000000000000006001600160a01b03818116929183156104375761027a871515611374565b6102886003548710156113c0565b61029585548711156113fc565b62015180420495335f52602096600b885280855f205410610420575b50600a87526102c381855f2054611614565b600754106103e857335f52600a8752835f206102e0828254611614565b90556127106102f160085483611438565b04946102fd868361145f565b968551926323b872dd60e01b5f5233825230602452604452885f60648180885af160015f51148116156103c9575b8387525f606052156103b6575050508390816103a0575b5050506103506009546114ab565b92836009558151945f86528501528301524660608301527f3b9519b1da3a95994e49a772a2bf503a01a56287d69bfbef7ccbff3a1d3b2fbb60803393a460015f8051602061162283398151915255005b6103ae92600254169061159f565b5f8281610342565b635274afe760e01b835282015260249150fd5b60018115166103df57843b15153d15161661032b565b833d5f823e3d90fd5b835162461bcd60e51b8152808701889052601260248201527119185a5b1e4818d85c08195e18d95959195960721b6044820152606490fd5b600a88525f85812055600b8852845f20555f6102b1565b825162461bcd60e51b8152602081870152601e60248201527f55534443206e6f7420656e61626c6564206f6e207468697320636861696e00006044820152606490fd5b8234610214575f3660031901126102145760015490516001600160a01b039091168152602090f35b8234610214575f366003190112610214576020906009549051908152f35b8234610214575f366003190112610214576020906006549051908152f35b8234610214577ffda73c1b346048697f82d08524ee25332eafef74cc364be738fc7c06a82a901c9061050f36611328565b610517611524565b6105228183106114eb565b816005558060065582519182526020820152a1005b8234610214575f3660031901126102145760025490516001600160a01b039091168152602090f35b509034610214575f36600319011261021457602091549051908152f35b8234610214575f366003190112610214576020906008549051908152f35b34610214576020366003190112610214576105b3611312565b6105bb611524565b6001600160a01b03166105cf8115156114b9565b6001600160601b0360a01b60025416176002555f80f35b509034610214576105f636611328565b92909161060161154f565b610609611570565b7f00000000000000000000000000000000000000000000000000000000000000006001600160a01b03818116929183156107b257610648871515611374565b6106566003548710156113c0565b61066385548711156113fc565b62015180420495335f52602096600b885280855f20541061079b575b50600a875261069181855f2054611614565b600754106103e857335f52600a8752835f206106ae828254611614565b90556127106106bf60085483611438565b04946106cb868361145f565b968551926323b872dd60e01b5f5233825230602452604452885f60648180885af160015f5114811615610785575b8387525f606052156103b65750505083908161076f575b50505061071e6009546114ab565b9283600955815194600186528501528301524660608301527f3b9519b1da3a95994e49a772a2bf503a01a56287d69bfbef7ccbff3a1d3b2fbb60803393a460015f8051602061162283398151915255005b61077d92600254169061159f565b5f8281610710565b60018115166103df57843b15153d1516166106f9565b600a88525f85812055600b8852845f20555f61067f565b825162461bcd60e51b8152602081870152601e60248201527f55534454206e6f7420656e61626c6564206f6e207468697320636861696e00006044820152606490fd5b8234610214576020366003190112610214576020906001600160a01b0361081a611312565b165f52600b8252805f20549051908152f35b8234610214575f366003190112610214575f5490516001600160a01b039091168152602090f35b8234610214576020366003190112610214576020906001600160a01b03610878611312565b165f52600a8252805f20549051908152f35b8234610214575f3660031901126102145760207f62e78cea01bee320cd4e420270b5ea74000d11b0c9f74754ebdbfc544b05a258916108c7611524565b6108cf61154f565b6001805460ff60a01b1916600160a01b17905551338152a1005b509034610214577fcf2fd7f333b5ec2a4819c2d2c47d9c38db7c1951e6b79ee704e26db2817946149161091b36611328565b809192610926611524565b6109318285106114eb565b836003555582519182526020820152a1005b509034610214575f36600319011261021457600154916001600160a01b039133838516036109b15750506001600160601b0360a01b8092166001555f549133908316175f553391167f8be0079c531659141344cd1fd0a4f28419497f9722a3daafe3b4186f6b6457e05f80a3005b60249250519063118cdaa760e01b82523390820152fd5b8234610214575f366003190112610214576020906005549051908152f35b34610214575f366003190112610214576109fe611524565b600180546001600160a01b03199081169091555f80549182168155906001600160a01b03167f8be0079c531659141344cd1fd0a4f28419497f9722a3daafe3b4186f6b6457e08280a3005b5034610214576020806003193601126102145781356001600160a01b038181169182900361021457610a79611524565b610a848215156114b9565b7f00000000000000000000000000000000000000000000000000000000000000008181168481610bba575b5050507f00000000000000000000000000000000000000000000000000000000000000009081168381610b3a575b505050479081610ae957005b5f80809381935af1610af961146c565b5015610b0157005b606492519162461bcd60e51b835282015260166024820152751b985d1a5d99481dda5d1a191c985dc819985a5b195960521b6044820152fd5b86516370a0823160e01b8152308782015291829060249082905afa908115610bb0575f91610b83575b508281610b72575b5083610add565b610b7b9261159f565b5f8082610b6b565b90508381813d8311610ba9575b610b9a818361133e565b8101031261021457515f610b63565b503d610b90565b86513d5f823e3d90fd5b87516370a0823160e01b8152308882015291829060249082905afa908115610c30575f91610c03575b508381610bf2575b5084610aaf565b610bfb9261159f565b5f8083610beb565b90508481813d8311610c29575b610c1a818361133e565b8101031261021457515f610be3565b503d610c10565b87513d5f823e3d90fd5b503461021457606036600319011261021457610c54611312565b916024803590610c62611524565b610c6a611570565b610c7261154f565b6001600160a01b03858116948515610e06578315610dd6577f0000000000000000000000000000000000000000000000000000000000000000918216928315610da157855180946370a0823160e01b82523084830152818360209788935afa908115610c30579086915f91610d70575b5010610d37575050827fb3f043b0b64c8222638eb2486ef62c8447fde172ce3ad8de2afc6fc2d08317da9596610d179261159f565b825191825260443590820152a260015f8051602061162283398151915255005b855162461bcd60e51b815291820184905260149082015273696e73756666696369656e742062616c616e636560601b6044820152606490fd5b809250868092503d8311610d9a575b610d89818361133e565b81010312610214578590515f610ce2565b503d610d7f565b906010606492602088519362461bcd60e51b85528401528201526f1554d110c81b9bdd08195b98589b195960821b6044820152fd5b606490600b84602088519362461bcd60e51b85528401528201526a1e995c9bc8185b5bdd5b9d60aa1b6044820152fd5b606490600e84602088519362461bcd60e51b85528401528201526d1e995c9bc81c9958da5c1a595b9d60921b6044820152fd5b8234610214575f3660031901126102145760209060ff60015460a01c1690519015158152f35b503461021457602036600319011261021457803590610e7c611524565b6101f48211610eb5577f8c4d35e54a3f2ef1134138fd8ea3daee6a3c89e10d2665996babdf70261e2c76602083858160085551908152a1005b606490602084519162461bcd60e51b83528201526008602482015267666565203e20352560c01b6044820152fd5b50602036600319011261021457803590610efb61154f565b610f03611570565b610f0e821515611374565b610f1c6005543410156113c0565b610f2a6006543411156113fc565b612710610f3960085434611438565b04610f44813461145f565b9181610fd5575b50610f576009546114ab565b9081600955845192600284526020840152848301524660608301527f3b9519b1da3a95994e49a772a2bf503a01a56287d69bfbef7ccbff3a1d3b2fbb60803393a4513481527f8ac633e5b094e1150d2a6495df4d0c77f51d293abe99e7733c78870dfbee766060203392a260015f8051602061162283398151915255005b5f8080808560018060a01b03600254165af1610fef61146c565b50610f4b57606490602086519162461bcd60e51b83528201526013602482015272199959481d1c985b9cd9995c8819985a5b1959606a1b6044820152fd5b509034610214575f36600319011261021457611047611524565b6001549160ff8360a01c161561108f5760ff60a01b19831660015581513381527f5db9ee0a495bf2e6ff9c91a7834c1ba4fdd244a5e8aa4e537bd38aeae4b073aa90602090a1005b9051638dfc202b60e01b8152fd5b8234610214575f36600319011261021457517f00000000000000000000000000000000000000000000000000000000000000006001600160a01b03168152602090f35b8234610214575f366003190112610214576020906007549051908152f35b8234610214575f36600319011261021457517f00000000000000000000000000000000000000000000000000000000000000006001600160a01b03168152602090f35b8234610214575f366003190112610214576020906003549051908152f35b509034610214575f366003190112610214576001600160a01b03907f0000000000000000000000000000000000000000000000000000000000000000821680156112be5760206024918351928380926370a0823160e01b825230898301525afa9081156112b4575f91611282575b50915b7f0000000000000000000000000000000000000000000000000000000000000000169283156112765760209060248351809681936370a0823160e01b835230908301525afa801561126c575f90611239575b60609350905b479181519384526020840152820152f35b506020833d602011611264575b816112536020938361133e565b810103126102145760609251611222565b3d9150611246565b50513d5f823e3d90fd5b50606092505f90611228565b90506020813d6020116112ac575b8161129d6020938361133e565b8101031261021457515f6111cd565b3d9150611290565b82513d5f823e3d90fd5b505f916111d0565b5034610214576020366003190112610214577f8925eb7e33342c248e8380fb70e3f497217013b0fd9bfca496b50b77bc90a01f916020913590611307611524565b8160075551908152a1005b600435906001600160a01b038216820361021457565b6040906003190112610214576004359060243590565b90601f8019910116810190811067ffffffffffffffff82111761136057604052565b634e487b7160e01b5f52604160045260245ffd5b1561137b57565b60405162461bcd60e51b815260206004820152601860248201527f696e76616c696420736f6c616e6120726563697069656e7400000000000000006044820152606490fd5b156113c757565b60405162461bcd60e51b815260206004820152600d60248201526c62656c6f77206d696e696d756d60981b6044820152606490fd5b1561140357565b60405162461bcd60e51b815260206004820152600d60248201526c61626f7665206d6178696d756d60981b6044820152606490fd5b8181029291811591840414171561144b57565b634e487b7160e01b5f52601160045260245ffd5b9190820391821161144b57565b3d156114a6573d9067ffffffffffffffff8211611360576040519161149b601f8201601f19166020018461133e565b82523d5f602084013e565b606090565b5f19811461144b5760010190565b156114c057565b606460405162461bcd60e51b81526020600482015260046024820152637a65726f60e01b6044820152fd5b156114f257565b60405162461bcd60e51b815260206004820152600a6024820152690dad2dc407c7a40dac2f60b31b6044820152606490fd5b5f546001600160a01b0316330361153757565b60405163118cdaa760e01b8152336004820152602490fd5b60ff60015460a01c1661155e57565b60405163d93c066560e01b8152600490fd5b5f80516020611622833981519152600281541461158d5760029055565b604051633ee5aeb560e01b8152600490fd5b60405163a9059cbb60e01b5f9081526001600160a01b039384166004526024949094529260209060448180855af160015f51148116156115fe575b83604052156115e857505050565b635274afe760e01b835216600482015260249150fd5b60018115166103df57813b15153d1516166115da565b9190820180921161144b5756fe9b779b17422d0df92223018b32b4d1fa46e071723d6817e2486d003becc55f00a2646970667358221220003295b99174c07e19fad233eafdf4047a72dced5fa96866d00f0657352e521964736f6c63430008180033","opcodes":"PUSH1 0xC0 CALLVALUE PUSH3 0x1E9 JUMPI PUSH1 0x1F PUSH3 0x188E CODESIZE DUP2 SWAP1 SUB SWAP2 DUP3 ADD PUSH1 0x1F NOT AND DUP4 ADD SWAP2 PUSH1 0x1 PUSH1 0x1 PUSH1 0x40 SHL SUB DUP4 GT DUP5 DUP5 LT OR PUSH3 0x1ED JUMPI DUP1 DUP5 SWAP3 PUSH1 0x80 SWAP5 PUSH1 0x40 MSTORE DUP4 CODECOPY DUP2 ADD SUB SLT PUSH3 0x1E9 JUMPI PUSH3 0x4D DUP2 PUSH3 0x201 JUMP JUMPDEST SWAP1 PUSH1 0x60 PUSH3 0x5E PUSH1 0x20 DUP4 ADD PUSH3 0x201 JUMP JUMPDEST PUSH3 0x6C PUSH1 0x40 DUP5 ADD PUSH3 0x201 JUMP JUMPDEST SWAP3 PUSH1 0x1 PUSH1 0x1 PUSH1 0xA0 SHL SUB SWAP3 DUP4 SWAP2 PUSH3 0x84 SWAP2 ADD PUSH3 0x201 JUMP JUMPDEST AND SWAP4 DUP5 ISZERO PUSH3 0x1D1 JUMPI DUP3 PUSH1 0x1 DUP1 PUSH1 0xA0 SHL SUB NOT SWAP5 DUP6 PUSH1 0x1 SLOAD AND PUSH1 0x1 SSTORE PUSH0 SLOAD SWAP7 DUP1 DUP8 DUP10 AND OR PUSH0 SSTORE DUP3 PUSH1 0x40 MLOAD SWAP9 AND PUSH32 0x8BE0079C531659141344CD1FD0A4F28419497F9722A3DAAFE3B4186F6B6457E0 PUSH0 DUP1 LOG3 PUSH1 0x1 PUSH32 0x9B779B17422D0DF92223018B32B4D1FA46E071723D6817E2486D003BECC55F00 SSTORE PUSH3 0x989680 PUSH1 0x3 SSTORE PUSH5 0x174876E800 PUSH1 0x4 SSTORE PUSH8 0x16345785D8A0000 PUSH1 0x5 SSTORE PUSH9 0x3635C9ADC5DEA00000 PUSH1 0x6 SSTORE PUSH5 0x2540BE400 PUSH1 0x7 SSTORE PUSH0 PUSH1 0x8 SSTORE AND SWAP5 DUP6 ISZERO PUSH3 0x19B JUMPI POP DUP3 AND PUSH1 0x80 MSTORE AND PUSH1 0xA0 MSTORE PUSH1 0x2 SLOAD AND OR PUSH1 0x2 SSTORE PUSH1 0x40 MLOAD PUSH2 0x1677 SWAP1 DUP2 PUSH3 0x217 DUP3 CODECOPY PUSH1 0x80 MLOAD DUP2 DUP2 DUP2 PUSH2 0x23D ADD MSTORE DUP2 DUP2 PUSH2 0xA86 ADD MSTORE DUP2 DUP2 PUSH2 0xC8C ADD MSTORE DUP2 DUP2 PUSH2 0x10B1 ADD MSTORE PUSH2 0x117C ADD MSTORE PUSH1 0xA0 MLOAD DUP2 DUP2 DUP2 PUSH2 0x60B ADD MSTORE DUP2 DUP2 PUSH2 0xAB4 ADD MSTORE DUP2 DUP2 PUSH2 0x1112 ADD MSTORE PUSH2 0x11D2 ADD MSTORE RETURN JUMPDEST PUSH3 0x461BCD PUSH1 0xE5 SHL DUP2 MSTORE PUSH1 0x20 PUSH1 0x4 DUP3 ADD MSTORE PUSH1 0x11 PUSH1 0x24 DUP3 ADD MSTORE PUSH17 0x3D32B937903332B2A1B7B63632B1BA37B9 PUSH1 0x79 SHL PUSH1 0x44 DUP3 ADD MSTORE PUSH1 0x64 SWAP1 REVERT JUMPDEST PUSH1 0x40 MLOAD PUSH4 0x1E4FBDF7 PUSH1 0xE0 SHL DUP2 MSTORE PUSH0 PUSH1 0x4 DUP3 ADD MSTORE PUSH1 0x24 SWAP1 REVERT JUMPDEST PUSH0 DUP1 REVERT JUMPDEST PUSH4 0x4E487B71 PUSH1 0xE0 SHL PUSH0 MSTORE PUSH1 0x41 PUSH1 0x4 MSTORE PUSH1 0x24 PUSH0 REVERT JUMPDEST MLOAD SWAP1 PUSH1 0x1 PUSH1 0x1 PUSH1 0xA0 SHL SUB DUP3 AND DUP3 SUB PUSH3 0x1E9 JUMPI JUMP INVALID PUSH1 0x40 PUSH1 0x80 DUP2 MSTORE PUSH1 0x4 DUP1 CALLDATASIZE LT ISZERO PUSH2 0x52 JUMPI JUMPDEST CALLDATASIZE ISZERO PUSH2 0x1A JUMPI PUSH0 DUP1 REVERT JUMPDEST PUSH1 0x20 PUSH1 0x64 SWAP3 MLOAD SWAP2 PUSH3 0x461BCD PUSH1 0xE5 SHL DUP4 MSTORE DUP3 ADD MSTORE PUSH1 0x13 PUSH1 0x24 DUP3 ADD MSTORE PUSH19 0x757365206465706F7369744E61746976652829 PUSH1 0x68 SHL PUSH1 0x44 DUP3 ADD MSTORE REVERT JUMPDEST PUSH0 CALLDATALOAD PUSH1 0xE0 SHR DUP1 PUSH4 0x840A44A EQ PUSH2 0x12C6 JUMPI DUP1 PUSH4 0xBF6CC08 EQ PUSH2 0x115F JUMPI DUP1 PUSH4 0x214E68DA EQ PUSH2 0x1141 JUMPI DUP1 PUSH4 0x2F48AB7D EQ PUSH2 0x10FE JUMPI DUP1 PUSH4 0x32E714A6 EQ PUSH2 0x10E0 JUMPI DUP1 PUSH4 0x3E413BEE EQ PUSH2 0x109D JUMPI DUP1 PUSH4 0x3F4BA83A EQ PUSH2 0x102D JUMPI DUP1 PUSH4 0x42EF5FBB EQ PUSH2 0xEE3 JUMPI DUP1 PUSH4 0x490AE210 EQ PUSH2 0xE5F JUMPI DUP1 PUSH4 0x5C975ABB EQ PUSH2 0xE39 JUMPI DUP1 PUSH4 0x6AB0142F EQ PUSH2 0xC3A JUMPI DUP1 PUSH4 0x6FF1C9BC EQ PUSH2 0xA49 JUMPI DUP1 PUSH4 0x715018A6 EQ PUSH2 0x9E6 JUMPI DUP1 PUSH4 0x7433CC68 EQ PUSH2 0x9C8 JUMPI DUP1 PUSH4 0x79BA5097 EQ PUSH2 0x943 JUMPI DUP1 PUSH4 0x823A9148 EQ PUSH2 0x8E9 JUMPI DUP1 PUSH4 0x8456CB59 EQ PUSH2 0x88A JUMPI DUP1 PUSH4 0x85B42274 EQ PUSH2 0x853 JUMPI DUP1 PUSH4 0x8DA5CB5B EQ PUSH2 0x82C JUMPI DUP1 PUSH4 0x939C9A1C EQ PUSH2 0x7F5 JUMPI DUP1 PUSH4 0x958AC210 EQ PUSH2 0x5E6 JUMPI DUP1 PUSH4 0xA42DCE80 EQ PUSH2 0x59A JUMPI DUP1 PUSH4 0xAB879827 EQ PUSH2 0x57C JUMPI DUP1 PUSH4 0xBA06D4DE EQ PUSH2 0x55F JUMPI DUP1 PUSH4 0xC415B95C EQ PUSH2 0x537 JUMPI DUP1 PUSH4 0xCBC14E62 EQ PUSH2 0x4DE JUMPI DUP1 PUSH4 0xD421B946 EQ PUSH2 0x4C0 JUMPI DUP1 PUSH4 0xDE35F5CB EQ PUSH2 0x4A2 JUMPI DUP1 PUSH4 0xE30C3978 EQ PUSH2 0x47A JUMPI DUP1 PUSH4 0xE96BA32E EQ PUSH2 0x218 JUMPI PUSH4 0xF2FDE38B SUB PUSH2 0x10 JUMPI CALLVALUE PUSH2 0x214 JUMPI PUSH1 0x20 CALLDATASIZE PUSH1 0x3 NOT ADD SLT PUSH2 0x214 JUMPI PUSH2 0x1C4 PUSH2 0x1312 JUMP JUMPDEST PUSH2 0x1CC PUSH2 0x1524 JUMP JUMPDEST PUSH1 0x1 DUP1 PUSH1 0xA0 SHL SUB DUP1 SWAP2 AND SWAP1 DUP2 PUSH1 0x1 PUSH1 0x1 PUSH1 0x60 SHL SUB PUSH1 0xA0 SHL PUSH1 0x1 SLOAD AND OR PUSH1 0x1 SSTORE PUSH0 SLOAD AND PUSH32 0x38D16B8CAC22D99FC7C124B9CD0DE2D3FA1FAEF420BFE791D8C362D765E22700 PUSH0 DUP1 LOG3 STOP JUMPDEST PUSH0 DUP1 REVERT JUMPDEST POP SWAP1 CALLVALUE PUSH2 0x214 JUMPI PUSH2 0x228 CALLDATASIZE PUSH2 0x1328 JUMP JUMPDEST SWAP3 SWAP1 SWAP2 PUSH2 0x233 PUSH2 0x154F JUMP JUMPDEST PUSH2 0x23B PUSH2 0x1570 JUMP JUMPDEST PUSH32 0x0 PUSH1 0x1 PUSH1 0x1 PUSH1 0xA0 SHL SUB DUP2 DUP2 AND SWAP3 SWAP2 DUP4 ISZERO PUSH2 0x437 JUMPI PUSH2 0x27A DUP8 ISZERO ISZERO PUSH2 0x1374 JUMP JUMPDEST PUSH2 0x288 PUSH1 0x3 SLOAD DUP8 LT ISZERO PUSH2 0x13C0 JUMP JUMPDEST PUSH2 0x295 DUP6 SLOAD DUP8 GT ISZERO PUSH2 0x13FC JUMP JUMPDEST PUSH3 0x15180 TIMESTAMP DIV SWAP6 CALLER PUSH0 MSTORE PUSH1 0x20 SWAP7 PUSH1 0xB DUP9 MSTORE DUP1 DUP6 PUSH0 KECCAK256 SLOAD LT PUSH2 0x420 JUMPI JUMPDEST POP PUSH1 0xA DUP8 MSTORE PUSH2 0x2C3 DUP2 DUP6 PUSH0 KECCAK256 SLOAD PUSH2 0x1614 JUMP JUMPDEST PUSH1 0x7 SLOAD LT PUSH2 0x3E8 JUMPI CALLER PUSH0 MSTORE PUSH1 0xA DUP8 MSTORE DUP4 PUSH0 KECCAK256 PUSH2 0x2E0 DUP3 DUP3 SLOAD PUSH2 0x1614 JUMP JUMPDEST SWAP1 SSTORE PUSH2 0x2710 PUSH2 0x2F1 PUSH1 0x8 SLOAD DUP4 PUSH2 0x1438 JUMP JUMPDEST DIV SWAP5 PUSH2 0x2FD DUP7 DUP4 PUSH2 0x145F JUMP JUMPDEST SWAP7 DUP6 MLOAD SWAP3 PUSH4 0x23B872DD PUSH1 0xE0 SHL PUSH0 MSTORE CALLER DUP3 MSTORE ADDRESS PUSH1 0x24 MSTORE PUSH1 0x44 MSTORE DUP9 PUSH0 PUSH1 0x64 DUP2 DUP1 DUP9 GAS CALL PUSH1 0x1 PUSH0 MLOAD EQ DUP2 AND ISZERO PUSH2 0x3C9 JUMPI JUMPDEST DUP4 DUP8 MSTORE PUSH0 PUSH1 0x60 MSTORE ISZERO PUSH2 0x3B6 JUMPI POP POP POP DUP4 SWAP1 DUP2 PUSH2 0x3A0 JUMPI JUMPDEST POP POP POP PUSH2 0x350 PUSH1 0x9 SLOAD PUSH2 0x14AB JUMP JUMPDEST SWAP3 DUP4 PUSH1 0x9 SSTORE DUP2 MLOAD SWAP5 PUSH0 DUP7 MSTORE DUP6 ADD MSTORE DUP4 ADD MSTORE CHAINID PUSH1 0x60 DUP4 ADD MSTORE PUSH32 0x3B9519B1DA3A95994E49A772A2BF503A01A56287D69BFBEF7CCBFF3A1D3B2FBB PUSH1 0x80 CALLER SWAP4 LOG4 PUSH1 0x1 PUSH0 DUP1 MLOAD PUSH1 0x20 PUSH2 0x1622 DUP4 CODECOPY DUP2 MLOAD SWAP2 MSTORE SSTORE STOP JUMPDEST PUSH2 0x3AE SWAP3 PUSH1 0x2 SLOAD AND SWAP1 PUSH2 0x159F JUMP JUMPDEST PUSH0 DUP3 DUP2 PUSH2 0x342 JUMP JUMPDEST PUSH4 0x5274AFE7 PUSH1 0xE0 SHL DUP4 MSTORE DUP3 ADD MSTORE PUSH1 0x24 SWAP2 POP REVERT JUMPDEST PUSH1 0x1 DUP2 ISZERO AND PUSH2 0x3DF JUMPI DUP5 EXTCODESIZE ISZERO ISZERO RETURNDATASIZE ISZERO AND AND PUSH2 0x32B JUMP JUMPDEST DUP4 RETURNDATASIZE PUSH0 DUP3 RETURNDATACOPY RETURNDATASIZE SWAP1 REVERT JUMPDEST DUP4 MLOAD PUSH3 0x461BCD PUSH1 0xE5 SHL DUP2 MSTORE DUP1 DUP8 ADD DUP9 SWAP1 MSTORE PUSH1 0x12 PUSH1 0x24 DUP3 ADD MSTORE PUSH18 0x19185A5B1E4818D85C08195E18D959591959 PUSH1 0x72 SHL PUSH1 0x44 DUP3 ADD MSTORE PUSH1 0x64 SWAP1 REVERT JUMPDEST PUSH1 0xA DUP9 MSTORE PUSH0 DUP6 DUP2 KECCAK256 SSTORE PUSH1 0xB DUP9 MSTORE DUP5 PUSH0 KECCAK256 SSTORE PUSH0 PUSH2 0x2B1 JUMP JUMPDEST DUP3 MLOAD PUSH3 0x461BCD PUSH1 0xE5 SHL DUP2 MSTORE PUSH1 0x20 DUP2 DUP8 ADD MSTORE PUSH1 0x1E PUSH1 0x24 DUP3 ADD MSTORE PUSH32 0x55534443206E6F7420656E61626C6564206F6E207468697320636861696E0000 PUSH1 0x44 DUP3 ADD MSTORE PUSH1 0x64 SWAP1 REVERT JUMPDEST DUP3 CALLVALUE PUSH2 0x214 JUMPI PUSH0 CALLDATASIZE PUSH1 0x3 NOT ADD SLT PUSH2 0x214 JUMPI PUSH1 0x1 SLOAD SWAP1 MLOAD PUSH1 0x1 PUSH1 0x1 PUSH1 0xA0 SHL SUB SWAP1 SWAP2 AND DUP2 MSTORE PUSH1 0x20 SWAP1 RETURN JUMPDEST DUP3 CALLVALUE PUSH2 0x214 JUMPI PUSH0 CALLDATASIZE PUSH1 0x3 NOT ADD SLT PUSH2 0x214 JUMPI PUSH1 0x20 SWAP1 PUSH1 0x9 SLOAD SWAP1 MLOAD SWAP1 DUP2 MSTORE RETURN JUMPDEST DUP3 CALLVALUE PUSH2 0x214 JUMPI PUSH0 CALLDATASIZE PUSH1 0x3 NOT ADD SLT PUSH2 0x214 JUMPI PUSH1 0x20 SWAP1 PUSH1 0x6 SLOAD SWAP1 MLOAD SWAP1 DUP2 MSTORE RETURN JUMPDEST DUP3 CALLVALUE PUSH2 0x214 JUMPI PUSH32 0xFDA73C1B346048697F82D08524EE25332EAFEF74CC364BE738FC7C06A82A901C SWAP1 PUSH2 0x50F CALLDATASIZE PUSH2 0x1328 JUMP JUMPDEST PUSH2 0x517 PUSH2 0x1524 JUMP JUMPDEST PUSH2 0x522 DUP2 DUP4 LT PUSH2 0x14EB JUMP JUMPDEST DUP2 PUSH1 0x5 SSTORE DUP1 PUSH1 0x6 SSTORE DUP3 MLOAD SWAP2 DUP3 MSTORE PUSH1 0x20 DUP3 ADD MSTORE LOG1 STOP JUMPDEST DUP3 CALLVALUE PUSH2 0x214 JUMPI PUSH0 CALLDATASIZE PUSH1 0x3 NOT ADD SLT PUSH2 0x214 JUMPI PUSH1 0x2 SLOAD SWAP1 MLOAD PUSH1 0x1 PUSH1 0x1 PUSH1 0xA0 SHL SUB SWAP1 SWAP2 AND DUP2 MSTORE PUSH1 0x20 SWAP1 RETURN JUMPDEST POP SWAP1 CALLVALUE PUSH2 0x214 JUMPI PUSH0 CALLDATASIZE PUSH1 0x3 NOT ADD SLT PUSH2 0x214 JUMPI PUSH1 0x20 SWAP2 SLOAD SWAP1 MLOAD SWAP1 DUP2 MSTORE RETURN JUMPDEST DUP3 CALLVALUE PUSH2 0x214 JUMPI PUSH0 CALLDATASIZE PUSH1 0x3 NOT ADD SLT PUSH2 0x214 JUMPI PUSH1 0x20 SWAP1 PUSH1 0x8 SLOAD SWAP1 MLOAD SWAP1 DUP2 MSTORE RETURN JUMPDEST CALLVALUE PUSH2 0x214 JUMPI PUSH1 0x20 CALLDATASIZE PUSH1 0x3 NOT ADD SLT PUSH2 0x214 JUMPI PUSH2 0x5B3 PUSH2 0x1312 JUMP JUMPDEST PUSH2 0x5BB PUSH2 0x1524 JUMP JUMPDEST PUSH1 0x1 PUSH1 0x1 PUSH1 0xA0 SHL SUB AND PUSH2 0x5CF DUP2 ISZERO ISZERO PUSH2 0x14B9 JUMP JUMPDEST PUSH1 0x1 PUSH1 0x1 PUSH1 0x60 SHL SUB PUSH1 0xA0 SHL PUSH1 0x2 SLOAD AND OR PUSH1 0x2 SSTORE PUSH0 DUP1 RETURN JUMPDEST POP SWAP1 CALLVALUE PUSH2 0x214 JUMPI PUSH2 0x5F6 CALLDATASIZE PUSH2 0x1328 JUMP JUMPDEST SWAP3 SWAP1 SWAP2 PUSH2 0x601 PUSH2 0x154F JUMP JUMPDEST PUSH2 0x609 PUSH2 0x1570 JUMP JUMPDEST PUSH32 0x0 PUSH1 0x1 PUSH1 0x1 PUSH1 0xA0 SHL SUB DUP2 DUP2 AND SWAP3 SWAP2 DUP4 ISZERO PUSH2 0x7B2 JUMPI PUSH2 0x648 DUP8 ISZERO ISZERO PUSH2 0x1374 JUMP JUMPDEST PUSH2 0x656 PUSH1 0x3 SLOAD DUP8 LT ISZERO PUSH2 0x13C0 JUMP JUMPDEST PUSH2 0x663 DUP6 SLOAD DUP8 GT ISZERO PUSH2 0x13FC JUMP JUMPDEST PUSH3 0x15180 TIMESTAMP DIV SWAP6 CALLER PUSH0 MSTORE PUSH1 0x20 SWAP7 PUSH1 0xB DUP9 MSTORE DUP1 DUP6 PUSH0 KECCAK256 SLOAD LT PUSH2 0x79B JUMPI JUMPDEST POP PUSH1 0xA DUP8 MSTORE PUSH2 0x691 DUP2 DUP6 PUSH0 KECCAK256 SLOAD PUSH2 0x1614 JUMP JUMPDEST PUSH1 0x7 SLOAD LT PUSH2 0x3E8 JUMPI CALLER PUSH0 MSTORE PUSH1 0xA DUP8 MSTORE DUP4 PUSH0 KECCAK256 PUSH2 0x6AE DUP3 DUP3 SLOAD PUSH2 0x1614 JUMP JUMPDEST SWAP1 SSTORE PUSH2 0x2710 PUSH2 0x6BF PUSH1 0x8 SLOAD DUP4 PUSH2 0x1438 JUMP JUMPDEST DIV SWAP5 PUSH2 0x6CB DUP7 DUP4 PUSH2 0x145F JUMP JUMPDEST SWAP7 DUP6 MLOAD SWAP3 PUSH4 0x23B872DD PUSH1 0xE0 SHL PUSH0 MSTORE CALLER DUP3 MSTORE ADDRESS PUSH1 0x24 MSTORE PUSH1 0x44 MSTORE DUP9 PUSH0 PUSH1 0x64 DUP2 DUP1 DUP9 GAS CALL PUSH1 0x1 PUSH0 MLOAD EQ DUP2 AND ISZERO PUSH2 0x785 JUMPI JUMPDEST DUP4 DUP8 MSTORE PUSH0 PUSH1 0x60 MSTORE ISZERO PUSH2 0x3B6 JUMPI POP POP POP DUP4 SWAP1 DUP2 PUSH2 0x76F JUMPI JUMPDEST POP POP POP PUSH2 0x71E PUSH1 0x9 SLOAD PUSH2 0x14AB JUMP JUMPDEST SWAP3 DUP4 PUSH1 0x9 SSTORE DUP2 MLOAD SWAP5 PUSH1 0x1 DUP7 MSTORE DUP6 ADD MSTORE DUP4 ADD MSTORE CHAINID PUSH1 0x60 DUP4 ADD MSTORE PUSH32 0x3B9519B1DA3A95994E49A772A2BF503A01A56287D69BFBEF7CCBFF3A1D3B2FBB PUSH1 0x80 CALLER SWAP4 LOG4 PUSH1 0x1 PUSH0 DUP1 MLOAD PUSH1 0x20 PUSH2 0x1622 DUP4 CODECOPY DUP2 MLOAD SWAP2 MSTORE SSTORE STOP JUMPDEST PUSH2 0x77D SWAP3 PUSH1 0x2 SLOAD AND SWAP1 PUSH2 0x159F JUMP JUMPDEST PUSH0 DUP3 DUP2 PUSH2 0x710 JUMP JUMPDEST PUSH1 0x1 DUP2 ISZERO AND PUSH2 0x3DF JUMPI DUP5 EXTCODESIZE ISZERO ISZERO RETURNDATASIZE ISZERO AND AND PUSH2 0x6F9 JUMP JUMPDEST PUSH1 0xA DUP9 MSTORE PUSH0 DUP6 DUP2 KECCAK256 SSTORE PUSH1 0xB DUP9 MSTORE DUP5 PUSH0 KECCAK256 SSTORE PUSH0 PUSH2 0x67F JUMP JUMPDEST DUP3 MLOAD PUSH3 0x461BCD PUSH1 0xE5 SHL DUP2 MSTORE PUSH1 0x20 DUP2 DUP8 ADD MSTORE PUSH1 0x1E PUSH1 0x24 DUP3 ADD MSTORE PUSH32 0x55534454206E6F7420656E61626C6564206F6E207468697320636861696E0000 PUSH1 0x44 DUP3 ADD MSTORE PUSH1 0x64 SWAP1 REVERT JUMPDEST DUP3 CALLVALUE PUSH2 0x214 JUMPI PUSH1 0x20 CALLDATASIZE PUSH1 0x3 NOT ADD SLT PUSH2 0x214 JUMPI PUSH1 0x20 SWAP1 PUSH1 0x1 PUSH1 0x1 PUSH1 0xA0 SHL SUB PUSH2 0x81A PUSH2 0x1312 JUMP JUMPDEST AND PUSH0 MSTORE PUSH1 0xB DUP3 MSTORE DUP1 PUSH0 KECCAK256 SLOAD SWAP1 MLOAD SWAP1 DUP2 MSTORE RETURN JUMPDEST DUP3 CALLVALUE PUSH2 0x214 JUMPI PUSH0 CALLDATASIZE PUSH1 0x3 NOT ADD SLT PUSH2 0x214 JUMPI PUSH0 SLOAD SWAP1 MLOAD PUSH1 0x1 PUSH1 0x1 PUSH1 0xA0 SHL SUB SWAP1 SWAP2 AND DUP2 MSTORE PUSH1 0x20 SWAP1 RETURN JUMPDEST DUP3 CALLVALUE PUSH2 0x214 JUMPI PUSH1 0x20 CALLDATASIZE PUSH1 0x3 NOT ADD SLT PUSH2 0x214 JUMPI PUSH1 0x20 SWAP1 PUSH1 0x1 PUSH1 0x1 PUSH1 0xA0 SHL SUB PUSH2 0x878 PUSH2 0x1312 JUMP JUMPDEST AND PUSH0 MSTORE PUSH1 0xA DUP3 MSTORE DUP1 PUSH0 KECCAK256 SLOAD SWAP1 MLOAD SWAP1 DUP2 MSTORE RETURN JUMPDEST DUP3 CALLVALUE PUSH2 0x214 JUMPI PUSH0 CALLDATASIZE PUSH1 0x3 NOT ADD SLT PUSH2 0x214 JUMPI PUSH1 0x20 PUSH32 0x62E78CEA01BEE320CD4E420270B5EA74000D11B0C9F74754EBDBFC544B05A258 SWAP2 PUSH2 0x8C7 PUSH2 0x1524 JUMP JUMPDEST PUSH2 0x8CF PUSH2 0x154F JUMP JUMPDEST PUSH1 0x1 DUP1 SLOAD PUSH1 0xFF PUSH1 0xA0 SHL NOT AND PUSH1 0x1 PUSH1 0xA0 SHL OR SWAP1 SSTORE MLOAD CALLER DUP2 MSTORE LOG1 STOP JUMPDEST POP SWAP1 CALLVALUE PUSH2 0x214 JUMPI PUSH32 0xCF2FD7F333B5EC2A4819C2D2C47D9C38DB7C1951E6B79EE704E26DB281794614 SWAP2 PUSH2 0x91B CALLDATASIZE PUSH2 0x1328 JUMP JUMPDEST DUP1 SWAP2 SWAP3 PUSH2 0x926 PUSH2 0x1524 JUMP JUMPDEST PUSH2 0x931 DUP3 DUP6 LT PUSH2 0x14EB JUMP JUMPDEST DUP4 PUSH1 0x3 SSTORE SSTORE DUP3 MLOAD SWAP2 DUP3 MSTORE PUSH1 0x20 DUP3 ADD MSTORE LOG1 STOP JUMPDEST POP SWAP1 CALLVALUE PUSH2 0x214 JUMPI PUSH0 CALLDATASIZE PUSH1 0x3 NOT ADD SLT PUSH2 0x214 JUMPI PUSH1 0x1 SLOAD SWAP2 PUSH1 0x1 PUSH1 0x1 PUSH1 0xA0 SHL SUB SWAP2 CALLER DUP4 DUP6 AND SUB PUSH2 0x9B1 JUMPI POP POP PUSH1 0x1 PUSH1 0x1 PUSH1 0x60 SHL SUB PUSH1 0xA0 SHL DUP1 SWAP3 AND PUSH1 0x1 SSTORE PUSH0 SLOAD SWAP2 CALLER SWAP1 DUP4 AND OR PUSH0 SSTORE CALLER SWAP2 AND PUSH32 0x8BE0079C531659141344CD1FD0A4F28419497F9722A3DAAFE3B4186F6B6457E0 PUSH0 DUP1 LOG3 STOP JUMPDEST PUSH1 0x24 SWAP3 POP MLOAD SWAP1 PUSH4 0x118CDAA7 PUSH1 0xE0 SHL DUP3 MSTORE CALLER SWAP1 DUP3 ADD MSTORE REVERT JUMPDEST DUP3 CALLVALUE PUSH2 0x214 JUMPI PUSH0 CALLDATASIZE PUSH1 0x3 NOT ADD SLT PUSH2 0x214 JUMPI PUSH1 0x20 SWAP1 PUSH1 0x5 SLOAD SWAP1 MLOAD SWAP1 DUP2 MSTORE RETURN JUMPDEST CALLVALUE PUSH2 0x214 JUMPI PUSH0 CALLDATASIZE PUSH1 0x3 NOT ADD SLT PUSH2 0x214 JUMPI PUSH2 0x9FE PUSH2 0x1524 JUMP JUMPDEST PUSH1 0x1 DUP1 SLOAD PUSH1 0x1 PUSH1 0x1 PUSH1 0xA0 SHL SUB NOT SWAP1 DUP2 AND SWAP1 SWAP2 SSTORE PUSH0 DUP1 SLOAD SWAP2 DUP3 AND DUP2 SSTORE SWAP1 PUSH1 0x1 PUSH1 0x1 PUSH1 0xA0 SHL SUB AND PUSH32 0x8BE0079C531659141344CD1FD0A4F28419497F9722A3DAAFE3B4186F6B6457E0 DUP3 DUP1 LOG3 STOP JUMPDEST POP CALLVALUE PUSH2 0x214 JUMPI PUSH1 0x20 DUP1 PUSH1 0x3 NOT CALLDATASIZE ADD SLT PUSH2 0x214 JUMPI DUP2 CALLDATALOAD PUSH1 0x1 PUSH1 0x1 PUSH1 0xA0 SHL SUB DUP2 DUP2 AND SWAP2 DUP3 SWAP1 SUB PUSH2 0x214 JUMPI PUSH2 0xA79 PUSH2 0x1524 JUMP JUMPDEST PUSH2 0xA84 DUP3 ISZERO ISZERO PUSH2 0x14B9 JUMP JUMPDEST PUSH32 0x0 DUP2 DUP2 AND DUP5 DUP2 PUSH2 0xBBA JUMPI JUMPDEST POP POP POP PUSH32 0x0 SWAP1 DUP2 AND DUP4 DUP2 PUSH2 0xB3A JUMPI JUMPDEST POP POP POP SELFBALANCE SWAP1 DUP2 PUSH2 0xAE9 JUMPI STOP JUMPDEST PUSH0 DUP1 DUP1 SWAP4 DUP2 SWAP4 GAS CALL PUSH2 0xAF9 PUSH2 0x146C JUMP JUMPDEST POP ISZERO PUSH2 0xB01 JUMPI STOP JUMPDEST PUSH1 0x64 SWAP3 MLOAD SWAP2 PUSH3 0x461BCD PUSH1 0xE5 SHL DUP4 MSTORE DUP3 ADD MSTORE PUSH1 0x16 PUSH1 0x24 DUP3 ADD MSTORE PUSH22 0x1B985D1A5D99481DDA5D1A191C985DC819985A5B1959 PUSH1 0x52 SHL PUSH1 0x44 DUP3 ADD MSTORE REVERT JUMPDEST DUP7 MLOAD PUSH4 0x70A08231 PUSH1 0xE0 SHL DUP2 MSTORE ADDRESS DUP8 DUP3 ADD MSTORE SWAP2 DUP3 SWAP1 PUSH1 0x24 SWAP1 DUP3 SWAP1 GAS STATICCALL SWAP1 DUP2 ISZERO PUSH2 0xBB0 JUMPI PUSH0 SWAP2 PUSH2 0xB83 JUMPI JUMPDEST POP DUP3 DUP2 PUSH2 0xB72 JUMPI JUMPDEST POP DUP4 PUSH2 0xADD JUMP JUMPDEST PUSH2 0xB7B SWAP3 PUSH2 0x159F JUMP JUMPDEST PUSH0 DUP1 DUP3 PUSH2 0xB6B JUMP JUMPDEST SWAP1 POP DUP4 DUP2 DUP2 RETURNDATASIZE DUP4 GT PUSH2 0xBA9 JUMPI JUMPDEST PUSH2 0xB9A DUP2 DUP4 PUSH2 0x133E JUMP JUMPDEST DUP2 ADD SUB SLT PUSH2 0x214 JUMPI MLOAD PUSH0 PUSH2 0xB63 JUMP JUMPDEST POP RETURNDATASIZE PUSH2 0xB90 JUMP JUMPDEST DUP7 MLOAD RETURNDATASIZE PUSH0 DUP3 RETURNDATACOPY RETURNDATASIZE SWAP1 REVERT JUMPDEST DUP8 MLOAD PUSH4 0x70A08231 PUSH1 0xE0 SHL DUP2 MSTORE ADDRESS DUP9 DUP3 ADD MSTORE SWAP2 DUP3 SWAP1 PUSH1 0x24 SWAP1 DUP3 SWAP1 GAS STATICCALL SWAP1 DUP2 ISZERO PUSH2 0xC30 JUMPI PUSH0 SWAP2 PUSH2 0xC03 JUMPI JUMPDEST POP DUP4 DUP2 PUSH2 0xBF2 JUMPI JUMPDEST POP DUP5 PUSH2 0xAAF JUMP JUMPDEST PUSH2 0xBFB SWAP3 PUSH2 0x159F JUMP JUMPDEST PUSH0 DUP1 DUP4 PUSH2 0xBEB JUMP JUMPDEST SWAP1 POP DUP5 DUP2 DUP2 RETURNDATASIZE DUP4 GT PUSH2 0xC29 JUMPI JUMPDEST PUSH2 0xC1A DUP2 DUP4 PUSH2 0x133E JUMP JUMPDEST DUP2 ADD SUB SLT PUSH2 0x214 JUMPI MLOAD PUSH0 PUSH2 0xBE3 JUMP JUMPDEST POP RETURNDATASIZE PUSH2 0xC10 JUMP JUMPDEST DUP8 MLOAD RETURNDATASIZE PUSH0 DUP3 RETURNDATACOPY RETURNDATASIZE SWAP1 REVERT JUMPDEST POP CALLVALUE PUSH2 0x214 JUMPI PUSH1 0x60 CALLDATASIZE PUSH1 0x3 NOT ADD SLT PUSH2 0x214 JUMPI PUSH2 0xC54 PUSH2 0x1312 JUMP JUMPDEST SWAP2 PUSH1 0x24 DUP1 CALLDATALOAD SWAP1 PUSH2 0xC62 PUSH2 0x1524 JUMP JUMPDEST PUSH2 0xC6A PUSH2 0x1570 JUMP JUMPDEST PUSH2 0xC72 PUSH2 0x154F JUMP JUMPDEST PUSH1 0x1 PUSH1 0x1 PUSH1 0xA0 SHL SUB DUP6 DUP2 AND SWAP5 DUP6 ISZERO PUSH2 0xE06 JUMPI DUP4 ISZERO PUSH2 0xDD6 JUMPI PUSH32 0x0 SWAP2 DUP3 AND SWAP3 DUP4 ISZERO PUSH2 0xDA1 JUMPI DUP6 MLOAD DUP1 SWAP5 PUSH4 0x70A08231 PUSH1 0xE0 SHL DUP3 MSTORE ADDRESS DUP5 DUP4 ADD MSTORE DUP2 DUP4 PUSH1 0x20 SWAP8 DUP9 SWAP4 GAS STATICCALL SWAP1 DUP2 ISZERO PUSH2 0xC30 JUMPI SWAP1 DUP7 SWAP2 PUSH0 SWAP2 PUSH2 0xD70 JUMPI JUMPDEST POP LT PUSH2 0xD37 JUMPI POP POP DUP3 PUSH32 0xB3F043B0B64C8222638EB2486EF62C8447FDE172CE3AD8DE2AFC6FC2D08317DA SWAP6 SWAP7 PUSH2 0xD17 SWAP3 PUSH2 0x159F JUMP JUMPDEST DUP3 MLOAD SWAP2 DUP3 MSTORE PUSH1 0x44 CALLDATALOAD SWAP1 DUP3 ADD MSTORE LOG2 PUSH1 0x1 PUSH0 DUP1 MLOAD PUSH1 0x20 PUSH2 0x1622 DUP4 CODECOPY DUP2 MLOAD SWAP2 MSTORE SSTORE STOP JUMPDEST DUP6 MLOAD PUSH3 0x461BCD PUSH1 0xE5 SHL DUP2 MSTORE SWAP2 DUP3 ADD DUP5 SWAP1 MSTORE PUSH1 0x14 SWAP1 DUP3 ADD MSTORE PUSH20 0x696E73756666696369656E742062616C616E6365 PUSH1 0x60 SHL PUSH1 0x44 DUP3 ADD MSTORE PUSH1 0x64 SWAP1 REVERT JUMPDEST DUP1 SWAP3 POP DUP7 DUP1 SWAP3 POP RETURNDATASIZE DUP4 GT PUSH2 0xD9A JUMPI JUMPDEST PUSH2 0xD89 DUP2 DUP4 PUSH2 0x133E JUMP JUMPDEST DUP2 ADD SUB SLT PUSH2 0x214 JUMPI DUP6 SWAP1 MLOAD PUSH0 PUSH2 0xCE2 JUMP JUMPDEST POP RETURNDATASIZE PUSH2 0xD7F JUMP JUMPDEST SWAP1 PUSH1 0x10 PUSH1 0x64 SWAP3 PUSH1 0x20 DUP9 MLOAD SWAP4 PUSH3 0x461BCD PUSH1 0xE5 SHL DUP6 MSTORE DUP5 ADD MSTORE DUP3 ADD MSTORE PUSH16 0x1554D110C81B9BDD08195B98589B1959 PUSH1 0x82 SHL PUSH1 0x44 DUP3 ADD MSTORE REVERT JUMPDEST PUSH1 0x64 SWAP1 PUSH1 0xB DUP5 PUSH1 0x20 DUP9 MLOAD SWAP4 PUSH3 0x461BCD PUSH1 0xE5 SHL DUP6 MSTORE DUP5 ADD MSTORE DUP3 ADD MSTORE PUSH11 0x1E995C9BC8185B5BDD5B9D PUSH1 0xAA SHL PUSH1 0x44 DUP3 ADD MSTORE REVERT JUMPDEST PUSH1 0x64 SWAP1 PUSH1 0xE DUP5 PUSH1 0x20 DUP9 MLOAD SWAP4 PUSH3 0x461BCD PUSH1 0xE5 SHL DUP6 MSTORE DUP5 ADD MSTORE DUP3 ADD MSTORE PUSH14 0x1E995C9BC81C9958DA5C1A595B9D PUSH1 0x92 SHL PUSH1 0x44 DUP3 ADD MSTORE REVERT JUMPDEST DUP3 CALLVALUE PUSH2 0x214 JUMPI PUSH0 CALLDATASIZE PUSH1 0x3 NOT ADD SLT PUSH2 0x214 JUMPI PUSH1 0x20 SWAP1 PUSH1 0xFF PUSH1 0x1 SLOAD PUSH1 0xA0 SHR AND SWAP1 MLOAD SWAP1 ISZERO ISZERO DUP2 MSTORE RETURN JUMPDEST POP CALLVALUE PUSH2 0x214 JUMPI PUSH1 0x20 CALLDATASIZE PUSH1 0x3 NOT ADD SLT PUSH2 0x214 JUMPI DUP1 CALLDATALOAD SWAP1 PUSH2 0xE7C PUSH2 0x1524 JUMP JUMPDEST PUSH2 0x1F4 DUP3 GT PUSH2 0xEB5 JUMPI PUSH32 0x8C4D35E54A3F2EF1134138FD8EA3DAEE6A3C89E10D2665996BABDF70261E2C76 PUSH1 0x20 DUP4 DUP6 DUP2 PUSH1 0x8 SSTORE MLOAD SWAP1 DUP2 MSTORE LOG1 STOP JUMPDEST PUSH1 0x64 SWAP1 PUSH1 0x20 DUP5 MLOAD SWAP2 PUSH3 0x461BCD PUSH1 0xE5 SHL DUP4 MSTORE DUP3 ADD MSTORE PUSH1 0x8 PUSH1 0x24 DUP3 ADD MSTORE PUSH8 0x666565203E203525 PUSH1 0xC0 SHL PUSH1 0x44 DUP3 ADD MSTORE REVERT JUMPDEST POP PUSH1 0x20 CALLDATASIZE PUSH1 0x3 NOT ADD SLT PUSH2 0x214 JUMPI DUP1 CALLDATALOAD SWAP1 PUSH2 0xEFB PUSH2 0x154F JUMP JUMPDEST PUSH2 0xF03 PUSH2 0x1570 JUMP JUMPDEST PUSH2 0xF0E DUP3 ISZERO ISZERO PUSH2 0x1374 JUMP JUMPDEST PUSH2 0xF1C PUSH1 0x5 SLOAD CALLVALUE LT ISZERO PUSH2 0x13C0 JUMP JUMPDEST PUSH2 0xF2A PUSH1 0x6 SLOAD CALLVALUE GT ISZERO PUSH2 0x13FC JUMP JUMPDEST PUSH2 0x2710 PUSH2 0xF39 PUSH1 0x8 SLOAD CALLVALUE PUSH2 0x1438 JUMP JUMPDEST DIV PUSH2 0xF44 DUP2 CALLVALUE PUSH2 0x145F JUMP JUMPDEST SWAP2 DUP2 PUSH2 0xFD5 JUMPI JUMPDEST POP PUSH2 0xF57 PUSH1 0x9 SLOAD PUSH2 0x14AB JUMP JUMPDEST SWAP1 DUP2 PUSH1 0x9 SSTORE DUP5 MLOAD SWAP3 PUSH1 0x2 DUP5 MSTORE PUSH1 0x20 DUP5 ADD MSTORE DUP5 DUP4 ADD MSTORE CHAINID PUSH1 0x60 DUP4 ADD MSTORE PUSH32 0x3B9519B1DA3A95994E49A772A2BF503A01A56287D69BFBEF7CCBFF3A1D3B2FBB PUSH1 0x80 CALLER SWAP4 LOG4 MLOAD CALLVALUE DUP2 MSTORE PUSH32 0x8AC633E5B094E1150D2A6495DF4D0C77F51D293ABE99E7733C78870DFBEE7660 PUSH1 0x20 CALLER SWAP3 LOG2 PUSH1 0x1 PUSH0 DUP1 MLOAD PUSH1 0x20 PUSH2 0x1622 DUP4 CODECOPY DUP2 MLOAD SWAP2 MSTORE SSTORE STOP JUMPDEST PUSH0 DUP1 DUP1 DUP1 DUP6 PUSH1 0x1 DUP1 PUSH1 0xA0 SHL SUB PUSH1 0x2 SLOAD AND GAS CALL PUSH2 0xFEF PUSH2 0x146C JUMP JUMPDEST POP PUSH2 0xF4B JUMPI PUSH1 0x64 SWAP1 PUSH1 0x20 DUP7 MLOAD SWAP2 PUSH3 0x461BCD PUSH1 0xE5 SHL DUP4 MSTORE DUP3 ADD MSTORE PUSH1 0x13 PUSH1 0x24 DUP3 ADD MSTORE PUSH19 0x199959481D1C985B9CD9995C8819985A5B1959 PUSH1 0x6A SHL PUSH1 0x44 DUP3 ADD MSTORE REVERT JUMPDEST POP SWAP1 CALLVALUE PUSH2 0x214 JUMPI PUSH0 CALLDATASIZE PUSH1 0x3 NOT ADD SLT PUSH2 0x214 JUMPI PUSH2 0x1047 PUSH2 0x1524 JUMP JUMPDEST PUSH1 0x1 SLOAD SWAP2 PUSH1 0xFF DUP4 PUSH1 0xA0 SHR AND ISZERO PUSH2 0x108F JUMPI PUSH1 0xFF PUSH1 0xA0 SHL NOT DUP4 AND PUSH1 0x1 SSTORE DUP2 MLOAD CALLER DUP2 MSTORE PUSH32 0x5DB9EE0A495BF2E6FF9C91A7834C1BA4FDD244A5E8AA4E537BD38AEAE4B073AA SWAP1 PUSH1 0x20 SWAP1 LOG1 STOP JUMPDEST SWAP1 MLOAD PUSH4 0x8DFC202B PUSH1 0xE0 SHL DUP2 MSTORE REVERT JUMPDEST DUP3 CALLVALUE PUSH2 0x214 JUMPI PUSH0 CALLDATASIZE PUSH1 0x3 NOT ADD SLT PUSH2 0x214 JUMPI MLOAD PUSH32 0x0 PUSH1 0x1 PUSH1 0x1 PUSH1 0xA0 SHL SUB AND DUP2 MSTORE PUSH1 0x20 SWAP1 RETURN JUMPDEST DUP3 CALLVALUE PUSH2 0x214 JUMPI PUSH0 CALLDATASIZE PUSH1 0x3 NOT ADD SLT PUSH2 0x214 JUMPI PUSH1 0x20 SWAP1 PUSH1 0x7 SLOAD SWAP1 MLOAD SWAP1 DUP2 MSTORE RETURN JUMPDEST DUP3 CALLVALUE PUSH2 0x214 JUMPI PUSH0 CALLDATASIZE PUSH1 0x3 NOT ADD SLT PUSH2 0x214 JUMPI MLOAD PUSH32 0x0 PUSH1 0x1 PUSH1 0x1 PUSH1 0xA0 SHL SUB AND DUP2 MSTORE PUSH1 0x20 SWAP1 RETURN JUMPDEST DUP3 CALLVALUE PUSH2 0x214 JUMPI PUSH0 CALLDATASIZE PUSH1 0x3 NOT ADD SLT PUSH2 0x214 JUMPI PUSH1 0x20 SWAP1 PUSH1 0x3 SLOAD SWAP1 MLOAD SWAP1 DUP2 MSTORE RETURN JUMPDEST POP SWAP1 CALLVALUE PUSH2 0x214 JUMPI PUSH0 CALLDATASIZE PUSH1 0x3 NOT ADD SLT PUSH2 0x214 JUMPI PUSH1 0x1 PUSH1 0x1 PUSH1 0xA0 SHL SUB SWAP1 PUSH32 0x0 DUP3 AND DUP1 ISZERO PUSH2 0x12BE JUMPI PUSH1 0x20 PUSH1 0x24 SWAP2 DUP4 MLOAD SWAP3 DUP4 DUP1 SWAP3 PUSH4 0x70A08231 PUSH1 0xE0 SHL DUP3 MSTORE ADDRESS DUP10 DUP4 ADD MSTORE GAS STATICCALL SWAP1 DUP2 ISZERO PUSH2 0x12B4 JUMPI PUSH0 SWAP2 PUSH2 0x1282 JUMPI JUMPDEST POP SWAP2 JUMPDEST PUSH32 0x0 AND SWAP3 DUP4 ISZERO PUSH2 0x1276 JUMPI PUSH1 0x20 SWAP1 PUSH1 0x24 DUP4 MLOAD DUP1 SWAP7 DUP2 SWAP4 PUSH4 0x70A08231 PUSH1 0xE0 SHL DUP4 MSTORE ADDRESS SWAP1 DUP4 ADD MSTORE GAS STATICCALL DUP1 ISZERO PUSH2 0x126C JUMPI PUSH0 SWAP1 PUSH2 0x1239 JUMPI JUMPDEST PUSH1 0x60 SWAP4 POP SWAP1 JUMPDEST SELFBALANCE SWAP2 DUP2 MLOAD SWAP4 DUP5 MSTORE PUSH1 0x20 DUP5 ADD MSTORE DUP3 ADD MSTORE RETURN JUMPDEST POP PUSH1 0x20 DUP4 RETURNDATASIZE PUSH1 0x20 GT PUSH2 0x1264 JUMPI JUMPDEST DUP2 PUSH2 0x1253 PUSH1 0x20 SWAP4 DUP4 PUSH2 0x133E JUMP JUMPDEST DUP2 ADD SUB SLT PUSH2 0x214 JUMPI PUSH1 0x60 SWAP3 MLOAD PUSH2 0x1222 JUMP JUMPDEST RETURNDATASIZE SWAP2 POP PUSH2 0x1246 JUMP JUMPDEST POP MLOAD RETURNDATASIZE PUSH0 DUP3 RETURNDATACOPY RETURNDATASIZE SWAP1 REVERT JUMPDEST POP PUSH1 0x60 SWAP3 POP PUSH0 SWAP1 PUSH2 0x1228 JUMP JUMPDEST SWAP1 POP PUSH1 0x20 DUP2 RETURNDATASIZE PUSH1 0x20 GT PUSH2 0x12AC JUMPI JUMPDEST DUP2 PUSH2 0x129D PUSH1 0x20 SWAP4 DUP4 PUSH2 0x133E JUMP JUMPDEST DUP2 ADD SUB SLT PUSH2 0x214 JUMPI MLOAD PUSH0 PUSH2 0x11CD JUMP JUMPDEST RETURNDATASIZE SWAP2 POP PUSH2 0x1290 JUMP JUMPDEST DUP3 MLOAD RETURNDATASIZE PUSH0 DUP3 RETURNDATACOPY RETURNDATASIZE SWAP1 REVERT JUMPDEST POP PUSH0 SWAP2 PUSH2 0x11D0 JUMP JUMPDEST POP CALLVALUE PUSH2 0x214 JUMPI PUSH1 0x20 CALLDATASIZE PUSH1 0x3 NOT ADD SLT PUSH2 0x214 JUMPI PUSH32 0x8925EB7E33342C248E8380FB70E3F497217013B0FD9BFCA496B50B77BC90A01F SWAP2 PUSH1 0x20 SWAP2 CALLDATALOAD SWAP1 PUSH2 0x1307 PUSH2 0x1524 JUMP JUMPDEST DUP2 PUSH1 0x7 SSTORE MLOAD SWAP1 DUP2 MSTORE LOG1 STOP JUMPDEST PUSH1 0x4 CALLDATALOAD SWAP1 PUSH1 0x1 PUSH1 0x1 PUSH1 0xA0 SHL SUB DUP3 AND DUP3 SUB PUSH2 0x214 JUMPI JUMP JUMPDEST PUSH1 0x40 SWAP1 PUSH1 0x3 NOT ADD SLT PUSH2 0x214 JUMPI PUSH1 0x4 CALLDATALOAD SWAP1 PUSH1 0x24 CALLDATALOAD SWAP1 JUMP JUMPDEST SWAP1 PUSH1 0x1F DUP1 NOT SWAP2 ADD AND DUP2 ADD SWAP1 DUP2 LT PUSH8 0xFFFFFFFFFFFFFFFF DUP3 GT OR PUSH2 0x1360 JUMPI PUSH1 0x40 MSTORE JUMP JUMPDEST PUSH4 0x4E487B71 PUSH1 0xE0 SHL PUSH0 MSTORE PUSH1 0x41 PUSH1 0x4 MSTORE PUSH1 0x24 PUSH0 REVERT JUMPDEST ISZERO PUSH2 0x137B JUMPI JUMP JUMPDEST PUSH1 0x40 MLOAD PUSH3 0x461BCD PUSH1 0xE5 SHL DUP2 MSTORE PUSH1 0x20 PUSH1 0x4 DUP3 ADD MSTORE PUSH1 0x18 PUSH1 0x24 DUP3 ADD MSTORE PUSH32 0x696E76616C696420736F6C616E6120726563697069656E740000000000000000 PUSH1 0x44 DUP3 ADD MSTORE PUSH1 0x64 SWAP1 REVERT JUMPDEST ISZERO PUSH2 0x13C7 JUMPI JUMP JUMPDEST PUSH1 0x40 MLOAD PUSH3 0x461BCD PUSH1 0xE5 SHL DUP2 MSTORE PUSH1 0x20 PUSH1 0x4 DUP3 ADD MSTORE PUSH1 0xD PUSH1 0x24 DUP3 ADD MSTORE PUSH13 0x62656C6F77206D696E696D756D PUSH1 0x98 SHL PUSH1 0x44 DUP3 ADD MSTORE PUSH1 0x64 SWAP1 REVERT JUMPDEST ISZERO PUSH2 0x1403 JUMPI JUMP JUMPDEST PUSH1 0x40 MLOAD PUSH3 0x461BCD PUSH1 0xE5 SHL DUP2 MSTORE PUSH1 0x20 PUSH1 0x4 DUP3 ADD MSTORE PUSH1 0xD PUSH1 0x24 DUP3 ADD MSTORE PUSH13 0x61626F7665206D6178696D756D PUSH1 0x98 SHL PUSH1 0x44 DUP3 ADD MSTORE PUSH1 0x64 SWAP1 REVERT JUMPDEST DUP2 DUP2 MUL SWAP3 SWAP2 DUP2 ISZERO SWAP2 DUP5 DIV EQ OR ISZERO PUSH2 0x144B JUMPI JUMP JUMPDEST PUSH4 0x4E487B71 PUSH1 0xE0 SHL PUSH0 MSTORE PUSH1 0x11 PUSH1 0x4 MSTORE PUSH1 0x24 PUSH0 REVERT JUMPDEST SWAP2 SWAP1 DUP3 SUB SWAP2 DUP3 GT PUSH2 0x144B JUMPI JUMP JUMPDEST RETURNDATASIZE ISZERO PUSH2 0x14A6 JUMPI RETURNDATASIZE SWAP1 PUSH8 0xFFFFFFFFFFFFFFFF DUP3 GT PUSH2 0x1360 JUMPI PUSH1 0x40 MLOAD SWAP2 PUSH2 0x149B PUSH1 0x1F DUP3 ADD PUSH1 0x1F NOT AND PUSH1 0x20 ADD DUP5 PUSH2 0x133E JUMP JUMPDEST DUP3 MSTORE RETURNDATASIZE PUSH0 PUSH1 0x20 DUP5 ADD RETURNDATACOPY JUMP JUMPDEST PUSH1 0x60 SWAP1 JUMP JUMPDEST PUSH0 NOT DUP2 EQ PUSH2 0x144B JUMPI PUSH1 0x1 ADD SWAP1 JUMP JUMPDEST ISZERO PUSH2 0x14C0 JUMPI JUMP JUMPDEST PUSH1 0x64 PUSH1 0x40 MLOAD PUSH3 0x461BCD PUSH1 0xE5 SHL DUP2 MSTORE PUSH1 0x20 PUSH1 0x4 DUP3 ADD MSTORE PUSH1 0x4 PUSH1 0x24 DUP3 ADD MSTORE PUSH4 0x7A65726F PUSH1 0xE0 SHL PUSH1 0x44 DUP3 ADD MSTORE REVERT JUMPDEST ISZERO PUSH2 0x14F2 JUMPI JUMP JUMPDEST PUSH1 0x40 MLOAD PUSH3 0x461BCD PUSH1 0xE5 SHL DUP2 MSTORE PUSH1 0x20 PUSH1 0x4 DUP3 ADD MSTORE PUSH1 0xA PUSH1 0x24 DUP3 ADD MSTORE PUSH10 0xDAD2DC407C7A40DAC2F PUSH1 0xB3 SHL PUSH1 0x44 DUP3 ADD MSTORE PUSH1 0x64 SWAP1 REVERT JUMPDEST PUSH0 SLOAD PUSH1 0x1 PUSH1 0x1 PUSH1 0xA0 SHL SUB AND CALLER SUB PUSH2 0x1537 JUMPI JUMP JUMPDEST PUSH1 0x40 MLOAD PUSH4 0x118CDAA7 PUSH1 0xE0 SHL DUP2 MSTORE CALLER PUSH1 0x4 DUP3 ADD MSTORE PUSH1 0x24 SWAP1 REVERT JUMPDEST PUSH1 0xFF PUSH1 0x1 SLOAD PUSH1 0xA0 SHR AND PUSH2 0x155E JUMPI JUMP JUMPDEST PUSH1 0x40 MLOAD PUSH4 0xD93C0665 PUSH1 0xE0 SHL DUP2 MSTORE PUSH1 0x4 SWAP1 REVERT JUMPDEST PUSH0 DUP1 MLOAD PUSH1 0x20 PUSH2 0x1622 DUP4 CODECOPY DUP2 MLOAD SWAP2 MSTORE PUSH1 0x2 DUP2 SLOAD EQ PUSH2 0x158D JUMPI PUSH1 0x2 SWAP1 SSTORE JUMP JUMPDEST PUSH1 0x40 MLOAD PUSH4 0x3EE5AEB5 PUSH1 0xE0 SHL DUP2 MSTORE PUSH1 0x4 SWAP1 REVERT JUMPDEST PUSH1 0x40 MLOAD PUSH4 0xA9059CBB PUSH1 0xE0 SHL PUSH0 SWAP1 DUP2 MSTORE PUSH1 0x1 PUSH1 0x1 PUSH1 0xA0 SHL SUB SWAP4 DUP5 AND PUSH1 0x4 MSTORE PUSH1 0x24 SWAP5 SWAP1 SWAP5 MSTORE SWAP3 PUSH1 0x20 SWAP1 PUSH1 0x44 DUP2 DUP1 DUP6 GAS CALL PUSH1 0x1 PUSH0 MLOAD EQ DUP2 AND ISZERO PUSH2 0x15FE JUMPI JUMPDEST DUP4 PUSH1 0x40 MSTORE ISZERO PUSH2 0x15E8 JUMPI POP POP POP JUMP JUMPDEST PUSH4 0x5274AFE7 PUSH1 0xE0 SHL DUP4 MSTORE AND PUSH1 0x4 DUP3 ADD MSTORE PUSH1 0x24 SWAP2 POP REVERT JUMPDEST PUSH1 0x1 DUP2 ISZERO AND PUSH2 0x3DF JUMPI DUP2 EXTCODESIZE ISZERO ISZERO RETURNDATASIZE ISZERO AND AND PUSH2 0x15DA JUMP JUMPDEST SWAP2 SWAP1 DUP3 ADD DUP1 SWAP3 GT PUSH2 0x144B JUMPI JUMP INVALID SWAP12 PUSH24 0x9B17422D0DF92223018B32B4D1FA46E071723D6817E2486D STOP EXTCODESIZE 0xEC 0xC5 PUSH0 STOP LOG2 PUSH5 0x6970667358 0x22 SLT KECCAK256 STOP ORIGIN SWAP6 0xB9 SWAP2 PUSH21 0xC07E19FAD233EAFDF4047A72DCED5FA96866D00F06 JUMPI CALLDATALOAD 0x2E MSTORE NOT PUSH5 0x736F6C6343 STOP ADDMOD XOR STOP CALLER "},"methodIdentifiers":{"acceptOwnership()":"79ba5097","dailyCapPerUser()":"32e714a6","depositFeeBps()":"ab879827","depositNative(bytes32)":"42ef5fbb","depositNonce()":"de35f5cb","depositUSDC(uint256,bytes32)":"e96ba32e","depositUSDT(uint256,bytes32)":"958ac210","emergencyWithdraw(address)":"6ff1c9bc","feeCollector()":"c415b95c","maxDepositNative()":"d421b946","maxDepositStable()":"ba06d4de","minDepositNative()":"7433cc68","minDepositStable()":"214e68da","owner()":"8da5cb5b","pause()":"8456cb59","paused()":"5c975abb","pendingOwner()":"e30c3978","processRedemption(address,uint256,bytes32)":"6ab0142f","renounceOwnership()":"715018a6","setDailyCap(uint256)":"0840a44a","setDepositFee(uint256)":"490ae210","setDepositLimitsNative(uint256,uint256)":"cbc14e62","setDepositLimitsStable(uint256,uint256)":"823a9148","setFeeCollector(address)":"a42dce80","transferOwnership(address)":"f2fde38b","unpause()":"3f4ba83a","usdc()":"3e413bee","usdt()":"2f48ab7d","userDailyDeposited(address)":"85b42274","userLastDepositDay(address)":"939c9a1c","vaultBalance()":"0bf6cc08"}}}}}