{
  "_format": "hh-sol-artifact-1",
  "contractName": "AgentRegistry",
  "sourceName": "contracts/AgentRegistry.sol",
  "abi": [
    {
      "inputs": [],
      "stateMutability": "nonpayable",
      "type": "constructor"
    },
    {
      "inputs": [
        {
          "internalType": "address",
          "name": "owner",
          "type": "address"
        }
      ],
      "name": "OwnableInvalidOwner",
      "type": "error"
    },
    {
      "inputs": [
        {
          "internalType": "address",
          "name": "account",
          "type": "address"
        }
      ],
      "name": "OwnableUnauthorizedAccount",
      "type": "error"
    },
    {
      "anonymous": false,
      "inputs": [
        {
          "indexed": true,
          "internalType": "string",
          "name": "agentId",
          "type": "string"
        }
      ],
      "name": "AgentDeactivated",
      "type": "event"
    },
    {
      "anonymous": false,
      "inputs": [
        {
          "indexed": true,
          "internalType": "string",
          "name": "agentId",
          "type": "string"
        },
        {
          "indexed": false,
          "internalType": "uint256",
          "name": "tokenId",
          "type": "uint256"
        },
        {
          "indexed": false,
          "internalType": "address",
          "name": "owner",
          "type": "address"
        }
      ],
      "name": "AgentRegistered",
      "type": "event"
    },
    {
      "anonymous": false,
      "inputs": [
        {
          "indexed": true,
          "internalType": "string",
          "name": "agentId",
          "type": "string"
        },
        {
          "indexed": false,
          "internalType": "int32",
          "name": "newElo",
          "type": "int32"
        }
      ],
      "name": "EloUpdated",
      "type": "event"
    },
    {
      "anonymous": false,
      "inputs": [
        {
          "indexed": true,
          "internalType": "address",
          "name": "previousOwner",
          "type": "address"
        },
        {
          "indexed": true,
          "internalType": "address",
          "name": "newOwner",
          "type": "address"
        }
      ],
      "name": "OwnershipTransferred",
      "type": "event"
    },
    {
      "inputs": [
        {
          "internalType": "string",
          "name": "",
          "type": "string"
        }
      ],
      "name": "agents",
      "outputs": [
        {
          "internalType": "string",
          "name": "agentId",
          "type": "string"
        },
        {
          "internalType": "uint256",
          "name": "tokenId",
          "type": "uint256"
        },
        {
          "internalType": "address",
          "name": "owner",
          "type": "address"
        },
        {
          "internalType": "int32",
          "name": "eloRating",
          "type": "int32"
        },
        {
          "internalType": "bool",
          "name": "isActive",
          "type": "bool"
        },
        {
          "internalType": "uint256",
          "name": "registeredAt",
          "type": "uint256"
        }
      ],
      "stateMutability": "view",
      "type": "function"
    },
    {
      "inputs": [
        {
          "internalType": "string",
          "name": "agentId",
          "type": "string"
        }
      ],
      "name": "deactivateAgent",
      "outputs": [],
      "stateMutability": "nonpayable",
      "type": "function"
    },
    {
      "inputs": [
        {
          "internalType": "address",
          "name": "owner",
          "type": "address"
        }
      ],
      "name": "getAgentsByOwner",
      "outputs": [
        {
          "internalType": "string[]",
          "name": "",
          "type": "string[]"
        }
      ],
      "stateMutability": "view",
      "type": "function"
    },
    {
      "inputs": [],
      "name": "owner",
      "outputs": [
        {
          "internalType": "address",
          "name": "",
          "type": "address"
        }
      ],
      "stateMutability": "view",
      "type": "function"
    },
    {
      "inputs": [
        {
          "internalType": "address",
          "name": "",
          "type": "address"
        },
        {
          "internalType": "uint256",
          "name": "",
          "type": "uint256"
        }
      ],
      "name": "ownerAgents",
      "outputs": [
        {
          "internalType": "string",
          "name": "",
          "type": "string"
        }
      ],
      "stateMutability": "view",
      "type": "function"
    },
    {
      "inputs": [
        {
          "internalType": "string",
          "name": "agentId",
          "type": "string"
        },
        {
          "internalType": "uint256",
          "name": "tokenId",
          "type": "uint256"
        },
        {
          "internalType": "address",
          "name": "owner",
          "type": "address"
        },
        {
          "internalType": "int32",
          "name": "initialElo",
          "type": "int32"
        }
      ],
      "name": "registerAgent",
      "outputs": [],
      "stateMutability": "nonpayable",
      "type": "function"
    },
    {
      "inputs": [],
      "name": "renounceOwnership",
      "outputs": [],
      "stateMutability": "nonpayable",
      "type": "function"
    },
    {
      "inputs": [
        {
          "internalType": "uint256",
          "name": "",
          "type": "uint256"
        }
      ],
      "name": "tokenIdToAgentId",
      "outputs": [
        {
          "internalType": "string",
          "name": "",
          "type": "string"
        }
      ],
      "stateMutability": "view",
      "type": "function"
    },
    {
      "inputs": [
        {
          "internalType": "address",
          "name": "newOwner",
          "type": "address"
        }
      ],
      "name": "transferOwnership",
      "outputs": [],
      "stateMutability": "nonpayable",
      "type": "function"
    },
    {
      "inputs": [
        {
          "internalType": "string",
          "name": "agentId",
          "type": "string"
        },
        {
          "internalType": "int32",
          "name": "newElo",
          "type": "int32"
        }
      ],
      "name": "updateElo",
      "outputs": [],
      "stateMutability": "nonpayable",
      "type": "function"
    }
  ],
  "bytecode": "0x60808060405234610078573315610063575f8054336001600160a01b03198216811783556040519290916001600160a01b0316907f8be0079c531659141344cd1fd0a4f28419497f9722a3daafe3b4186f6b6457e09080a3610c9d908161007d8239f35b631e4fbdf760e01b81525f6004820152602490fd5b5f80fdfe6080604052600480361015610012575f80fd5b5f3560e01c806318697b751461088a5780631ab6f888146107885780634449ee091461075f57806356a1acb71461040157806362febe4f1461037e578063715018a6146103275780638da5cb5b14610300578063cf6ee0cb14610235578063d8413008146101165763f2fde38b14610088575f80fd5b34610112576020366003190112610112576100a161094b565b6100a9610c3c565b6001600160a01b039081169182156100fb57505f54826bffffffffffffffffffffffff60a01b8216175f55167f8be0079c531659141344cd1fd0a4f28419497f9722a3daafe3b4186f6b6457e05f80a3005b6024905f60405191631e4fbdf760e01b8352820152fd5b5f80fd5b503461011257604036600319011261011257803567ffffffffffffffff811161011257610146903690830161091d565b906024358060030b938482036101125761015e610c3c565b60ff6002604051868682376020818881016001815203019020015460c01c16156101fe5750916020916101e37f4070da6203e75f37c641adc330ce80789b4581608d910efb26d2b3807b9069f69460026040518585823786818781016001815203019020019081549060a01b63ffffffff60a01b169063ffffffff60a01b1916179055565b81604051928392833781015f815203902092604051908152a2005b60649060206040519162461bcd60e51b8352820152601060248201526f4167656e74206e6f742061637469766560801b6044820152fd5b503461011257602036600319011261011257803567ffffffffffffffff8111610112573660238201121561011257602061027e6102cc9383602461029195369301359101610ae0565b8160405193828580945193849201610961565b810160018152030190206102a481610a15565b9060018101549060ff600360028301549201549160405195869560c0875260c0870190610982565b93602086015260018060a01b03811660408601528060a01c60030b606086015260c01c161515608084015260a08301520390f35b34610112575f366003190112610112575f546040516001600160a01b039091168152602090f35b34610112575f3660031901126101125761033f610c3c565b5f80546001600160a01b0319811682556001600160a01b03167f8be0079c531659141344cd1fd0a4f28419497f9722a3daafe3b4186f6b6457e08280a3005b50346101125760403660031901126101125761039861094b565b6001600160a01b03165f908152600360205260409020805460243590811015610112576103c491610ab7565b9190916103ef576103eb6103d783610a15565b604051918291602083526020830190610982565b0390f35b5f90634e487b7160e01b82525260245ffd5b50346101125760803660031901126101125767ffffffffffffffff90803582811161011257610433903690830161091d565b604435939092906001600160a01b0385168503610112576064358060030b80910361011257610460610c3c565b60016040518686823760208188810184815203019020015461071b576040519060c08201828110848211176107085760405261049d368787610ae0565b82526020820190602435825260018060a01b03881660408401526060830152600160808301524260a083015260405186868237602081888101600181520301902092825180519182116106f5576104fe826104f887546109a7565b87610b26565b602090601f831160011461068a57826003959360a09593610534935f9261067f575b50508160011b915f199060031b1c19161790565b85555b51600185015560028401600180841b036040830151166bffffffffffffffffffffffff841b82541617815561058d6060830151850b829081549060a01b63ffffffff60a01b169063ffffffff60a01b1916179055565b6080820151815460ff60c01b191690151560c01b60ff60c01b1617905501519101556024355f9081526002602052604090206105cc9084908490610b75565b6001600160a01b0384165f9081526003602052604090208054906801000000000000000082101561066c579061060791600182018155610ab7565b9190916103ef5750918161063f826040947f2e77da768fb560cfcde56babda1604c9b3c49d3101d64b61eeac96cc5546883396610b75565b81835192839283375f908201908152039020815160243581526001600160a01b03909416602085015292a2005b604183634e487b7160e01b5f525260245ffd5b015190505f80610520565b90855f5260205f20915f5b601f19851681106106dd57509260a094926001926003979583601f198116106106c6575b505050811b018555610537565b01515f1983891b60f8161c191690555f80806106b9565b91926020600181928685015181550194019201610695565b604186634e487b7160e01b5f525260245ffd5b604185634e487b7160e01b5f525260245ffd5b60405162461bcd60e51b8152602081850152601860248201527f4167656e7420616c7265616479207265676973746572656400000000000000006044820152606490fd5b503461011257602036600319011261011257355f5260026020526103eb6103d760405f20610a15565b50346101125760209081600319360112610112576001600160a01b036107ac61094b565b165f526003825260405f2080549167ffffffffffffffff831161087757508290604051926107df838260051b01856109df565b80845282840180925f52835f205f915b8383106108555750505050604051918083019381845251809452604083019360408160051b85010192915f955b8287106108295785850386f35b909192938280610845600193603f198a82030186528851610982565b960192019601959291909261081c565b6001868192610866859a999a610a15565b8152019201920191909594956107ef565b604190634e487b7160e01b5f525260245ffd5b50346101125760203660031901126101125780359067ffffffffffffffff8211610112576108ba9136910161091d565b906108c3610c3c565b60026040518383823760208185810160018152030190200160ff60c01b19815416905581604051928392833781015f81520390207febf881b0f9e1b4a0cd64caa43de3b84857b09effa71637f5cbdd156e2331ab515f80a2005b9181601f840112156101125782359167ffffffffffffffff8311610112576020838186019501011161011257565b600435906001600160a01b038216820361011257565b5f5b8381106109725750505f910152565b8181015183820152602001610963565b9060209161099b81518092818552858086019101610961565b601f01601f1916010190565b90600182811c921680156109d5575b60208310146109c157565b634e487b7160e01b5f52602260045260245ffd5b91607f16916109b6565b90601f8019910116810190811067ffffffffffffffff821117610a0157604052565b634e487b7160e01b5f52604160045260245ffd5b9060405191825f8254610a27816109a7565b908184526020946001916001811690815f14610a955750600114610a57575b505050610a55925003836109df565b565b5f90815285812095935091905b818310610a7d575050610a5593508201015f8080610a46565b85548884018501529485019487945091830191610a64565b92505050610a5594925060ff191682840152151560051b8201015f8080610a46565b8054821015610acc575f5260205f2001905f90565b634e487b7160e01b5f52603260045260245ffd5b92919267ffffffffffffffff8211610a015760405191610b0a601f8201601f1916602001846109df565b829481845281830111610112578281602093845f960137010152565b601f8211610b3357505050565b5f5260205f20906020601f840160051c83019310610b6b575b601f0160051c01905b818110610b60575050565b5f8155600101610b55565b9091508190610b4c565b90929167ffffffffffffffff8111610a0157610b9b81610b9584546109a7565b84610b26565b5f601f8211600114610bd8578190610bc99394955f92610bcd5750508160011b915f199060031b1c19161790565b9055565b013590505f80610520565b601f19821694835f5260209160205f20925f905b888210610c2457505083600195969710610c0b575b505050811b019055565b01355f19600384901b60f8161c191690555f8080610c01565b80600184968294958701358155019501920190610bec565b5f546001600160a01b03163303610c4f57565b60405163118cdaa760e01b8152336004820152602490fdfea2646970667358221220c1ed5660bd2f8f04c852c497b57261b9e5eea1d70a9b6202a7b35071c01edeca64736f6c63430008180033",
  "linkReferences": {},
  "deployedLinkReferences": {}
}